{
  "_format": "hh-sol-artifact-1",
  "contractName": "Crowdesale",
  "sourceName": "contracts/Crowdsale.sol",
  "abi": [
    {
      "inputs": [
        {
          "internalType": "address",
          "name": "_walletAddress",
          "type": "address"
        },
        {
          "internalType": "contract ERC20",
          "name": "_token",
          "type": "address"
        },
        {
          "internalType": "contract ERC20",
          "name": "_tokenUSDT",
          "type": "address"
        },
        {
          "internalType": "uint256",
          "name": "_amount",
          "type": "uint256"
        },
        {
          "internalType": "address",
          "name": "_aggregatorAddress",
          "type": "address"
        },
        {
          "internalType": "uint256",
          "name": "_referralRate",
          "type": "uint256"
        },
        {
          "internalType": "uint8",
          "name": "_affiliateRate",
          "type": "uint8"
        }
      ],
      "stateMutability": "nonpayable",
      "type": "constructor"
    },
    {
      "inputs": [
        {
          "internalType": "address",
          "name": "owner",
          "type": "address"
        }
      ],
      "name": "OwnableInvalidOwner",
      "type": "error"
    },
    {
      "inputs": [
        {
          "internalType": "address",
          "name": "account",
          "type": "address"
        }
      ],
      "name": "OwnableUnauthorizedAccount",
      "type": "error"
    },
    {
      "inputs": [
        {
          "internalType": "int256",
          "name": "value",
          "type": "int256"
        }
      ],
      "name": "SafeCastOverflowedIntToUint",
      "type": "error"
    },
    {
      "anonymous": false,
      "inputs": [
        {
          "indexed": true,
          "internalType": "address",
          "name": "customer",
          "type": "address"
        },
        {
          "indexed": false,
          "internalType": "uint256",
          "name": "value",
          "type": "uint256"
        },
        {
          "indexed": true,
          "internalType": "address",
          "name": "affiliate",
          "type": "address"
        },
        {
          "indexed": false,
          "internalType": "uint256",
          "name": "commission",
          "type": "uint256"
        }
      ],
      "name": "AccumulatedCommission",
      "type": "event"
    },
    {
      "anonymous": false,
      "inputs": [
        {
          "indexed": true,
          "internalType": "address",
          "name": "affiliateWallet",
          "type": "address"
        }
      ],
      "name": "AffiliateRegistered",
      "type": "event"
    },
    {
      "anonymous": false,
      "inputs": [
        {
          "indexed": false,
          "internalType": "uint8",
          "name": "newRate",
          "type": "uint8"
        }
      ],
      "name": "ChangeCommisionRate",
      "type": "event"
    },
    {
      "anonymous": false,
      "inputs": [
        {
          "indexed": true,
          "internalType": "address",
          "name": "previousOwner",
          "type": "address"
        },
        {
          "indexed": true,
          "internalType": "address",
          "name": "newOwner",
          "type": "address"
        }
      ],
      "name": "OwnershipTransferred",
      "type": "event"
    },
    {
      "anonymous": false,
      "inputs": [
        {
          "indexed": true,
          "internalType": "address",
          "name": "purchaser",
          "type": "address"
        },
        {
          "indexed": false,
          "internalType": "uint256",
          "name": "value",
          "type": "uint256"
        },
        {
          "indexed": false,
          "internalType": "uint256",
          "name": "amount",
          "type": "uint256"
        }
      ],
      "name": "TokensPurchased",
      "type": "event"
    },
    {
      "anonymous": false,
      "inputs": [
        {
          "indexed": true,
          "internalType": "address",
          "name": "customer",
          "type": "address"
        },
        {
          "indexed": false,
          "internalType": "uint256",
          "name": "value",
          "type": "uint256"
        }
      ],
      "name": "WithdrawCommission",
      "type": "event"
    },
    {
      "inputs": [],
      "name": "REFERRAL_RATE",
      "outputs": [
        {
          "internalType": "uint256",
          "name": "",
          "type": "uint256"
        }
      ],
      "stateMutability": "view",
      "type": "function"
    },
    {
      "inputs": [
        {
          "internalType": "address",
          "name": "",
          "type": "address"
        }
      ],
      "name": "accumulatedCommission",
      "outputs": [
        {
          "internalType": "uint256",
          "name": "",
          "type": "uint256"
        }
      ],
      "stateMutability": "view",
      "type": "function"
    },
    {
      "inputs": [
        {
          "internalType": "address",
          "name": "_affiliate",
          "type": "address"
        },
        {
          "internalType": "uint256",
          "name": "_boughtValue",
          "type": "uint256"
        },
        {
          "internalType": "address",
          "name": "_buyer",
          "type": "address"
        }
      ],
      "name": "addCommissionByOwner",
      "outputs": [],
      "stateMutability": "nonpayable",
      "type": "function"
    },
    {
      "inputs": [
        {
          "internalType": "address",
          "name": "",
          "type": "address"
        }
      ],
      "name": "affiliates",
      "outputs": [
        {
          "internalType": "uint8",
          "name": "",
          "type": "uint8"
        }
      ],
      "stateMutability": "view",
      "type": "function"
    },
    {
      "inputs": [
        {
          "internalType": "uint256",
          "name": "_usdtAmount",
          "type": "uint256"
        },
        {
          "internalType": "address",
          "name": "_affiliateAddress",
          "type": "address"
        }
      ],
      "name": "buyTokens",
      "outputs": [],
      "stateMutability": "nonpayable",
      "type": "function"
    },
    {
      "inputs": [
        {
          "internalType": "address",
          "name": "_affiliateAddress",
          "type": "address"
        }
      ],
      "name": "buyTokensWithBNB",
      "outputs": [],
      "stateMutability": "payable",
      "type": "function"
    },
    {
      "inputs": [
        {
          "internalType": "uint8",
          "name": "_newRate",
          "type": "uint8"
        }
      ],
      "name": "changeCommissionRate",
      "outputs": [],
      "stateMutability": "nonpayable",
      "type": "function"
    },
    {
      "inputs": [],
      "name": "commissionRate",
      "outputs": [
        {
          "internalType": "uint8",
          "name": "",
          "type": "uint8"
        }
      ],
      "stateMutability": "view",
      "type": "function"
    },
    {
      "inputs": [],
      "name": "disperseAmount",
      "outputs": [
        {
          "internalType": "uint256",
          "name": "",
          "type": "uint256"
        }
      ],
      "stateMutability": "view",
      "type": "function"
    },
    {
      "inputs": [],
      "name": "owner",
      "outputs": [
        {
          "internalType": "address",
          "name": "",
          "type": "address"
        }
      ],
      "stateMutability": "view",
      "type": "function"
    },
    {
      "inputs": [
        {
          "internalType": "address",
          "name": "_affiliateAddress",
          "type": "address"
        }
      ],
      "name": "registerAsAffiliate",
      "outputs": [],
      "stateMutability": "nonpayable",
      "type": "function"
    },
    {
      "inputs": [],
      "name": "renounceOwnership",
      "outputs": [],
      "stateMutability": "nonpayable",
      "type": "function"
    },
    {
      "inputs": [
        {
          "internalType": "address",
          "name": "_newAggregatorAddress",
          "type": "address"
        }
      ],
      "name": "setAggregatorAddress",
      "outputs": [],
      "stateMutability": "nonpayable",
      "type": "function"
    },
    {
      "inputs": [
        {
          "internalType": "uint256",
          "name": "_newRate",
          "type": "uint256"
        }
      ],
      "name": "setReferralRate",
      "outputs": [],
      "stateMutability": "nonpayable",
      "type": "function"
    },
    {
      "inputs": [],
      "name": "token",
      "outputs": [
        {
          "internalType": "contract IERC20",
          "name": "",
          "type": "address"
        }
      ],
      "stateMutability": "view",
      "type": "function"
    },
    {
      "inputs": [],
      "name": "tokenUSDT",
      "outputs": [
        {
          "internalType": "contract ERC20",
          "name": "",
          "type": "address"
        }
      ],
      "stateMutability": "view",
      "type": "function"
    },
    {
      "inputs": [
        {
          "internalType": "address",
          "name": "newOwner",
          "type": "address"
        }
      ],
      "name": "transferOwnership",
      "outputs": [],
      "stateMutability": "nonpayable",
      "type": "function"
    },
    {
      "inputs": [],
      "name": "wallet",
      "outputs": [
        {
          "internalType": "address",
          "name": "",
          "type": "address"
        }
      ],
      "stateMutability": "view",
      "type": "function"
    },
    {
      "inputs": [],
      "name": "withdrawCommission",
      "outputs": [],
      "stateMutability": "nonpayable",
      "type": "function"
    },
    {
      "inputs": [],
      "name": "withdrawFunds",
      "outputs": [],
      "stateMutability": "nonpayable",
      "type": "function"
    },
    {
      "inputs": [],
      "name": "withdrawTokens",
      "outputs": [],
      "stateMutability": "nonpayable",
      "type": "function"
    },
    {
      "inputs": [],
      "name": "withdrawUSDT",
      "outputs": [],
      "stateMutability": "nonpayable",
      "type": "function"
    },
    {
      "stateMutability": "payable",
      "type": "receive"
    }
  ],
  "bytecode": "0x608060405260066009556012600a553480156200001b57600080fd5b5060405162004185380380620041858339818101604052810190620000419190620005d0565b808633600073ffffffffffffffffffffffffffffffffffffffff168173ffffffffffffffffffffffffffffffffffffffff1603620000b95760006040517f1e4fbdf7000000000000000000000000000000000000000000000000000000008152600401620000b0919062000694565b60405180910390fd5b620000ca81620003e460201b60201c565b5081600060146101000a81548160ff021916908360ff16021790555080600160006101000a81548173ffffffffffffffffffffffffffffffffffffffff021916908373ffffffffffffffffffffffffffffffffffffffff1602179055505050600073ffffffffffffffffffffffffffffffffffffffff168773ffffffffffffffffffffffffffffffffffffffff16036200019b576040517f08c379a0000000000000000000000000000000000000000000000000000000008152600401620001929062000738565b60405180910390fd5b600073ffffffffffffffffffffffffffffffffffffffff168673ffffffffffffffffffffffffffffffffffffffff16036200020d576040517f08c379a00000000000000000000000000000000000000000000000000000000081526004016200020490620007d0565b60405180910390fd5b600073ffffffffffffffffffffffffffffffffffffffff168573ffffffffffffffffffffffffffffffffffffffff16036200027f576040517f08c379a0000000000000000000000000000000000000000000000000000000008152600401620002769062000868565b60405180910390fd5b60008411620002c5576040517f08c379a0000000000000000000000000000000000000000000000000000000008152600401620002bc9062000900565b60405180910390fd5b86600560006101000a81548173ffffffffffffffffffffffffffffffffffffffff021916908373ffffffffffffffffffffffffffffffffffffffff1602179055508360068190555085600160006101000a81548173ffffffffffffffffffffffffffffffffffffffff021916908373ffffffffffffffffffffffffffffffffffffffff16021790555084600460006101000a81548173ffffffffffffffffffffffffffffffffffffffff021916908373ffffffffffffffffffffffffffffffffffffffff1602179055508160078190555082600b60006101000a81548173ffffffffffffffffffffffffffffffffffffffff021916908373ffffffffffffffffffffffffffffffffffffffff1602179055505050505050505062000922565b60008060009054906101000a900473ffffffffffffffffffffffffffffffffffffffff169050816000806101000a81548173ffffffffffffffffffffffffffffffffffffffff021916908373ffffffffffffffffffffffffffffffffffffffff1602179055508173ffffffffffffffffffffffffffffffffffffffff168173ffffffffffffffffffffffffffffffffffffffff167f8be0079c531659141344cd1fd0a4f28419497f9722a3daafe3b4186f6b6457e060405160405180910390a35050565b600080fd5b600073ffffffffffffffffffffffffffffffffffffffff82169050919050565b6000620004da82620004ad565b9050919050565b620004ec81620004cd565b8114620004f857600080fd5b50565b6000815190506200050c81620004e1565b92915050565b60006200051f82620004cd565b9050919050565b620005318162000512565b81146200053d57600080fd5b50565b600081519050620005518162000526565b92915050565b6000819050919050565b6200056c8162000557565b81146200057857600080fd5b50565b6000815190506200058c8162000561565b92915050565b600060ff82169050919050565b620005aa8162000592565b8114620005b657600080fd5b50565b600081519050620005ca816200059f565b92915050565b600080600080600080600060e0888a031215620005f257620005f1620004a8565b5b6000620006028a828b01620004fb565b9750506020620006158a828b0162000540565b9650506040620006288a828b0162000540565b95505060606200063b8a828b016200057b565b94505060806200064e8a828b01620004fb565b93505060a0620006618a828b016200057b565b92505060c0620006748a828b01620005b9565b91505092959891949750929550565b6200068e81620004cd565b82525050565b6000602082019050620006ab600083018462000683565b92915050565b600082825260208201905092915050565b7f43726f77646553616c653a2077616c6c657420616464726573732063616e277460008201527f206265207a65726f000000000000000000000000000000000000000000000000602082015250565b600062000720602883620006b1565b91506200072d82620006c2565b604082019050919050565b60006020820190508181036000830152620007538162000711565b9050919050565b7f43726f77646553616c653a20746f6b656e20616464726573732063616e27742060008201527f6265207a65726f00000000000000000000000000000000000000000000000000602082015250565b6000620007b8602783620006b1565b9150620007c5826200075a565b604082019050919050565b60006020820190508181036000830152620007eb81620007a9565b9050919050565b7f43726f77646553616c653a205553445420746f6b656e2061646472657373206360008201527f616e2774206265207a65726f0000000000000000000000000000000000000000602082015250565b600062000850602c83620006b1565b91506200085d82620007f2565b604082019050919050565b60006020820190508181036000830152620008838162000841565b9050919050565b7f43726f77646553616c653a20646973706572736520616d6f756e742063616e2760008201527f74206265207a65726f0000000000000000000000000000000000000000000000602082015250565b6000620008e8602983620006b1565b9150620008f5826200088a565b604082019050919050565b600060208201905081810360008301526200091b81620008d9565b9050919050565b61385380620009326000396000f3fe6080604052600436106101395760003560e01c806388576dc9116100ab578063c625e9b11161006f578063c625e9b11461082e578063ca4863fd14610857578063e276db8314610880578063f2fde38b146108ab578063f873aff3146108d4578063fc0c546a146108fd576105ce565b806388576dc91461075b5780638aa58799146107845780638d8f2adb146107c15780638da5cb5b146107d857806399c5c8aa14610803576105ce565b80634f51e294116100fd5780634f51e2941461066a578063521eb273146106a75780635304a20b146106d25780635ea1d6f8146106fd578063715018a61461072857806378c490561461073f576105ce565b806324600fc3146105d3578063362e496b146105ea5780633e25e83714610601578063438c3bcd1461061857806347b3244814610641576105ce565b366105ce57600860009054906101000a900460ff161561018e576040517f08c379a000000000000000000000000000000000000000000000000000000000815260040161018590612763565b60405180910390fd5b6001600860006101000a81548160ff0219169083151502179055506000600160009054906101000a900473ffffffffffffffffffffffffffffffffffffffff1673ffffffffffffffffffffffffffffffffffffffff166370a08231306040518263ffffffff1660e01b815260040161020691906127c4565b602060405180830381865afa158015610223573d6000803e3d6000fd5b505050506040513d601f19601f82011682018060405250810190610247919061281a565b90506000811161028c576040517f08c379a0000000000000000000000000000000000000000000000000000000008152600401610283906128b9565b60405180910390fd5b6000349050600081116102d4576040517f08c379a00000000000000000000000000000000000000000000000000000000081526004016102cb90612925565b60405180910390fd5b6000600b60009054906101000a900473ffffffffffffffffffffffffffffffffffffffff1673ffffffffffffffffffffffffffffffffffffffff1663feaf968c6040518163ffffffff1660e01b815260040160a060405180830381865afa158015610343573d6000803e3d6000fd5b505050506040513d601f19601f8201168201806040525081019061036791906129bd565b5050509150506000600b60009054906101000a900473ffffffffffffffffffffffffffffffffffffffff1673ffffffffffffffffffffffffffffffffffffffff1663313ce5676040518163ffffffff1660e01b8152600401602060405180830381865afa1580156103dc573d6000803e3d6000fd5b505050506040513d601f19601f820116820180604052508101906104009190612a71565b60ff169050600061042e82600a6104179190612c00565b61042085610928565b61097790919063ffffffff16565b9050610458606461044a6007548761098d90919063ffffffff16565b61097790919063ffffffff16565b9350600160009054906101000a900473ffffffffffffffffffffffffffffffffffffffff1673ffffffffffffffffffffffffffffffffffffffff1663a9059cbb336104ac848861098d90919063ffffffff16565b6040518363ffffffff1660e01b81526004016104c9929190612c5a565b6020604051808303816000875af11580156104e8573d6000803e3d6000fd5b505050506040513d601f19601f8201168201806040525081019061050c9190612cbb565b61054b576040517f08c379a000000000000000000000000000000000000000000000000000000000815260040161054290612d34565b60405180910390fd5b3373ffffffffffffffffffffffffffffffffffffffff167f8fafebcaf9d154343dad25669bfa277f4fbacd7ac6b0c4fed522580e040a0f3385610597848861098d90919063ffffffff16565b6040516105a5929190612d54565b60405180910390a250505050506000600860006101000a81548160ff0219169083151502179055005b600080fd5b3480156105df57600080fd5b506105e86109cf565b005b3480156105f657600080fd5b506105ff610a42565b005b34801561060d57600080fd5b50610616610ccc565b005b34801561062457600080fd5b5061063f600480360381019061063a9190612da9565b610f67565b005b34801561064d57600080fd5b5061066860048036038101906106639190612da9565b611014565b005b34801561067657600080fd5b50610691600480360381019061068c9190612da9565b6110cf565b60405161069e9190612de5565b60405180910390f35b3480156106b357600080fd5b506106bc6110ef565b6040516106c991906127c4565b60405180910390f35b3480156106de57600080fd5b506106e7611115565b6040516106f49190612e00565b60405180910390f35b34801561070957600080fd5b5061071261111b565b60405161071f9190612de5565b60405180910390f35b34801561073457600080fd5b5061073d61112e565b005b61075960048036038101906107549190612da9565b611142565b005b34801561076757600080fd5b50610782600480360381019061077d9190612e30565b611626565b005b34801561079057600080fd5b506107ab60048036038101906107a69190612da9565b611692565b6040516107b89190612e00565b60405180910390f35b3480156107cd57600080fd5b506107d66116aa565b005b3480156107e457600080fd5b506107ed611934565b6040516107fa91906127c4565b60405180910390f35b34801561080f57600080fd5b5061081861195d565b6040516108259190612ebc565b60405180910390f35b34801561083a57600080fd5b5061085560048036038101906108509190612eec565b611983565b005b34801561086357600080fd5b5061087e60048036038101906108799190612f2c565b611ef4565b005b34801561088c57600080fd5b50610895611f49565b6040516108a29190612e00565b60405180910390f35b3480156108b757600080fd5b506108d260048036038101906108cd9190612da9565b611f4f565b005b3480156108e057600080fd5b506108fb60048036038101906108f69190612f59565b611fd5565b005b34801561090957600080fd5b5061091261231c565b60405161091f9190612fcd565b60405180910390f35b60008082121561096f57816040517fa8ce44320000000000000000000000000000000000000000000000000000000081526004016109669190612ff7565b60405180910390fd5b819050919050565b600081836109859190613041565b905092915050565b600080830361099f57600090506109c9565b81836109ab9190613072565b90508183826109ba9190613041565b146109c8576109c76130b4565b5b5b92915050565b6109d7612342565b600560009054906101000a900473ffffffffffffffffffffffffffffffffffffffff1673ffffffffffffffffffffffffffffffffffffffff166108fc479081150290604051600060405180830381858888f19350505050158015610a3f573d6000803e3d6000fd5b50565b610a4a612342565b6000600460009054906101000a900473ffffffffffffffffffffffffffffffffffffffff1673ffffffffffffffffffffffffffffffffffffffff166370a08231306040518263ffffffff1660e01b8152600401610aa791906127c4565b602060405180830381865afa158015610ac4573d6000803e3d6000fd5b505050506040513d601f19601f82011682018060405250810190610ae8919061281a565b905060008111610b2d576040517f08c379a0000000000000000000000000000000000000000000000000000000008152600401610b2490613155565b60405180910390fd5b600460009054906101000a900473ffffffffffffffffffffffffffffffffffffffff1673ffffffffffffffffffffffffffffffffffffffff1663a9059cbb600560009054906101000a900473ffffffffffffffffffffffffffffffffffffffff16600460009054906101000a900473ffffffffffffffffffffffffffffffffffffffff1673ffffffffffffffffffffffffffffffffffffffff166370a08231306040518263ffffffff1660e01b8152600401610be991906127c4565b602060405180830381865afa158015610c06573d6000803e3d6000fd5b505050506040513d601f19601f82011682018060405250810190610c2a919061281a565b6040518363ffffffff1660e01b8152600401610c47929190612c5a565b6020604051808303816000875af1158015610c66573d6000803e3d6000fd5b505050506040513d601f19601f82011682018060405250810190610c8a9190612cbb565b610cc9576040517f08c379a0000000000000000000000000000000000000000000000000000000008152600401610cc0906131c1565b60405180910390fd5b50565b6000600360003373ffffffffffffffffffffffffffffffffffffffff1673ffffffffffffffffffffffffffffffffffffffff16815260200190815260200160002054905060008111610d53576040517f08c379a0000000000000000000000000000000000000000000000000000000008152600401610d4a9061322d565b60405180910390fd5b80600160009054906101000a900473ffffffffffffffffffffffffffffffffffffffff1673ffffffffffffffffffffffffffffffffffffffff166370a08231306040518263ffffffff1660e01b8152600401610daf91906127c4565b602060405180830381865afa158015610dcc573d6000803e3d6000fd5b505050506040513d601f19601f82011682018060405250810190610df0919061281a565b11610e30576040517f08c379a0000000000000000000000000000000000000000000000000000000008152600401610e2790613299565b60405180910390fd5b6000600360003373ffffffffffffffffffffffffffffffffffffffff1673ffffffffffffffffffffffffffffffffffffffff16815260200190815260200160002081905550600160009054906101000a900473ffffffffffffffffffffffffffffffffffffffff1673ffffffffffffffffffffffffffffffffffffffff1663a9059cbb33836040518363ffffffff1660e01b8152600401610ed2929190612c5a565b6020604051808303816000875af1158015610ef1573d6000803e3d6000fd5b505050506040513d601f19601f82011682018060405250810190610f159190612cbb565b503373ffffffffffffffffffffffffffffffffffffffff167f2a016beab1c9536945a8f4c51b734f24f9d1458b765600efdabb6a3c52251e7582604051610f5c9190612e00565b60405180910390a250565b600060149054906101000a900460ff16600260008373ffffffffffffffffffffffffffffffffffffffff1673ffffffffffffffffffffffffffffffffffffffff16815260200190815260200160002060006101000a81548160ff021916908360ff1602179055508073ffffffffffffffffffffffffffffffffffffffff167f53286125aa034acaf4eb8a0931fe01b25caceba942ab407c6ce09e1b0dfab58c60405160405180910390a250565b61101c612342565b600073ffffffffffffffffffffffffffffffffffffffff168173ffffffffffffffffffffffffffffffffffffffff160361108b576040517f08c379a00000000000000000000000000000000000000000000000000000000081526004016110829061332b565b60405180910390fd5b80600b60006101000a81548173ffffffffffffffffffffffffffffffffffffffff021916908373ffffffffffffffffffffffffffffffffffffffff16021790555050565b60026020528060005260406000206000915054906101000a900460ff1681565b600560009054906101000a900473ffffffffffffffffffffffffffffffffffffffff1681565b60065481565b600060149054906101000a900460ff1681565b611136612342565b61114060006123c9565b565b600860009054906101000a900460ff1615611192576040517f08c379a000000000000000000000000000000000000000000000000000000000815260040161118990612763565b60405180910390fd5b6001600860006101000a81548160ff0219169083151502179055506000600160009054906101000a900473ffffffffffffffffffffffffffffffffffffffff1673ffffffffffffffffffffffffffffffffffffffff166370a08231306040518263ffffffff1660e01b815260040161120a91906127c4565b602060405180830381865afa158015611227573d6000803e3d6000fd5b505050506040513d601f19601f8201168201806040525081019061124b919061281a565b905060008111611290576040517f08c379a0000000000000000000000000000000000000000000000000000000008152600401611287906128b9565b60405180910390fd5b6000349050600081116112d8576040517f08c379a00000000000000000000000000000000000000000000000000000000081526004016112cf90612925565b60405180910390fd5b6000600b60009054906101000a900473ffffffffffffffffffffffffffffffffffffffff1673ffffffffffffffffffffffffffffffffffffffff1663feaf968c6040518163ffffffff1660e01b815260040160a060405180830381865afa158015611347573d6000803e3d6000fd5b505050506040513d601f19601f8201168201806040525081019061136b91906129bd565b5050509150506000600b60009054906101000a900473ffffffffffffffffffffffffffffffffffffffff1673ffffffffffffffffffffffffffffffffffffffff1663313ce5676040518163ffffffff1660e01b8152600401602060405180830381865afa1580156113e0573d6000803e3d6000fd5b505050506040513d601f19601f820116820180604052508101906114049190612a71565b60ff169050600061143282600a61141b9190612c00565b61142485610928565b61097790919063ffffffff16565b905061145c606461144e6007548761098d90919063ffffffff16565b61097790919063ffffffff16565b9350600160009054906101000a900473ffffffffffffffffffffffffffffffffffffffff1673ffffffffffffffffffffffffffffffffffffffff1663a9059cbb336114b0848861098d90919063ffffffff16565b6040518363ffffffff1660e01b81526004016114cd929190612c5a565b6020604051808303816000875af11580156114ec573d6000803e3d6000fd5b505050506040513d601f19601f820116820180604052508101906115109190612cbb565b61154f576040517f08c379a000000000000000000000000000000000000000000000000000000000815260040161154690612d34565b60405180910390fd5b600073ffffffffffffffffffffffffffffffffffffffff168673ffffffffffffffffffffffffffffffffffffffff16146115a1576115a08661159a838761098d90919063ffffffff16565b3361248d565b5b3373ffffffffffffffffffffffffffffffffffffffff167f8fafebcaf9d154343dad25669bfa277f4fbacd7ac6b0c4fed522580e040a0f33856115ed848861098d90919063ffffffff16565b6040516115fb929190612d54565b60405180910390a250505050506000600860006101000a81548160ff02191690831515021790555050565b61162e612342565b80600060146101000a81548160ff021916908360ff1602179055507f33bedb18f5997e509fda05045e1279f45fd9c53ef8cb47f4b170f74cc63bccac600060149054906101000a900460ff166040516116879190612de5565b60405180910390a150565b60036020528060005260406000206000915090505481565b6116b2612342565b6000600160009054906101000a900473ffffffffffffffffffffffffffffffffffffffff1673ffffffffffffffffffffffffffffffffffffffff166370a08231306040518263ffffffff1660e01b815260040161170f91906127c4565b602060405180830381865afa15801561172c573d6000803e3d6000fd5b505050506040513d601f19601f82011682018060405250810190611750919061281a565b905060008111611795576040517f08c379a000000000000000000000000000000000000000000000000000000000815260040161178c906128b9565b60405180910390fd5b600160009054906101000a900473ffffffffffffffffffffffffffffffffffffffff1673ffffffffffffffffffffffffffffffffffffffff1663a9059cbb600560009054906101000a900473ffffffffffffffffffffffffffffffffffffffff16600160009054906101000a900473ffffffffffffffffffffffffffffffffffffffff1673ffffffffffffffffffffffffffffffffffffffff166370a08231306040518263ffffffff1660e01b815260040161185191906127c4565b602060405180830381865afa15801561186e573d6000803e3d6000fd5b505050506040513d601f19601f82011682018060405250810190611892919061281a565b6040518363ffffffff1660e01b81526004016118af929190612c5a565b6020604051808303816000875af11580156118ce573d6000803e3d6000fd5b505050506040513d601f19601f820116820180604052508101906118f29190612cbb565b611931576040517f08c379a000000000000000000000000000000000000000000000000000000000815260040161192890613397565b60405180910390fd5b50565b60008060009054906101000a900473ffffffffffffffffffffffffffffffffffffffff16905090565b600460009054906101000a900473ffffffffffffffffffffffffffffffffffffffff1681565b6000600160009054906101000a900473ffffffffffffffffffffffffffffffffffffffff1673ffffffffffffffffffffffffffffffffffffffff166370a08231306040518263ffffffff1660e01b81526004016119e091906127c4565b602060405180830381865afa1580156119fd573d6000803e3d6000fd5b505050506040513d601f19601f82011682018060405250810190611a21919061281a565b905060008111611a66576040517f08c379a0000000000000000000000000000000000000000000000000000000008152600401611a5d906128b9565b60405180910390fd5b6000600954600a611a779190612c00565b600a54600a611a869190612c00565b85611a919190613072565b611a9b9190613041565b905060008411611ae0576040517f08c379a0000000000000000000000000000000000000000000000000000000008152600401611ad790613403565b60405180910390fd5b83600460009054906101000a900473ffffffffffffffffffffffffffffffffffffffff1673ffffffffffffffffffffffffffffffffffffffff166370a08231336040518263ffffffff1660e01b8152600401611b3c91906127c4565b602060405180830381865afa158015611b59573d6000803e3d6000fd5b505050506040513d601f19601f82011682018060405250810190611b7d919061281a565b1015611bbe576040517f08c379a0000000000000000000000000000000000000000000000000000000008152600401611bb59061346f565b60405180910390fd5b83600460009054906101000a900473ffffffffffffffffffffffffffffffffffffffff1673ffffffffffffffffffffffffffffffffffffffff1663dd62ed3e33306040518363ffffffff1660e01b8152600401611c1c92919061348f565b602060405180830381865afa158015611c39573d6000803e3d6000fd5b505050506040513d601f19601f82011682018060405250810190611c5d919061281a565b1015611c9e576040517f08c379a0000000000000000000000000000000000000000000000000000000008152600401611c9590613504565b60405180910390fd5b600460009054906101000a900473ffffffffffffffffffffffffffffffffffffffff1673ffffffffffffffffffffffffffffffffffffffff166323b872dd3330876040518463ffffffff1660e01b8152600401611cfd93929190613524565b6020604051808303816000875af1158015611d1c573d6000803e3d6000fd5b505050506040513d601f19601f82011682018060405250810190611d409190612cbb565b611d7f576040517f08c379a0000000000000000000000000000000000000000000000000000000008152600401611d76906135a7565b60405180910390fd5b600160009054906101000a900473ffffffffffffffffffffffffffffffffffffffff1673ffffffffffffffffffffffffffffffffffffffff1663a9059cbb33836040518363ffffffff1660e01b8152600401611ddc929190612c5a565b6020604051808303816000875af1158015611dfb573d6000803e3d6000fd5b505050506040513d601f19601f82011682018060405250810190611e1f9190612cbb565b611e5e576040517f08c379a0000000000000000000000000000000000000000000000000000000008152600401611e5590612d34565b60405180910390fd5b600073ffffffffffffffffffffffffffffffffffffffff168373ffffffffffffffffffffffffffffffffffffffff1614611e9e57611e9d83823361248d565b5b3373ffffffffffffffffffffffffffffffffffffffff167f8fafebcaf9d154343dad25669bfa277f4fbacd7ac6b0c4fed522580e040a0f338583604051611ee6929190612d54565b60405180910390a250505050565b611efc612342565b60008111611f3f576040517f08c379a0000000000000000000000000000000000000000000000000000000008152600401611f3690613639565b60405180910390fd5b8060078190555050565b60075481565b611f57612342565b600073ffffffffffffffffffffffffffffffffffffffff168173ffffffffffffffffffffffffffffffffffffffff1603611fc95760006040517f1e4fbdf7000000000000000000000000000000000000000000000000000000008152600401611fc091906127c4565b60405180910390fd5b611fd2816123c9565b50565b611fdd612342565b60008211612020576040517f08c379a0000000000000000000000000000000000000000000000000000000008152600401612017906136cb565b60405180910390fd5b8073ffffffffffffffffffffffffffffffffffffffff168373ffffffffffffffffffffffffffffffffffffffff160361208e576040517f08c379a00000000000000000000000000000000000000000000000000000000081526004016120859061375d565b60405180910390fd5b6000600260008573ffffffffffffffffffffffffffffffffffffffff1673ffffffffffffffffffffffffffffffffffffffff16815260200190815260200160002060009054906101000a900460ff1660ff160361214d57600060149054906101000a900460ff16600260008573ffffffffffffffffffffffffffffffffffffffff1673ffffffffffffffffffffffffffffffffffffffff16815260200190815260200160002060006101000a81548160ff021916908360ff1602179055505b60006064600260008673ffffffffffffffffffffffffffffffffffffffff1673ffffffffffffffffffffffffffffffffffffffff16815260200190815260200160002060009054906101000a900460ff1660ff16846121ac9190613072565b6121b69190613041565b905080600360008673ffffffffffffffffffffffffffffffffffffffff1673ffffffffffffffffffffffffffffffffffffffff1681526020019081526020016000206000828254612207919061377d565b92505081905550600160009054906101000a900473ffffffffffffffffffffffffffffffffffffffff1673ffffffffffffffffffffffffffffffffffffffff1663a9059cbb83856040518363ffffffff1660e01b815260040161226b929190612c5a565b6020604051808303816000875af115801561228a573d6000803e3d6000fd5b505050506040513d601f19601f820116820180604052508101906122ae9190612cbb565b508373ffffffffffffffffffffffffffffffffffffffff168273ffffffffffffffffffffffffffffffffffffffff167f5a1838523901c986595a2cf4484933f2c42d64a7bfc9b6d0c40cacb22379fa82858460405161230e929190612d54565b60405180910390a350505050565b600160009054906101000a900473ffffffffffffffffffffffffffffffffffffffff1681565b61234a6126fe565b73ffffffffffffffffffffffffffffffffffffffff16612368611934565b73ffffffffffffffffffffffffffffffffffffffff16146123c75761238b6126fe565b6040517f118cdaa70000000000000000000000000000000000000000000000000000000081526004016123be91906127c4565b60405180910390fd5b565b60008060009054906101000a900473ffffffffffffffffffffffffffffffffffffffff169050816000806101000a81548173ffffffffffffffffffffffffffffffffffffffff021916908373ffffffffffffffffffffffffffffffffffffffff1602179055508173ffffffffffffffffffffffffffffffffffffffff168173ffffffffffffffffffffffffffffffffffffffff167f8be0079c531659141344cd1fd0a4f28419497f9722a3daafe3b4186f6b6457e060405160405180910390a35050565b600082116124d0576040517f08c379a00000000000000000000000000000000000000000000000000000000081526004016124c7906136cb565b60405180910390fd5b6000600260008573ffffffffffffffffffffffffffffffffffffffff1673ffffffffffffffffffffffffffffffffffffffff16815260200190815260200160002060009054906101000a900460ff1660ff1611612562576040517f08c379a0000000000000000000000000000000000000000000000000000000008152600401612559906137fd565b60405180910390fd5b8073ffffffffffffffffffffffffffffffffffffffff168373ffffffffffffffffffffffffffffffffffffffff16036125d0576040517f08c379a00000000000000000000000000000000000000000000000000000000081526004016125c79061375d565b60405180910390fd5b60006064600260008673ffffffffffffffffffffffffffffffffffffffff1673ffffffffffffffffffffffffffffffffffffffff16815260200190815260200160002060009054906101000a900460ff1660ff168461262f9190613072565b6126399190613041565b905080600360008673ffffffffffffffffffffffffffffffffffffffff1673ffffffffffffffffffffffffffffffffffffffff168152602001908152602001600020600082825461268a919061377d565b925050819055508373ffffffffffffffffffffffffffffffffffffffff168273ffffffffffffffffffffffffffffffffffffffff167f5a1838523901c986595a2cf4484933f2c42d64a7bfc9b6d0c40cacb22379fa8285846040516126f0929190612d54565b60405180910390a350505050565b600033905090565b600082825260208201905092915050565b7f5265656e7472616e637947756172643a207265656e7472616e742063616c6c00600082015250565b600061274d601f83612706565b915061275882612717565b602082019050919050565b6000602082019050818103600083015261277c81612740565b9050919050565b600073ffffffffffffffffffffffffffffffffffffffff82169050919050565b60006127ae82612783565b9050919050565b6127be816127a3565b82525050565b60006020820190506127d960008301846127b5565b92915050565b600080fd5b6000819050919050565b6127f7816127e4565b811461280257600080fd5b50565b600081519050612814816127ee565b92915050565b6000602082840312156128305761282f6127df565b5b600061283e84828501612805565b91505092915050565b7f43726f77646553616c653a20496e73756666696369656e7420746f6b656e206160008201527f6d6f756e74000000000000000000000000000000000000000000000000000000602082015250565b60006128a3602583612706565b91506128ae82612847565b604082019050919050565b600060208201905081810360008301526128d281612896565b9050919050565b7f43726f77646553616c653a204554482076616c75652063616e27742062652030600082015250565b600061290f602083612706565b915061291a826128d9565b602082019050919050565b6000602082019050818103600083015261293e81612902565b9050919050565b600069ffffffffffffffffffff82169050919050565b61296481612945565b811461296f57600080fd5b50565b6000815190506129818161295b565b92915050565b6000819050919050565b61299a81612987565b81146129a557600080fd5b50565b6000815190506129b781612991565b92915050565b600080600080600060a086880312156129d9576129d86127df565b5b60006129e788828901612972565b95505060206129f8888289016129a8565b9450506040612a0988828901612805565b9350506060612a1a88828901612805565b9250506080612a2b88828901612972565b9150509295509295909350565b600060ff82169050919050565b612a4e81612a38565b8114612a5957600080fd5b50565b600081519050612a6b81612a45565b92915050565b600060208284031215612a8757612a866127df565b5b6000612a9584828501612a5c565b91505092915050565b7f4e487b7100000000000000000000000000000000000000000000000000000000600052601160045260246000fd5b60008160011c9050919050565b6000808291508390505b6001851115612b2457808604811115612b0057612aff612a9e565b5b6001851615612b0f5780820291505b8081029050612b1d85612acd565b9450612ae4565b94509492505050565b600082612b3d5760019050612bf9565b81612b4b5760009050612bf9565b8160018114612b615760028114612b6b57612b9a565b6001915050612bf9565b60ff841115612b7d57612b7c612a9e565b5b8360020a915084821115612b9457612b93612a9e565b5b50612bf9565b5060208310610133831016604e8410600b8410161715612bcf5782820a905083811115612bca57612bc9612a9e565b5b612bf9565b612bdc8484846001612ada565b92509050818404811115612bf357612bf2612a9e565b5b81810290505b9392505050565b6000612c0b826127e4565b9150612c16836127e4565b9250612c437fffffffffffffffffffffffffffffffffffffffffffffffffffffffffffffffff8484612b2d565b905092915050565b612c54816127e4565b82525050565b6000604082019050612c6f60008301856127b5565b612c7c6020830184612c4b565b9392505050565b60008115159050919050565b612c9881612c83565b8114612ca357600080fd5b50565b600081519050612cb581612c8f565b92915050565b600060208284031215612cd157612cd06127df565b5b6000612cdf84828501612ca6565b91505092915050565b7f546f6b656e207472616e73666572206661696c65640000000000000000000000600082015250565b6000612d1e601583612706565b9150612d2982612ce8565b602082019050919050565b60006020820190508181036000830152612d4d81612d11565b9050919050565b6000604082019050612d696000830185612c4b565b612d766020830184612c4b565b9392505050565b612d86816127a3565b8114612d9157600080fd5b50565b600081359050612da381612d7d565b92915050565b600060208284031215612dbf57612dbe6127df565b5b6000612dcd84828501612d94565b91505092915050565b612ddf81612a38565b82525050565b6000602082019050612dfa6000830184612dd6565b92915050565b6000602082019050612e156000830184612c4b565b92915050565b600081359050612e2a81612a45565b92915050565b600060208284031215612e4657612e456127df565b5b6000612e5484828501612e1b565b91505092915050565b6000819050919050565b6000612e82612e7d612e7884612783565b612e5d565b612783565b9050919050565b6000612e9482612e67565b9050919050565b6000612ea682612e89565b9050919050565b612eb681612e9b565b82525050565b6000602082019050612ed16000830184612ead565b92915050565b600081359050612ee6816127ee565b92915050565b60008060408385031215612f0357612f026127df565b5b6000612f1185828601612ed7565b9250506020612f2285828601612d94565b9150509250929050565b600060208284031215612f4257612f416127df565b5b6000612f5084828501612ed7565b91505092915050565b600080600060608486031215612f7257612f716127df565b5b6000612f8086828701612d94565b9350506020612f9186828701612ed7565b9250506040612fa286828701612d94565b9150509250925092565b6000612fb782612e89565b9050919050565b612fc781612fac565b82525050565b6000602082019050612fe26000830184612fbe565b92915050565b612ff181612987565b82525050565b600060208201905061300c6000830184612fe8565b92915050565b7f4e487b7100000000000000000000000000000000000000000000000000000000600052601260045260246000fd5b600061304c826127e4565b9150613057836127e4565b92508261306757613066613012565b5b828204905092915050565b600061307d826127e4565b9150613088836127e4565b9250828202613096816127e4565b915082820484148315176130ad576130ac612a9e565b5b5092915050565b7f4e487b7100000000000000000000000000000000000000000000000000000000600052600160045260246000fd5b7f43726f77646553616c653a20496e73756666696369656e7420746f6b656e555360008201527f445420616d6f756e740000000000000000000000000000000000000000000000602082015250565b600061313f602983612706565b915061314a826130e3565b604082019050919050565b6000602082019050818103600083015261316e81613132565b9050919050565b7f55534454207769746864726177206661696c6564000000000000000000000000600082015250565b60006131ab601483612706565b91506131b682613175565b602082019050919050565b600060208201905081810360008301526131da8161319e565b9050919050565b7f4e6f20636f6d6d697373696f6e20746f20776974686472617700000000000000600082015250565b6000613217601983612706565b9150613222826131e1565b602082019050919050565b600060208201905081810360008301526132468161320a565b9050919050565b7f496e7375666669636e657420636f6e74726163742062616c616e636500000000600082015250565b6000613283601c83612706565b915061328e8261324d565b602082019050919050565b600060208201905081810360008301526132b281613276565b9050919050565b7f41676772656761746f722061646472657373206d757374206265206e6f74207a60008201527f65726f2061646472657373000000000000000000000000000000000000000000602082015250565b6000613315602b83612706565b9150613320826132b9565b604082019050919050565b6000602082019050818103600083015261334481613308565b9050919050565b7f546f6b656e207769746864726177206661696c65640000000000000000000000600082015250565b6000613381601583612706565b915061338c8261334b565b602082019050919050565b600060208201905081810360008301526133b081613374565b9050919050565b7f416d6f756e74206d7573742062652067726561746572207468616e207a65726f600082015250565b60006133ed602083612706565b91506133f8826133b7565b602082019050919050565b6000602082019050818103600083015261341c816133e0565b9050919050565b7f496e73756666696369656e742062616c616e6365000000000000000000000000600082015250565b6000613459601483612706565b915061346482613423565b602082019050919050565b600060208201905081810360008301526134888161344c565b9050919050565b60006040820190506134a460008301856127b5565b6134b160208301846127b5565b9392505050565b7f696e73756666696369656e7420416c6c6f77616e636500000000000000000000600082015250565b60006134ee601683612706565b91506134f9826134b8565b602082019050919050565b6000602082019050818103600083015261351d816134e1565b9050919050565b600060608201905061353960008301866127b5565b61354660208301856127b5565b6135536040830184612c4b565b949350505050565b7f55534454207472616e73666572206661696c6564000000000000000000000000600082015250565b6000613591601483612706565b915061359c8261355b565b602082019050919050565b600060208201905081810360008301526135c081613584565b9050919050565b7f526566657272616c2072617465206d757374206265206772656174657220746860008201527f616e207a65726f00000000000000000000000000000000000000000000000000602082015250565b6000613623602783612706565b915061362e826135c7565b604082019050919050565b6000602082019050818103600083015261365281613616565b9050919050565b7f50757263686173652076616c7565206d7573742062652067726561746572207460008201527f68616e2030000000000000000000000000000000000000000000000000000000602082015250565b60006136b5602583612706565b91506136c082613659565b604082019050919050565b600060208201905081810360008301526136e4816136a8565b9050919050565b7f416666696c696174652063616e6e6f74206265207468652073616d652061732060008201527f637573746f6d6572000000000000000000000000000000000000000000000000602082015250565b6000613747602883612706565b9150613752826136eb565b604082019050919050565b600060208201905081810360008301526137768161373a565b9050919050565b6000613788826127e4565b9150613793836127e4565b92508282019050808211156137ab576137aa612a9e565b5b92915050565b7f496e76616c696420616666696c69617465000000000000000000000000000000600082015250565b60006137e7601183612706565b91506137f2826137b1565b602082019050919050565b60006020820190508181036000830152613816816137da565b905091905056fea26469706673582212200cdcae824eabb7093607ef164d648a300755c37ed90e75af825c7439add8f48e64736f6c63430008180033",
  "linkReferences": {},
  "deployedLinkReferences": {}
}