{
  "_format": "hh-sol-artifact-1",
  "contractName": "Crowdesale",
  "sourceName": "contracts/Crowdsale.sol",
  "abi": [
    {
      "inputs": [
        {
          "internalType": "address",
          "name": "_walletAddress",
          "type": "address"
        },
        {
          "internalType": "contract ERC20",
          "name": "_token",
          "type": "address"
        },
        {
          "internalType": "contract ERC20",
          "name": "_tokenUSDT",
          "type": "address"
        },
        {
          "internalType": "uint256",
          "name": "_amount",
          "type": "uint256"
        },
        {
          "internalType": "address",
          "name": "_aggregatorAddress",
          "type": "address"
        },
        {
          "internalType": "uint256",
          "name": "_referralRate",
          "type": "uint256"
        },
        {
          "internalType": "uint8",
          "name": "_affiliateRate",
          "type": "uint8"
        }
      ],
      "stateMutability": "nonpayable",
      "type": "constructor"
    },
    {
      "inputs": [
        {
          "internalType": "address",
          "name": "owner",
          "type": "address"
        }
      ],
      "name": "OwnableInvalidOwner",
      "type": "error"
    },
    {
      "inputs": [
        {
          "internalType": "address",
          "name": "account",
          "type": "address"
        }
      ],
      "name": "OwnableUnauthorizedAccount",
      "type": "error"
    },
    {
      "inputs": [
        {
          "internalType": "int256",
          "name": "value",
          "type": "int256"
        }
      ],
      "name": "SafeCastOverflowedIntToUint",
      "type": "error"
    },
    {
      "anonymous": false,
      "inputs": [
        {
          "indexed": true,
          "internalType": "address",
          "name": "customer",
          "type": "address"
        },
        {
          "indexed": false,
          "internalType": "uint256",
          "name": "value",
          "type": "uint256"
        },
        {
          "indexed": true,
          "internalType": "address",
          "name": "affiliate",
          "type": "address"
        },
        {
          "indexed": false,
          "internalType": "uint256",
          "name": "commission",
          "type": "uint256"
        }
      ],
      "name": "AccumulatedCommission",
      "type": "event"
    },
    {
      "anonymous": false,
      "inputs": [
        {
          "indexed": true,
          "internalType": "address",
          "name": "affiliateWallet",
          "type": "address"
        }
      ],
      "name": "AffiliateRegistered",
      "type": "event"
    },
    {
      "anonymous": false,
      "inputs": [
        {
          "indexed": false,
          "internalType": "uint8",
          "name": "newRate",
          "type": "uint8"
        }
      ],
      "name": "ChangeCommisionRate",
      "type": "event"
    },
    {
      "anonymous": false,
      "inputs": [
        {
          "indexed": true,
          "internalType": "address",
          "name": "previousOwner",
          "type": "address"
        },
        {
          "indexed": true,
          "internalType": "address",
          "name": "newOwner",
          "type": "address"
        }
      ],
      "name": "OwnershipTransferred",
      "type": "event"
    },
    {
      "anonymous": false,
      "inputs": [
        {
          "indexed": true,
          "internalType": "address",
          "name": "purchaser",
          "type": "address"
        },
        {
          "indexed": false,
          "internalType": "uint256",
          "name": "value",
          "type": "uint256"
        },
        {
          "indexed": false,
          "internalType": "uint256",
          "name": "amount",
          "type": "uint256"
        }
      ],
      "name": "TokensPurchased",
      "type": "event"
    },
    {
      "anonymous": false,
      "inputs": [
        {
          "indexed": true,
          "internalType": "address",
          "name": "customer",
          "type": "address"
        },
        {
          "indexed": false,
          "internalType": "uint256",
          "name": "value",
          "type": "uint256"
        }
      ],
      "name": "WithdrawCommission",
      "type": "event"
    },
    {
      "inputs": [],
      "name": "REFERRAL_RATE",
      "outputs": [
        {
          "internalType": "uint256",
          "name": "",
          "type": "uint256"
        }
      ],
      "stateMutability": "view",
      "type": "function"
    },
    {
      "inputs": [
        {
          "internalType": "address",
          "name": "",
          "type": "address"
        }
      ],
      "name": "accumulatedCommission",
      "outputs": [
        {
          "internalType": "uint256",
          "name": "",
          "type": "uint256"
        }
      ],
      "stateMutability": "view",
      "type": "function"
    },
    {
      "inputs": [
        {
          "internalType": "address",
          "name": "",
          "type": "address"
        }
      ],
      "name": "affiliates",
      "outputs": [
        {
          "internalType": "uint8",
          "name": "",
          "type": "uint8"
        }
      ],
      "stateMutability": "view",
      "type": "function"
    },
    {
      "inputs": [
        {
          "internalType": "uint256",
          "name": "_usdtAmount",
          "type": "uint256"
        },
        {
          "internalType": "address",
          "name": "_affiliateAddress",
          "type": "address"
        }
      ],
      "name": "buyTokens",
      "outputs": [],
      "stateMutability": "nonpayable",
      "type": "function"
    },
    {
      "inputs": [
        {
          "internalType": "uint8",
          "name": "_newRate",
          "type": "uint8"
        }
      ],
      "name": "changeCommissionRate",
      "outputs": [],
      "stateMutability": "nonpayable",
      "type": "function"
    },
    {
      "inputs": [],
      "name": "commissionRate",
      "outputs": [
        {
          "internalType": "uint8",
          "name": "",
          "type": "uint8"
        }
      ],
      "stateMutability": "view",
      "type": "function"
    },
    {
      "inputs": [
        {
          "internalType": "address",
          "name": "",
          "type": "address"
        }
      ],
      "name": "customerToAffiliate",
      "outputs": [
        {
          "internalType": "address",
          "name": "",
          "type": "address"
        }
      ],
      "stateMutability": "view",
      "type": "function"
    },
    {
      "inputs": [],
      "name": "disperseAmount",
      "outputs": [
        {
          "internalType": "uint256",
          "name": "",
          "type": "uint256"
        }
      ],
      "stateMutability": "view",
      "type": "function"
    },
    {
      "inputs": [
        {
          "internalType": "address",
          "name": "_customer",
          "type": "address"
        }
      ],
      "name": "getCustomerAffiliate",
      "outputs": [
        {
          "internalType": "address",
          "name": "",
          "type": "address"
        }
      ],
      "stateMutability": "view",
      "type": "function"
    },
    {
      "inputs": [],
      "name": "owner",
      "outputs": [
        {
          "internalType": "address",
          "name": "",
          "type": "address"
        }
      ],
      "stateMutability": "view",
      "type": "function"
    },
    {
      "inputs": [
        {
          "internalType": "address",
          "name": "_affiliateAddress",
          "type": "address"
        }
      ],
      "name": "registerAsAffiliate",
      "outputs": [],
      "stateMutability": "nonpayable",
      "type": "function"
    },
    {
      "inputs": [],
      "name": "renounceOwnership",
      "outputs": [],
      "stateMutability": "nonpayable",
      "type": "function"
    },
    {
      "inputs": [
        {
          "internalType": "address",
          "name": "_newAggregatorAddress",
          "type": "address"
        }
      ],
      "name": "setAggregatorAddress",
      "outputs": [],
      "stateMutability": "nonpayable",
      "type": "function"
    },
    {
      "inputs": [
        {
          "internalType": "uint256",
          "name": "_newRate",
          "type": "uint256"
        }
      ],
      "name": "setReferralRate",
      "outputs": [],
      "stateMutability": "nonpayable",
      "type": "function"
    },
    {
      "inputs": [],
      "name": "token",
      "outputs": [
        {
          "internalType": "contract IERC20",
          "name": "",
          "type": "address"
        }
      ],
      "stateMutability": "view",
      "type": "function"
    },
    {
      "inputs": [],
      "name": "tokenUSDT",
      "outputs": [
        {
          "internalType": "contract ERC20",
          "name": "",
          "type": "address"
        }
      ],
      "stateMutability": "view",
      "type": "function"
    },
    {
      "inputs": [
        {
          "internalType": "address",
          "name": "newOwner",
          "type": "address"
        }
      ],
      "name": "transferOwnership",
      "outputs": [],
      "stateMutability": "nonpayable",
      "type": "function"
    },
    {
      "inputs": [],
      "name": "wallet",
      "outputs": [
        {
          "internalType": "address",
          "name": "",
          "type": "address"
        }
      ],
      "stateMutability": "view",
      "type": "function"
    },
    {
      "inputs": [],
      "name": "withdrawCommission",
      "outputs": [],
      "stateMutability": "nonpayable",
      "type": "function"
    },
    {
      "inputs": [],
      "name": "withdrawFunds",
      "outputs": [],
      "stateMutability": "nonpayable",
      "type": "function"
    },
    {
      "inputs": [],
      "name": "withdrawTokens",
      "outputs": [],
      "stateMutability": "nonpayable",
      "type": "function"
    },
    {
      "inputs": [],
      "name": "withdrawUSDT",
      "outputs": [],
      "stateMutability": "nonpayable",
      "type": "function"
    },
    {
      "stateMutability": "payable",
      "type": "receive"
    }
  ],
  "bytecode": "0x60806040523480156200001157600080fd5b5060405162003b0238038062003b028339818101604052810190620000379190620005c6565b808633600073ffffffffffffffffffffffffffffffffffffffff168173ffffffffffffffffffffffffffffffffffffffff1603620000af5760006040517f1e4fbdf7000000000000000000000000000000000000000000000000000000008152600401620000a691906200068a565b60405180910390fd5b620000c081620003da60201b60201c565b5081600060146101000a81548160ff021916908360ff16021790555080600160006101000a81548173ffffffffffffffffffffffffffffffffffffffff021916908373ffffffffffffffffffffffffffffffffffffffff1602179055505050600073ffffffffffffffffffffffffffffffffffffffff168773ffffffffffffffffffffffffffffffffffffffff160362000191576040517f08c379a000000000000000000000000000000000000000000000000000000000815260040162000188906200072e565b60405180910390fd5b600073ffffffffffffffffffffffffffffffffffffffff168673ffffffffffffffffffffffffffffffffffffffff160362000203576040517f08c379a0000000000000000000000000000000000000000000000000000000008152600401620001fa90620007c6565b60405180910390fd5b600073ffffffffffffffffffffffffffffffffffffffff168573ffffffffffffffffffffffffffffffffffffffff160362000275576040517f08c379a00000000000000000000000000000000000000000000000000000000081526004016200026c906200085e565b60405180910390fd5b60008411620002bb576040517f08c379a0000000000000000000000000000000000000000000000000000000008152600401620002b290620008f6565b60405180910390fd5b86600660006101000a81548173ffffffffffffffffffffffffffffffffffffffff021916908373ffffffffffffffffffffffffffffffffffffffff1602179055508360078190555085600160006101000a81548173ffffffffffffffffffffffffffffffffffffffff021916908373ffffffffffffffffffffffffffffffffffffffff16021790555084600560006101000a81548173ffffffffffffffffffffffffffffffffffffffff021916908373ffffffffffffffffffffffffffffffffffffffff1602179055508160088190555082600960016101000a81548173ffffffffffffffffffffffffffffffffffffffff021916908373ffffffffffffffffffffffffffffffffffffffff1602179055505050505050505062000918565b60008060009054906101000a900473ffffffffffffffffffffffffffffffffffffffff169050816000806101000a81548173ffffffffffffffffffffffffffffffffffffffff021916908373ffffffffffffffffffffffffffffffffffffffff1602179055508173ffffffffffffffffffffffffffffffffffffffff168173ffffffffffffffffffffffffffffffffffffffff167f8be0079c531659141344cd1fd0a4f28419497f9722a3daafe3b4186f6b6457e060405160405180910390a35050565b600080fd5b600073ffffffffffffffffffffffffffffffffffffffff82169050919050565b6000620004d082620004a3565b9050919050565b620004e281620004c3565b8114620004ee57600080fd5b50565b6000815190506200050281620004d7565b92915050565b60006200051582620004c3565b9050919050565b620005278162000508565b81146200053357600080fd5b50565b60008151905062000547816200051c565b92915050565b6000819050919050565b62000562816200054d565b81146200056e57600080fd5b50565b600081519050620005828162000557565b92915050565b600060ff82169050919050565b620005a08162000588565b8114620005ac57600080fd5b50565b600081519050620005c08162000595565b92915050565b600080600080600080600060e0888a031215620005e857620005e76200049e565b5b6000620005f88a828b01620004f1565b97505060206200060b8a828b0162000536565b96505060406200061e8a828b0162000536565b9550506060620006318a828b0162000571565b9450506080620006448a828b01620004f1565b93505060a0620006578a828b0162000571565b92505060c06200066a8a828b01620005af565b91505092959891949750929550565b6200068481620004c3565b82525050565b6000602082019050620006a1600083018462000679565b92915050565b600082825260208201905092915050565b7f43726f77646553616c653a2077616c6c657420616464726573732063616e277460008201527f206265207a65726f000000000000000000000000000000000000000000000000602082015250565b600062000716602883620006a7565b91506200072382620006b8565b604082019050919050565b60006020820190508181036000830152620007498162000707565b9050919050565b7f43726f77646553616c653a20746f6b656e20616464726573732063616e27742060008201527f6265207a65726f00000000000000000000000000000000000000000000000000602082015250565b6000620007ae602783620006a7565b9150620007bb8262000750565b604082019050919050565b60006020820190508181036000830152620007e1816200079f565b9050919050565b7f43726f77646553616c653a205553445420746f6b656e2061646472657373206360008201527f616e2774206265207a65726f0000000000000000000000000000000000000000602082015250565b600062000846602c83620006a7565b91506200085382620007e8565b604082019050919050565b60006020820190508181036000830152620008798162000837565b9050919050565b7f43726f77646553616c653a20646973706572736520616d6f756e742063616e2760008201527f74206265207a65726f0000000000000000000000000000000000000000000000602082015250565b6000620008de602983620006a7565b9150620008eb8262000880565b604082019050919050565b600060208201905081810360008301526200091181620008cf565b9050919050565b6131da80620009286000396000f3fe6080604052600436106101395760003560e01c8063715018a6116100ab57806399c5c8aa1161006f57806399c5c8aa14610861578063c625e9b11461088c578063ca4863fd146108b5578063e276db83146108de578063f2fde38b14610909578063fc0c546a14610932576105ce565b8063715018a6146107a257806388576dc9146107b95780638aa58799146107e25780638d8f2adb1461081f5780638da5cb5b14610836576105ce565b806347b32448116100fd57806347b324481461067e5780634f51e294146106a7578063521eb273146106e45780635304a20b1461070f5780635b4524411461073a5780635ea1d6f814610777576105ce565b8063145bc5b1146105d357806324600fc314610610578063362e496b146106275780633e25e8371461063e578063438c3bcd14610655576105ce565b366105ce57600960009054906101000a900460ff161561018e576040517f08c379a0000000000000000000000000000000000000000000000000000000008152600401610185906120d1565b60405180910390fd5b6001600960006101000a81548160ff0219169083151502179055506000600160009054906101000a900473ffffffffffffffffffffffffffffffffffffffff1673ffffffffffffffffffffffffffffffffffffffff166370a08231306040518263ffffffff1660e01b81526004016102069190612132565b602060405180830381865afa158015610223573d6000803e3d6000fd5b505050506040513d601f19601f820116820180604052508101906102479190612188565b90506000811161028c576040517f08c379a000000000000000000000000000000000000000000000000000000000815260040161028390612227565b60405180910390fd5b6000349050600081116102d4576040517f08c379a00000000000000000000000000000000000000000000000000000000081526004016102cb90612293565b60405180910390fd5b6000600960019054906101000a900473ffffffffffffffffffffffffffffffffffffffff1673ffffffffffffffffffffffffffffffffffffffff1663feaf968c6040518163ffffffff1660e01b815260040160a060405180830381865afa158015610343573d6000803e3d6000fd5b505050506040513d601f19601f82011682018060405250810190610367919061232b565b5050509150506000600960019054906101000a900473ffffffffffffffffffffffffffffffffffffffff1673ffffffffffffffffffffffffffffffffffffffff1663313ce5676040518163ffffffff1660e01b8152600401602060405180830381865afa1580156103dc573d6000803e3d6000fd5b505050506040513d601f19601f8201168201806040525081019061040091906123df565b60ff169050600061042e82600a610417919061256e565b6104208561095d565b6109ac90919063ffffffff16565b9050610458606461044a600854876109c290919063ffffffff16565b6109ac90919063ffffffff16565b9350600160009054906101000a900473ffffffffffffffffffffffffffffffffffffffff1673ffffffffffffffffffffffffffffffffffffffff1663a9059cbb336104ac84886109c290919063ffffffff16565b6040518363ffffffff1660e01b81526004016104c99291906125c8565b6020604051808303816000875af11580156104e8573d6000803e3d6000fd5b505050506040513d601f19601f8201168201806040525081019061050c9190612629565b61054b576040517f08c379a0000000000000000000000000000000000000000000000000000000008152600401610542906126a2565b60405180910390fd5b3373ffffffffffffffffffffffffffffffffffffffff167f8fafebcaf9d154343dad25669bfa277f4fbacd7ac6b0c4fed522580e040a0f338561059784886109c290919063ffffffff16565b6040516105a59291906126c2565b60405180910390a250505050506000600960006101000a81548160ff0219169083151502179055005b600080fd5b3480156105df57600080fd5b506105fa60048036038101906105f59190612717565b610a04565b6040516106079190612132565b60405180910390f35b34801561061c57600080fd5b50610625610a37565b005b34801561063357600080fd5b5061063c610aaa565b005b34801561064a57600080fd5b50610653610d34565b005b34801561066157600080fd5b5061067c60048036038101906106779190612717565b610fcf565b005b34801561068a57600080fd5b506106a560048036038101906106a09190612717565b61107c565b005b3480156106b357600080fd5b506106ce60048036038101906106c99190612717565b611137565b6040516106db9190612753565b60405180910390f35b3480156106f057600080fd5b506106f9611157565b6040516107069190612132565b60405180910390f35b34801561071b57600080fd5b5061072461117d565b604051610731919061276e565b60405180910390f35b34801561074657600080fd5b50610761600480360381019061075c9190612717565b611183565b60405161076e9190612132565b60405180910390f35b34801561078357600080fd5b5061078c6111ec565b6040516107999190612753565b60405180910390f35b3480156107ae57600080fd5b506107b76111ff565b005b3480156107c557600080fd5b506107e060048036038101906107db919061279e565b611213565b005b3480156107ee57600080fd5b5061080960048036038101906108049190612717565b61127f565b604051610816919061276e565b60405180910390f35b34801561082b57600080fd5b50610834611297565b005b34801561084257600080fd5b5061084b611521565b6040516108589190612132565b60405180910390f35b34801561086d57600080fd5b5061087661154a565b604051610883919061282a565b60405180910390f35b34801561089857600080fd5b506108b360048036038101906108ae919061285a565b611570565b005b3480156108c157600080fd5b506108dc60048036038101906108d7919061289a565b6119c5565b005b3480156108ea57600080fd5b506108f3611a1a565b604051610900919061276e565b60405180910390f35b34801561091557600080fd5b50610930600480360381019061092b9190612717565b611a20565b005b34801561093e57600080fd5b50610947611aa6565b60405161095491906128e8565b60405180910390f35b6000808212156109a457816040517fa8ce443200000000000000000000000000000000000000000000000000000000815260040161099b9190612912565b60405180910390fd5b819050919050565b600081836109ba919061295c565b905092915050565b60008083036109d457600090506109fe565b81836109e0919061298d565b90508183826109ef919061295c565b146109fd576109fc6129cf565b5b5b92915050565b60036020528060005260406000206000915054906101000a900473ffffffffffffffffffffffffffffffffffffffff1681565b610a3f611acc565b600660009054906101000a900473ffffffffffffffffffffffffffffffffffffffff1673ffffffffffffffffffffffffffffffffffffffff166108fc479081150290604051600060405180830381858888f19350505050158015610aa7573d6000803e3d6000fd5b50565b610ab2611acc565b6000600560009054906101000a900473ffffffffffffffffffffffffffffffffffffffff1673ffffffffffffffffffffffffffffffffffffffff166370a08231306040518263ffffffff1660e01b8152600401610b0f9190612132565b602060405180830381865afa158015610b2c573d6000803e3d6000fd5b505050506040513d601f19601f82011682018060405250810190610b509190612188565b905060008111610b95576040517f08c379a0000000000000000000000000000000000000000000000000000000008152600401610b8c90612a70565b60405180910390fd5b600560009054906101000a900473ffffffffffffffffffffffffffffffffffffffff1673ffffffffffffffffffffffffffffffffffffffff1663a9059cbb600660009054906101000a900473ffffffffffffffffffffffffffffffffffffffff16600560009054906101000a900473ffffffffffffffffffffffffffffffffffffffff1673ffffffffffffffffffffffffffffffffffffffff166370a08231306040518263ffffffff1660e01b8152600401610c519190612132565b602060405180830381865afa158015610c6e573d6000803e3d6000fd5b505050506040513d601f19601f82011682018060405250810190610c929190612188565b6040518363ffffffff1660e01b8152600401610caf9291906125c8565b6020604051808303816000875af1158015610cce573d6000803e3d6000fd5b505050506040513d601f19601f82011682018060405250810190610cf29190612629565b610d31576040517f08c379a0000000000000000000000000000000000000000000000000000000008152600401610d2890612adc565b60405180910390fd5b50565b6000600460003373ffffffffffffffffffffffffffffffffffffffff1673ffffffffffffffffffffffffffffffffffffffff16815260200190815260200160002054905060008111610dbb576040517f08c379a0000000000000000000000000000000000000000000000000000000008152600401610db290612b48565b60405180910390fd5b80600160009054906101000a900473ffffffffffffffffffffffffffffffffffffffff1673ffffffffffffffffffffffffffffffffffffffff166370a08231306040518263ffffffff1660e01b8152600401610e179190612132565b602060405180830381865afa158015610e34573d6000803e3d6000fd5b505050506040513d601f19601f82011682018060405250810190610e589190612188565b11610e98576040517f08c379a0000000000000000000000000000000000000000000000000000000008152600401610e8f90612bb4565b60405180910390fd5b6000600460003373ffffffffffffffffffffffffffffffffffffffff1673ffffffffffffffffffffffffffffffffffffffff16815260200190815260200160002081905550600160009054906101000a900473ffffffffffffffffffffffffffffffffffffffff1673ffffffffffffffffffffffffffffffffffffffff1663a9059cbb33836040518363ffffffff1660e01b8152600401610f3a9291906125c8565b6020604051808303816000875af1158015610f59573d6000803e3d6000fd5b505050506040513d601f19601f82011682018060405250810190610f7d9190612629565b503373ffffffffffffffffffffffffffffffffffffffff167f2a016beab1c9536945a8f4c51b734f24f9d1458b765600efdabb6a3c52251e7582604051610fc4919061276e565b60405180910390a250565b600060149054906101000a900460ff16600260008373ffffffffffffffffffffffffffffffffffffffff1673ffffffffffffffffffffffffffffffffffffffff16815260200190815260200160002060006101000a81548160ff021916908360ff1602179055508073ffffffffffffffffffffffffffffffffffffffff167f53286125aa034acaf4eb8a0931fe01b25caceba942ab407c6ce09e1b0dfab58c60405160405180910390a250565b611084611acc565b600073ffffffffffffffffffffffffffffffffffffffff168173ffffffffffffffffffffffffffffffffffffffff16036110f3576040517f08c379a00000000000000000000000000000000000000000000000000000000081526004016110ea90612c46565b60405180910390fd5b80600960016101000a81548173ffffffffffffffffffffffffffffffffffffffff021916908373ffffffffffffffffffffffffffffffffffffffff16021790555050565b60026020528060005260406000206000915054906101000a900460ff1681565b600660009054906101000a900473ffffffffffffffffffffffffffffffffffffffff1681565b60075481565b6000600360008373ffffffffffffffffffffffffffffffffffffffff1673ffffffffffffffffffffffffffffffffffffffff16815260200190815260200160002060009054906101000a900473ffffffffffffffffffffffffffffffffffffffff169050919050565b600060149054906101000a900460ff1681565b611207611acc565b6112116000611b53565b565b61121b611acc565b80600060146101000a81548160ff021916908360ff1602179055507f33bedb18f5997e509fda05045e1279f45fd9c53ef8cb47f4b170f74cc63bccac600060149054906101000a900460ff166040516112749190612753565b60405180910390a150565b60046020528060005260406000206000915090505481565b61129f611acc565b6000600160009054906101000a900473ffffffffffffffffffffffffffffffffffffffff1673ffffffffffffffffffffffffffffffffffffffff166370a08231306040518263ffffffff1660e01b81526004016112fc9190612132565b602060405180830381865afa158015611319573d6000803e3d6000fd5b505050506040513d601f19601f8201168201806040525081019061133d9190612188565b905060008111611382576040517f08c379a000000000000000000000000000000000000000000000000000000000815260040161137990612227565b60405180910390fd5b600160009054906101000a900473ffffffffffffffffffffffffffffffffffffffff1673ffffffffffffffffffffffffffffffffffffffff1663a9059cbb600660009054906101000a900473ffffffffffffffffffffffffffffffffffffffff16600160009054906101000a900473ffffffffffffffffffffffffffffffffffffffff1673ffffffffffffffffffffffffffffffffffffffff166370a08231306040518263ffffffff1660e01b815260040161143e9190612132565b602060405180830381865afa15801561145b573d6000803e3d6000fd5b505050506040513d601f19601f8201168201806040525081019061147f9190612188565b6040518363ffffffff1660e01b815260040161149c9291906125c8565b6020604051808303816000875af11580156114bb573d6000803e3d6000fd5b505050506040513d601f19601f820116820180604052508101906114df9190612629565b61151e576040517f08c379a000000000000000000000000000000000000000000000000000000000815260040161151590612cb2565b60405180910390fd5b50565b60008060009054906101000a900473ffffffffffffffffffffffffffffffffffffffff16905090565b600560009054906101000a900473ffffffffffffffffffffffffffffffffffffffff1681565b600082116115b3576040517f08c379a00000000000000000000000000000000000000000000000000000000081526004016115aa90612d1e565b60405180910390fd5b81600560009054906101000a900473ffffffffffffffffffffffffffffffffffffffff1673ffffffffffffffffffffffffffffffffffffffff166370a08231336040518263ffffffff1660e01b815260040161160f9190612132565b602060405180830381865afa15801561162c573d6000803e3d6000fd5b505050506040513d601f19601f820116820180604052508101906116509190612188565b1015611691576040517f08c379a000000000000000000000000000000000000000000000000000000000815260040161168890612d8a565b60405180910390fd5b81600560009054906101000a900473ffffffffffffffffffffffffffffffffffffffff1673ffffffffffffffffffffffffffffffffffffffff1663dd62ed3e33306040518363ffffffff1660e01b81526004016116ef929190612daa565b602060405180830381865afa15801561170c573d6000803e3d6000fd5b505050506040513d601f19601f820116820180604052508101906117309190612188565b1015611771576040517f08c379a000000000000000000000000000000000000000000000000000000000815260040161176890612e1f565b60405180910390fd5b600560009054906101000a900473ffffffffffffffffffffffffffffffffffffffff1673ffffffffffffffffffffffffffffffffffffffff166323b872dd3330856040518463ffffffff1660e01b81526004016117d093929190612e3f565b6020604051808303816000875af11580156117ef573d6000803e3d6000fd5b505050506040513d601f19601f820116820180604052508101906118139190612629565b611852576040517f08c379a000000000000000000000000000000000000000000000000000000000815260040161184990612ec2565b60405180910390fd5b600160009054906101000a900473ffffffffffffffffffffffffffffffffffffffff1673ffffffffffffffffffffffffffffffffffffffff1663a9059cbb33846040518363ffffffff1660e01b81526004016118af9291906125c8565b6020604051808303816000875af11580156118ce573d6000803e3d6000fd5b505050506040513d601f19601f820116820180604052508101906118f29190612629565b611931576040517f08c379a0000000000000000000000000000000000000000000000000000000008152600401611928906126a2565b60405180910390fd5b600073ffffffffffffffffffffffffffffffffffffffff168173ffffffffffffffffffffffffffffffffffffffff161461197157611970818333611c17565b5b3373ffffffffffffffffffffffffffffffffffffffff167f8fafebcaf9d154343dad25669bfa277f4fbacd7ac6b0c4fed522580e040a0f3383846040516119b99291906126c2565b60405180910390a25050565b6119cd611acc565b60008111611a10576040517f08c379a0000000000000000000000000000000000000000000000000000000008152600401611a0790612f54565b60405180910390fd5b8060088190555050565b60085481565b611a28611acc565b600073ffffffffffffffffffffffffffffffffffffffff168173ffffffffffffffffffffffffffffffffffffffff1603611a9a5760006040517f1e4fbdf7000000000000000000000000000000000000000000000000000000008152600401611a919190612132565b60405180910390fd5b611aa381611b53565b50565b600160009054906101000a900473ffffffffffffffffffffffffffffffffffffffff1681565b611ad461206c565b73ffffffffffffffffffffffffffffffffffffffff16611af2611521565b73ffffffffffffffffffffffffffffffffffffffff1614611b5157611b1561206c565b6040517f118cdaa7000000000000000000000000000000000000000000000000000000008152600401611b489190612132565b60405180910390fd5b565b60008060009054906101000a900473ffffffffffffffffffffffffffffffffffffffff169050816000806101000a81548173ffffffffffffffffffffffffffffffffffffffff021916908373ffffffffffffffffffffffffffffffffffffffff1602179055508173ffffffffffffffffffffffffffffffffffffffff168173ffffffffffffffffffffffffffffffffffffffff167f8be0079c531659141344cd1fd0a4f28419497f9722a3daafe3b4186f6b6457e060405160405180910390a35050565b60008211611c5a576040517f08c379a0000000000000000000000000000000000000000000000000000000008152600401611c5190612fe6565b60405180910390fd5b6000600260008573ffffffffffffffffffffffffffffffffffffffff1673ffffffffffffffffffffffffffffffffffffffff16815260200190815260200160002060009054906101000a900460ff1660ff1611611cec576040517f08c379a0000000000000000000000000000000000000000000000000000000008152600401611ce390613052565b60405180910390fd5b8073ffffffffffffffffffffffffffffffffffffffff168373ffffffffffffffffffffffffffffffffffffffff1603611d5a576040517f08c379a0000000000000000000000000000000000000000000000000000000008152600401611d51906130e4565b60405180910390fd5b600073ffffffffffffffffffffffffffffffffffffffff16600360008373ffffffffffffffffffffffffffffffffffffffff1673ffffffffffffffffffffffffffffffffffffffff16815260200190815260200160002060009054906101000a900473ffffffffffffffffffffffffffffffffffffffff1673ffffffffffffffffffffffffffffffffffffffff1614611ebf578273ffffffffffffffffffffffffffffffffffffffff16600360008373ffffffffffffffffffffffffffffffffffffffff1673ffffffffffffffffffffffffffffffffffffffff16815260200190815260200160002060009054906101000a900473ffffffffffffffffffffffffffffffffffffffff1673ffffffffffffffffffffffffffffffffffffffff1614611eba576040517f08c379a0000000000000000000000000000000000000000000000000000000008152600401611eb190613150565b60405180910390fd5b611f3e565b82600360008373ffffffffffffffffffffffffffffffffffffffff1673ffffffffffffffffffffffffffffffffffffffff16815260200190815260200160002060006101000a81548173ffffffffffffffffffffffffffffffffffffffff021916908373ffffffffffffffffffffffffffffffffffffffff1602179055505b60006064600260008673ffffffffffffffffffffffffffffffffffffffff1673ffffffffffffffffffffffffffffffffffffffff16815260200190815260200160002060009054906101000a900460ff1660ff1684611f9d919061298d565b611fa7919061295c565b905080600460008673ffffffffffffffffffffffffffffffffffffffff1673ffffffffffffffffffffffffffffffffffffffff1681526020019081526020016000206000828254611ff89190613170565b925050819055508373ffffffffffffffffffffffffffffffffffffffff168273ffffffffffffffffffffffffffffffffffffffff167f5a1838523901c986595a2cf4484933f2c42d64a7bfc9b6d0c40cacb22379fa82858460405161205e9291906126c2565b60405180910390a350505050565b600033905090565b600082825260208201905092915050565b7f5265656e7472616e637947756172643a207265656e7472616e742063616c6c00600082015250565b60006120bb601f83612074565b91506120c682612085565b602082019050919050565b600060208201905081810360008301526120ea816120ae565b9050919050565b600073ffffffffffffffffffffffffffffffffffffffff82169050919050565b600061211c826120f1565b9050919050565b61212c81612111565b82525050565b60006020820190506121476000830184612123565b92915050565b600080fd5b6000819050919050565b61216581612152565b811461217057600080fd5b50565b6000815190506121828161215c565b92915050565b60006020828403121561219e5761219d61214d565b5b60006121ac84828501612173565b91505092915050565b7f43726f77646553616c653a20496e73756666696369656e7420746f6b656e206160008201527f6d6f756e74000000000000000000000000000000000000000000000000000000602082015250565b6000612211602583612074565b915061221c826121b5565b604082019050919050565b6000602082019050818103600083015261224081612204565b9050919050565b7f43726f77646553616c653a204554482076616c75652063616e27742062652030600082015250565b600061227d602083612074565b915061228882612247565b602082019050919050565b600060208201905081810360008301526122ac81612270565b9050919050565b600069ffffffffffffffffffff82169050919050565b6122d2816122b3565b81146122dd57600080fd5b50565b6000815190506122ef816122c9565b92915050565b6000819050919050565b612308816122f5565b811461231357600080fd5b50565b600081519050612325816122ff565b92915050565b600080600080600060a086880312156123475761234661214d565b5b6000612355888289016122e0565b955050602061236688828901612316565b945050604061237788828901612173565b935050606061238888828901612173565b9250506080612399888289016122e0565b9150509295509295909350565b600060ff82169050919050565b6123bc816123a6565b81146123c757600080fd5b50565b6000815190506123d9816123b3565b92915050565b6000602082840312156123f5576123f461214d565b5b6000612403848285016123ca565b91505092915050565b7f4e487b7100000000000000000000000000000000000000000000000000000000600052601160045260246000fd5b60008160011c9050919050565b6000808291508390505b60018511156124925780860481111561246e5761246d61240c565b5b600185161561247d5780820291505b808102905061248b8561243b565b9450612452565b94509492505050565b6000826124ab5760019050612567565b816124b95760009050612567565b81600181146124cf57600281146124d957612508565b6001915050612567565b60ff8411156124eb576124ea61240c565b5b8360020a9150848211156125025761250161240c565b5b50612567565b5060208310610133831016604e8410600b841016171561253d5782820a9050838111156125385761253761240c565b5b612567565b61254a8484846001612448565b925090508184048111156125615761256061240c565b5b81810290505b9392505050565b600061257982612152565b915061258483612152565b92506125b17fffffffffffffffffffffffffffffffffffffffffffffffffffffffffffffffff848461249b565b905092915050565b6125c281612152565b82525050565b60006040820190506125dd6000830185612123565b6125ea60208301846125b9565b9392505050565b60008115159050919050565b612606816125f1565b811461261157600080fd5b50565b600081519050612623816125fd565b92915050565b60006020828403121561263f5761263e61214d565b5b600061264d84828501612614565b91505092915050565b7f546f6b656e207472616e73666572206661696c65640000000000000000000000600082015250565b600061268c601583612074565b915061269782612656565b602082019050919050565b600060208201905081810360008301526126bb8161267f565b9050919050565b60006040820190506126d760008301856125b9565b6126e460208301846125b9565b9392505050565b6126f481612111565b81146126ff57600080fd5b50565b600081359050612711816126eb565b92915050565b60006020828403121561272d5761272c61214d565b5b600061273b84828501612702565b91505092915050565b61274d816123a6565b82525050565b60006020820190506127686000830184612744565b92915050565b600060208201905061278360008301846125b9565b92915050565b600081359050612798816123b3565b92915050565b6000602082840312156127b4576127b361214d565b5b60006127c284828501612789565b91505092915050565b6000819050919050565b60006127f06127eb6127e6846120f1565b6127cb565b6120f1565b9050919050565b6000612802826127d5565b9050919050565b6000612814826127f7565b9050919050565b61282481612809565b82525050565b600060208201905061283f600083018461281b565b92915050565b6000813590506128548161215c565b92915050565b600080604083850312156128715761287061214d565b5b600061287f85828601612845565b925050602061289085828601612702565b9150509250929050565b6000602082840312156128b0576128af61214d565b5b60006128be84828501612845565b91505092915050565b60006128d2826127f7565b9050919050565b6128e2816128c7565b82525050565b60006020820190506128fd60008301846128d9565b92915050565b61290c816122f5565b82525050565b60006020820190506129276000830184612903565b92915050565b7f4e487b7100000000000000000000000000000000000000000000000000000000600052601260045260246000fd5b600061296782612152565b915061297283612152565b9250826129825761298161292d565b5b828204905092915050565b600061299882612152565b91506129a383612152565b92508282026129b181612152565b915082820484148315176129c8576129c761240c565b5b5092915050565b7f4e487b7100000000000000000000000000000000000000000000000000000000600052600160045260246000fd5b7f43726f77646553616c653a20496e73756666696369656e7420746f6b656e555360008201527f445420616d6f756e740000000000000000000000000000000000000000000000602082015250565b6000612a5a602983612074565b9150612a65826129fe565b604082019050919050565b60006020820190508181036000830152612a8981612a4d565b9050919050565b7f55534454207769746864726177206661696c6564000000000000000000000000600082015250565b6000612ac6601483612074565b9150612ad182612a90565b602082019050919050565b60006020820190508181036000830152612af581612ab9565b9050919050565b7f4e6f20636f6d6d697373696f6e20746f20776974686472617700000000000000600082015250565b6000612b32601983612074565b9150612b3d82612afc565b602082019050919050565b60006020820190508181036000830152612b6181612b25565b9050919050565b7f496e7375666669636e657420636f6e74726163742062616c616e636500000000600082015250565b6000612b9e601c83612074565b9150612ba982612b68565b602082019050919050565b60006020820190508181036000830152612bcd81612b91565b9050919050565b7f41676772656761746f722061646472657373206d757374206265206e6f74207a60008201527f65726f2061646472657373000000000000000000000000000000000000000000602082015250565b6000612c30602b83612074565b9150612c3b82612bd4565b604082019050919050565b60006020820190508181036000830152612c5f81612c23565b9050919050565b7f546f6b656e207769746864726177206661696c65640000000000000000000000600082015250565b6000612c9c601583612074565b9150612ca782612c66565b602082019050919050565b60006020820190508181036000830152612ccb81612c8f565b9050919050565b7f416d6f756e74206d7573742062652067726561746572207468616e207a65726f600082015250565b6000612d08602083612074565b9150612d1382612cd2565b602082019050919050565b60006020820190508181036000830152612d3781612cfb565b9050919050565b7f496e73756666696369656e742062616c616e6365000000000000000000000000600082015250565b6000612d74601483612074565b9150612d7f82612d3e565b602082019050919050565b60006020820190508181036000830152612da381612d67565b9050919050565b6000604082019050612dbf6000830185612123565b612dcc6020830184612123565b9392505050565b7f696e73756666696369656e7420416c6c6f77616e636500000000000000000000600082015250565b6000612e09601683612074565b9150612e1482612dd3565b602082019050919050565b60006020820190508181036000830152612e3881612dfc565b9050919050565b6000606082019050612e546000830186612123565b612e616020830185612123565b612e6e60408301846125b9565b949350505050565b7f55534454207472616e73666572206661696c6564000000000000000000000000600082015250565b6000612eac601483612074565b9150612eb782612e76565b602082019050919050565b60006020820190508181036000830152612edb81612e9f565b9050919050565b7f526566657272616c2072617465206d757374206265206772656174657220746860008201527f616e207a65726f00000000000000000000000000000000000000000000000000602082015250565b6000612f3e602783612074565b9150612f4982612ee2565b604082019050919050565b60006020820190508181036000830152612f6d81612f31565b9050919050565b7f50757263686173652076616c7565206d7573742062652067726561746572207460008201527f68616e2030000000000000000000000000000000000000000000000000000000602082015250565b6000612fd0602583612074565b9150612fdb82612f74565b604082019050919050565b60006020820190508181036000830152612fff81612fc3565b9050919050565b7f496e76616c696420616666696c69617465000000000000000000000000000000600082015250565b600061303c601183612074565b915061304782613006565b602082019050919050565b6000602082019050818103600083015261306b8161302f565b9050919050565b7f416666696c696174652063616e6e6f74206265207468652073616d652061732060008201527f637573746f6d6572000000000000000000000000000000000000000000000000602082015250565b60006130ce602883612074565b91506130d982613072565b604082019050919050565b600060208201905081810360008301526130fd816130c1565b9050919050565b7f437573746f6d657220616c72656164792068617320616666696c696174650000600082015250565b600061313a601e83612074565b915061314582613104565b602082019050919050565b600060208201905081810360008301526131698161312d565b9050919050565b600061317b82612152565b915061318683612152565b925082820190508082111561319e5761319d61240c565b5b9291505056fea2646970667358221220b6bc2b95874fff01f04d0896db7d1e04efb04abc348a42a045c04e1b81042bbd64736f6c63430008180033",
  "linkReferences": {},
  "deployedLinkReferences": {}
}