{
  "_format": "hh-sol-artifact-1",
  "contractName": "Crowdesale",
  "sourceName": "contracts/Crowdsale.sol",
  "abi": [
    {
      "inputs": [
        {
          "internalType": "address",
          "name": "_walletAddress",
          "type": "address"
        },
        {
          "internalType": "contract ERC20",
          "name": "_token",
          "type": "address"
        },
        {
          "internalType": "contract ERC20",
          "name": "_tokenUSDT",
          "type": "address"
        },
        {
          "internalType": "uint256",
          "name": "_amount",
          "type": "uint256"
        },
        {
          "internalType": "address",
          "name": "_aggregatorAddress",
          "type": "address"
        },
        {
          "internalType": "uint256",
          "name": "_referralRate",
          "type": "uint256"
        },
        {
          "internalType": "uint8",
          "name": "_affiliateRate",
          "type": "uint8"
        }
      ],
      "stateMutability": "nonpayable",
      "type": "constructor"
    },
    {
      "inputs": [
        {
          "internalType": "address",
          "name": "owner",
          "type": "address"
        }
      ],
      "name": "OwnableInvalidOwner",
      "type": "error"
    },
    {
      "inputs": [
        {
          "internalType": "address",
          "name": "account",
          "type": "address"
        }
      ],
      "name": "OwnableUnauthorizedAccount",
      "type": "error"
    },
    {
      "inputs": [
        {
          "internalType": "int256",
          "name": "value",
          "type": "int256"
        }
      ],
      "name": "SafeCastOverflowedIntToUint",
      "type": "error"
    },
    {
      "anonymous": false,
      "inputs": [
        {
          "indexed": true,
          "internalType": "address",
          "name": "customer",
          "type": "address"
        },
        {
          "indexed": false,
          "internalType": "uint256",
          "name": "value",
          "type": "uint256"
        },
        {
          "indexed": true,
          "internalType": "address",
          "name": "affiliate",
          "type": "address"
        },
        {
          "indexed": false,
          "internalType": "uint256",
          "name": "commission",
          "type": "uint256"
        }
      ],
      "name": "AccumulatedCommission",
      "type": "event"
    },
    {
      "anonymous": false,
      "inputs": [
        {
          "indexed": true,
          "internalType": "address",
          "name": "affiliateWallet",
          "type": "address"
        }
      ],
      "name": "AffiliateRegistered",
      "type": "event"
    },
    {
      "anonymous": false,
      "inputs": [
        {
          "indexed": false,
          "internalType": "uint8",
          "name": "newRate",
          "type": "uint8"
        }
      ],
      "name": "ChangeCommisionRate",
      "type": "event"
    },
    {
      "anonymous": false,
      "inputs": [
        {
          "indexed": true,
          "internalType": "address",
          "name": "previousOwner",
          "type": "address"
        },
        {
          "indexed": true,
          "internalType": "address",
          "name": "newOwner",
          "type": "address"
        }
      ],
      "name": "OwnershipTransferred",
      "type": "event"
    },
    {
      "anonymous": false,
      "inputs": [
        {
          "indexed": true,
          "internalType": "address",
          "name": "purchaser",
          "type": "address"
        },
        {
          "indexed": false,
          "internalType": "uint256",
          "name": "value",
          "type": "uint256"
        },
        {
          "indexed": false,
          "internalType": "uint256",
          "name": "amount",
          "type": "uint256"
        }
      ],
      "name": "TokensPurchased",
      "type": "event"
    },
    {
      "anonymous": false,
      "inputs": [
        {
          "indexed": true,
          "internalType": "address",
          "name": "customer",
          "type": "address"
        },
        {
          "indexed": false,
          "internalType": "uint256",
          "name": "value",
          "type": "uint256"
        }
      ],
      "name": "WithdrawCommission",
      "type": "event"
    },
    {
      "inputs": [],
      "name": "REFERRAL_RATE",
      "outputs": [
        {
          "internalType": "uint256",
          "name": "",
          "type": "uint256"
        }
      ],
      "stateMutability": "view",
      "type": "function"
    },
    {
      "inputs": [
        {
          "internalType": "address",
          "name": "",
          "type": "address"
        }
      ],
      "name": "accumulatedCommission",
      "outputs": [
        {
          "internalType": "uint256",
          "name": "",
          "type": "uint256"
        }
      ],
      "stateMutability": "view",
      "type": "function"
    },
    {
      "inputs": [
        {
          "internalType": "address",
          "name": "",
          "type": "address"
        }
      ],
      "name": "affiliates",
      "outputs": [
        {
          "internalType": "uint8",
          "name": "",
          "type": "uint8"
        }
      ],
      "stateMutability": "view",
      "type": "function"
    },
    {
      "inputs": [
        {
          "internalType": "uint256",
          "name": "_usdtAmount",
          "type": "uint256"
        },
        {
          "internalType": "address",
          "name": "_affiliateAddress",
          "type": "address"
        }
      ],
      "name": "buyTokens",
      "outputs": [],
      "stateMutability": "nonpayable",
      "type": "function"
    },
    {
      "inputs": [
        {
          "internalType": "uint8",
          "name": "_newRate",
          "type": "uint8"
        }
      ],
      "name": "changeCommissionRate",
      "outputs": [],
      "stateMutability": "nonpayable",
      "type": "function"
    },
    {
      "inputs": [],
      "name": "commissionRate",
      "outputs": [
        {
          "internalType": "uint8",
          "name": "",
          "type": "uint8"
        }
      ],
      "stateMutability": "view",
      "type": "function"
    },
    {
      "inputs": [
        {
          "internalType": "address",
          "name": "",
          "type": "address"
        }
      ],
      "name": "customerToAffiliate",
      "outputs": [
        {
          "internalType": "address",
          "name": "",
          "type": "address"
        }
      ],
      "stateMutability": "view",
      "type": "function"
    },
    {
      "inputs": [],
      "name": "disperseAmount",
      "outputs": [
        {
          "internalType": "uint256",
          "name": "",
          "type": "uint256"
        }
      ],
      "stateMutability": "view",
      "type": "function"
    },
    {
      "inputs": [
        {
          "internalType": "address",
          "name": "_customer",
          "type": "address"
        }
      ],
      "name": "getCustomerAffiliate",
      "outputs": [
        {
          "internalType": "address",
          "name": "",
          "type": "address"
        }
      ],
      "stateMutability": "view",
      "type": "function"
    },
    {
      "inputs": [],
      "name": "owner",
      "outputs": [
        {
          "internalType": "address",
          "name": "",
          "type": "address"
        }
      ],
      "stateMutability": "view",
      "type": "function"
    },
    {
      "inputs": [
        {
          "internalType": "address",
          "name": "_affiliateAddress",
          "type": "address"
        }
      ],
      "name": "registerAsAffiliate",
      "outputs": [],
      "stateMutability": "nonpayable",
      "type": "function"
    },
    {
      "inputs": [],
      "name": "renounceOwnership",
      "outputs": [],
      "stateMutability": "nonpayable",
      "type": "function"
    },
    {
      "inputs": [
        {
          "internalType": "address",
          "name": "_newAggregatorAddress",
          "type": "address"
        }
      ],
      "name": "setAggregatorAddress",
      "outputs": [],
      "stateMutability": "nonpayable",
      "type": "function"
    },
    {
      "inputs": [
        {
          "internalType": "uint256",
          "name": "_newRate",
          "type": "uint256"
        }
      ],
      "name": "setReferralRate",
      "outputs": [],
      "stateMutability": "nonpayable",
      "type": "function"
    },
    {
      "inputs": [],
      "name": "token",
      "outputs": [
        {
          "internalType": "contract IERC20",
          "name": "",
          "type": "address"
        }
      ],
      "stateMutability": "view",
      "type": "function"
    },
    {
      "inputs": [],
      "name": "tokenUSDT",
      "outputs": [
        {
          "internalType": "contract ERC20",
          "name": "",
          "type": "address"
        }
      ],
      "stateMutability": "view",
      "type": "function"
    },
    {
      "inputs": [
        {
          "internalType": "address",
          "name": "newOwner",
          "type": "address"
        }
      ],
      "name": "transferOwnership",
      "outputs": [],
      "stateMutability": "nonpayable",
      "type": "function"
    },
    {
      "inputs": [],
      "name": "wallet",
      "outputs": [
        {
          "internalType": "address",
          "name": "",
          "type": "address"
        }
      ],
      "stateMutability": "view",
      "type": "function"
    },
    {
      "inputs": [],
      "name": "withdrawCommission",
      "outputs": [],
      "stateMutability": "nonpayable",
      "type": "function"
    },
    {
      "inputs": [],
      "name": "withdrawFunds",
      "outputs": [],
      "stateMutability": "nonpayable",
      "type": "function"
    },
    {
      "inputs": [],
      "name": "withdrawTokens",
      "outputs": [],
      "stateMutability": "nonpayable",
      "type": "function"
    },
    {
      "inputs": [],
      "name": "withdrawUSDT",
      "outputs": [],
      "stateMutability": "nonpayable",
      "type": "function"
    },
    {
      "stateMutability": "payable",
      "type": "receive"
    }
  ],
  "bytecode": "0x6080604052620f4240600a55670de0b6b3a7640000600b553480156200002457600080fd5b5060405162003c2738038062003c2783398181016040528101906200004a9190620005d9565b808633600073ffffffffffffffffffffffffffffffffffffffff168173ffffffffffffffffffffffffffffffffffffffff1603620000c25760006040517f1e4fbdf7000000000000000000000000000000000000000000000000000000008152600401620000b991906200069d565b60405180910390fd5b620000d381620003ed60201b60201c565b5081600060146101000a81548160ff021916908360ff16021790555080600160006101000a81548173ffffffffffffffffffffffffffffffffffffffff021916908373ffffffffffffffffffffffffffffffffffffffff1602179055505050600073ffffffffffffffffffffffffffffffffffffffff168773ffffffffffffffffffffffffffffffffffffffff1603620001a4576040517f08c379a00000000000000000000000000000000000000000000000000000000081526004016200019b9062000741565b60405180910390fd5b600073ffffffffffffffffffffffffffffffffffffffff168673ffffffffffffffffffffffffffffffffffffffff160362000216576040517f08c379a00000000000000000000000000000000000000000000000000000000081526004016200020d90620007d9565b60405180910390fd5b600073ffffffffffffffffffffffffffffffffffffffff168573ffffffffffffffffffffffffffffffffffffffff160362000288576040517f08c379a00000000000000000000000000000000000000000000000000000000081526004016200027f9062000871565b60405180910390fd5b60008411620002ce576040517f08c379a0000000000000000000000000000000000000000000000000000000008152600401620002c59062000909565b60405180910390fd5b86600660006101000a81548173ffffffffffffffffffffffffffffffffffffffff021916908373ffffffffffffffffffffffffffffffffffffffff1602179055508360078190555085600160006101000a81548173ffffffffffffffffffffffffffffffffffffffff021916908373ffffffffffffffffffffffffffffffffffffffff16021790555084600560006101000a81548173ffffffffffffffffffffffffffffffffffffffff021916908373ffffffffffffffffffffffffffffffffffffffff1602179055508160088190555082600c60006101000a81548173ffffffffffffffffffffffffffffffffffffffff021916908373ffffffffffffffffffffffffffffffffffffffff160217905550505050505050506200092b565b60008060009054906101000a900473ffffffffffffffffffffffffffffffffffffffff169050816000806101000a81548173ffffffffffffffffffffffffffffffffffffffff021916908373ffffffffffffffffffffffffffffffffffffffff1602179055508173ffffffffffffffffffffffffffffffffffffffff168173ffffffffffffffffffffffffffffffffffffffff167f8be0079c531659141344cd1fd0a4f28419497f9722a3daafe3b4186f6b6457e060405160405180910390a35050565b600080fd5b600073ffffffffffffffffffffffffffffffffffffffff82169050919050565b6000620004e382620004b6565b9050919050565b620004f581620004d6565b81146200050157600080fd5b50565b6000815190506200051581620004ea565b92915050565b60006200052882620004d6565b9050919050565b6200053a816200051b565b81146200054657600080fd5b50565b6000815190506200055a816200052f565b92915050565b6000819050919050565b620005758162000560565b81146200058157600080fd5b50565b60008151905062000595816200056a565b92915050565b600060ff82169050919050565b620005b3816200059b565b8114620005bf57600080fd5b50565b600081519050620005d381620005a8565b92915050565b600080600080600080600060e0888a031215620005fb57620005fa620004b1565b5b60006200060b8a828b0162000504565b97505060206200061e8a828b0162000549565b9650506040620006318a828b0162000549565b9550506060620006448a828b0162000584565b9450506080620006578a828b0162000504565b93505060a06200066a8a828b0162000584565b92505060c06200067d8a828b01620005c2565b91505092959891949750929550565b6200069781620004d6565b82525050565b6000602082019050620006b460008301846200068c565b92915050565b600082825260208201905092915050565b7f43726f77646553616c653a2077616c6c657420616464726573732063616e277460008201527f206265207a65726f000000000000000000000000000000000000000000000000602082015250565b600062000729602883620006ba565b91506200073682620006cb565b604082019050919050565b600060208201905081810360008301526200075c816200071a565b9050919050565b7f43726f77646553616c653a20746f6b656e20616464726573732063616e27742060008201527f6265207a65726f00000000000000000000000000000000000000000000000000602082015250565b6000620007c1602783620006ba565b9150620007ce8262000763565b604082019050919050565b60006020820190508181036000830152620007f481620007b2565b9050919050565b7f43726f77646553616c653a205553445420746f6b656e2061646472657373206360008201527f616e2774206265207a65726f0000000000000000000000000000000000000000602082015250565b600062000859602c83620006ba565b91506200086682620007fb565b604082019050919050565b600060208201905081810360008301526200088c816200084a565b9050919050565b7f43726f77646553616c653a20646973706572736520616d6f756e742063616e2760008201527f74206265207a65726f0000000000000000000000000000000000000000000000602082015250565b6000620008f1602983620006ba565b9150620008fe8262000893565b604082019050919050565b600060208201905081810360008301526200092481620008e2565b9050919050565b6132ec806200093b6000396000f3fe6080604052600436106101395760003560e01c8063715018a6116100ab57806399c5c8aa1161006f57806399c5c8aa14610861578063c625e9b11461088c578063ca4863fd146108b5578063e276db83146108de578063f2fde38b14610909578063fc0c546a14610932576105ce565b8063715018a6146107a257806388576dc9146107b95780638aa58799146107e25780638d8f2adb1461081f5780638da5cb5b14610836576105ce565b806347b32448116100fd57806347b324481461067e5780634f51e294146106a7578063521eb273146106e45780635304a20b1461070f5780635b4524411461073a5780635ea1d6f814610777576105ce565b8063145bc5b1146105d357806324600fc314610610578063362e496b146106275780633e25e8371461063e578063438c3bcd14610655576105ce565b366105ce57600960009054906101000a900460ff161561018e576040517f08c379a0000000000000000000000000000000000000000000000000000000008152600401610185906121e3565b60405180910390fd5b6001600960006101000a81548160ff0219169083151502179055506000600160009054906101000a900473ffffffffffffffffffffffffffffffffffffffff1673ffffffffffffffffffffffffffffffffffffffff166370a08231306040518263ffffffff1660e01b81526004016102069190612244565b602060405180830381865afa158015610223573d6000803e3d6000fd5b505050506040513d601f19601f82011682018060405250810190610247919061229a565b90506000811161028c576040517f08c379a000000000000000000000000000000000000000000000000000000000815260040161028390612339565b60405180910390fd5b6000349050600081116102d4576040517f08c379a00000000000000000000000000000000000000000000000000000000081526004016102cb906123a5565b60405180910390fd5b6000600c60009054906101000a900473ffffffffffffffffffffffffffffffffffffffff1673ffffffffffffffffffffffffffffffffffffffff1663feaf968c6040518163ffffffff1660e01b815260040160a060405180830381865afa158015610343573d6000803e3d6000fd5b505050506040513d601f19601f82011682018060405250810190610367919061243d565b5050509150506000600c60009054906101000a900473ffffffffffffffffffffffffffffffffffffffff1673ffffffffffffffffffffffffffffffffffffffff1663313ce5676040518163ffffffff1660e01b8152600401602060405180830381865afa1580156103dc573d6000803e3d6000fd5b505050506040513d601f19601f8201168201806040525081019061040091906124f1565b60ff169050600061042e82600a6104179190612680565b6104208561095d565b6109ac90919063ffffffff16565b9050610458606461044a600854876109c290919063ffffffff16565b6109ac90919063ffffffff16565b9350600160009054906101000a900473ffffffffffffffffffffffffffffffffffffffff1673ffffffffffffffffffffffffffffffffffffffff1663a9059cbb336104ac84886109c290919063ffffffff16565b6040518363ffffffff1660e01b81526004016104c99291906126da565b6020604051808303816000875af11580156104e8573d6000803e3d6000fd5b505050506040513d601f19601f8201168201806040525081019061050c919061273b565b61054b576040517f08c379a0000000000000000000000000000000000000000000000000000000008152600401610542906127b4565b60405180910390fd5b3373ffffffffffffffffffffffffffffffffffffffff167f8fafebcaf9d154343dad25669bfa277f4fbacd7ac6b0c4fed522580e040a0f338561059784886109c290919063ffffffff16565b6040516105a59291906127d4565b60405180910390a250505050506000600960006101000a81548160ff0219169083151502179055005b600080fd5b3480156105df57600080fd5b506105fa60048036038101906105f59190612829565b610a04565b6040516106079190612244565b60405180910390f35b34801561061c57600080fd5b50610625610a37565b005b34801561063357600080fd5b5061063c610aaa565b005b34801561064a57600080fd5b50610653610d34565b005b34801561066157600080fd5b5061067c60048036038101906106779190612829565b610fcf565b005b34801561068a57600080fd5b506106a560048036038101906106a09190612829565b61107c565b005b3480156106b357600080fd5b506106ce60048036038101906106c99190612829565b611137565b6040516106db9190612865565b60405180910390f35b3480156106f057600080fd5b506106f9611157565b6040516107069190612244565b60405180910390f35b34801561071b57600080fd5b5061072461117d565b6040516107319190612880565b60405180910390f35b34801561074657600080fd5b50610761600480360381019061075c9190612829565b611183565b60405161076e9190612244565b60405180910390f35b34801561078357600080fd5b5061078c6111ec565b6040516107999190612865565b60405180910390f35b3480156107ae57600080fd5b506107b76111ff565b005b3480156107c557600080fd5b506107e060048036038101906107db91906128b0565b611213565b005b3480156107ee57600080fd5b5061080960048036038101906108049190612829565b61127f565b6040516108169190612880565b60405180910390f35b34801561082b57600080fd5b50610834611297565b005b34801561084257600080fd5b5061084b611521565b6040516108589190612244565b60405180910390f35b34801561086d57600080fd5b5061087661154a565b604051610883919061293c565b60405180910390f35b34801561089857600080fd5b506108b360048036038101906108ae919061296c565b611570565b005b3480156108c157600080fd5b506108dc60048036038101906108d791906129ac565b611ad7565b005b3480156108ea57600080fd5b506108f3611b2c565b6040516109009190612880565b60405180910390f35b34801561091557600080fd5b50610930600480360381019061092b9190612829565b611b32565b005b34801561093e57600080fd5b50610947611bb8565b60405161095491906129fa565b60405180910390f35b6000808212156109a457816040517fa8ce443200000000000000000000000000000000000000000000000000000000815260040161099b9190612a24565b60405180910390fd5b819050919050565b600081836109ba9190612a6e565b905092915050565b60008083036109d457600090506109fe565b81836109e09190612a9f565b90508183826109ef9190612a6e565b146109fd576109fc612ae1565b5b5b92915050565b60036020528060005260406000206000915054906101000a900473ffffffffffffffffffffffffffffffffffffffff1681565b610a3f611bde565b600660009054906101000a900473ffffffffffffffffffffffffffffffffffffffff1673ffffffffffffffffffffffffffffffffffffffff166108fc479081150290604051600060405180830381858888f19350505050158015610aa7573d6000803e3d6000fd5b50565b610ab2611bde565b6000600560009054906101000a900473ffffffffffffffffffffffffffffffffffffffff1673ffffffffffffffffffffffffffffffffffffffff166370a08231306040518263ffffffff1660e01b8152600401610b0f9190612244565b602060405180830381865afa158015610b2c573d6000803e3d6000fd5b505050506040513d601f19601f82011682018060405250810190610b50919061229a565b905060008111610b95576040517f08c379a0000000000000000000000000000000000000000000000000000000008152600401610b8c90612b82565b60405180910390fd5b600560009054906101000a900473ffffffffffffffffffffffffffffffffffffffff1673ffffffffffffffffffffffffffffffffffffffff1663a9059cbb600660009054906101000a900473ffffffffffffffffffffffffffffffffffffffff16600560009054906101000a900473ffffffffffffffffffffffffffffffffffffffff1673ffffffffffffffffffffffffffffffffffffffff166370a08231306040518263ffffffff1660e01b8152600401610c519190612244565b602060405180830381865afa158015610c6e573d6000803e3d6000fd5b505050506040513d601f19601f82011682018060405250810190610c92919061229a565b6040518363ffffffff1660e01b8152600401610caf9291906126da565b6020604051808303816000875af1158015610cce573d6000803e3d6000fd5b505050506040513d601f19601f82011682018060405250810190610cf2919061273b565b610d31576040517f08c379a0000000000000000000000000000000000000000000000000000000008152600401610d2890612bee565b60405180910390fd5b50565b6000600460003373ffffffffffffffffffffffffffffffffffffffff1673ffffffffffffffffffffffffffffffffffffffff16815260200190815260200160002054905060008111610dbb576040517f08c379a0000000000000000000000000000000000000000000000000000000008152600401610db290612c5a565b60405180910390fd5b80600160009054906101000a900473ffffffffffffffffffffffffffffffffffffffff1673ffffffffffffffffffffffffffffffffffffffff166370a08231306040518263ffffffff1660e01b8152600401610e179190612244565b602060405180830381865afa158015610e34573d6000803e3d6000fd5b505050506040513d601f19601f82011682018060405250810190610e58919061229a565b11610e98576040517f08c379a0000000000000000000000000000000000000000000000000000000008152600401610e8f90612cc6565b60405180910390fd5b6000600460003373ffffffffffffffffffffffffffffffffffffffff1673ffffffffffffffffffffffffffffffffffffffff16815260200190815260200160002081905550600160009054906101000a900473ffffffffffffffffffffffffffffffffffffffff1673ffffffffffffffffffffffffffffffffffffffff1663a9059cbb33836040518363ffffffff1660e01b8152600401610f3a9291906126da565b6020604051808303816000875af1158015610f59573d6000803e3d6000fd5b505050506040513d601f19601f82011682018060405250810190610f7d919061273b565b503373ffffffffffffffffffffffffffffffffffffffff167f2a016beab1c9536945a8f4c51b734f24f9d1458b765600efdabb6a3c52251e7582604051610fc49190612880565b60405180910390a250565b600060149054906101000a900460ff16600260008373ffffffffffffffffffffffffffffffffffffffff1673ffffffffffffffffffffffffffffffffffffffff16815260200190815260200160002060006101000a81548160ff021916908360ff1602179055508073ffffffffffffffffffffffffffffffffffffffff167f53286125aa034acaf4eb8a0931fe01b25caceba942ab407c6ce09e1b0dfab58c60405160405180910390a250565b611084611bde565b600073ffffffffffffffffffffffffffffffffffffffff168173ffffffffffffffffffffffffffffffffffffffff16036110f3576040517f08c379a00000000000000000000000000000000000000000000000000000000081526004016110ea90612d58565b60405180910390fd5b80600c60006101000a81548173ffffffffffffffffffffffffffffffffffffffff021916908373ffffffffffffffffffffffffffffffffffffffff16021790555050565b60026020528060005260406000206000915054906101000a900460ff1681565b600660009054906101000a900473ffffffffffffffffffffffffffffffffffffffff1681565b60075481565b6000600360008373ffffffffffffffffffffffffffffffffffffffff1673ffffffffffffffffffffffffffffffffffffffff16815260200190815260200160002060009054906101000a900473ffffffffffffffffffffffffffffffffffffffff169050919050565b600060149054906101000a900460ff1681565b611207611bde565b6112116000611c65565b565b61121b611bde565b80600060146101000a81548160ff021916908360ff1602179055507f33bedb18f5997e509fda05045e1279f45fd9c53ef8cb47f4b170f74cc63bccac600060149054906101000a900460ff166040516112749190612865565b60405180910390a150565b60046020528060005260406000206000915090505481565b61129f611bde565b6000600160009054906101000a900473ffffffffffffffffffffffffffffffffffffffff1673ffffffffffffffffffffffffffffffffffffffff166370a08231306040518263ffffffff1660e01b81526004016112fc9190612244565b602060405180830381865afa158015611319573d6000803e3d6000fd5b505050506040513d601f19601f8201168201806040525081019061133d919061229a565b905060008111611382576040517f08c379a000000000000000000000000000000000000000000000000000000000815260040161137990612339565b60405180910390fd5b600160009054906101000a900473ffffffffffffffffffffffffffffffffffffffff1673ffffffffffffffffffffffffffffffffffffffff1663a9059cbb600660009054906101000a900473ffffffffffffffffffffffffffffffffffffffff16600160009054906101000a900473ffffffffffffffffffffffffffffffffffffffff1673ffffffffffffffffffffffffffffffffffffffff166370a08231306040518263ffffffff1660e01b815260040161143e9190612244565b602060405180830381865afa15801561145b573d6000803e3d6000fd5b505050506040513d601f19601f8201168201806040525081019061147f919061229a565b6040518363ffffffff1660e01b815260040161149c9291906126da565b6020604051808303816000875af11580156114bb573d6000803e3d6000fd5b505050506040513d601f19601f820116820180604052508101906114df919061273b565b61151e576040517f08c379a000000000000000000000000000000000000000000000000000000000815260040161151590612dc4565b60405180910390fd5b50565b60008060009054906101000a900473ffffffffffffffffffffffffffffffffffffffff16905090565b600560009054906101000a900473ffffffffffffffffffffffffffffffffffffffff1681565b6000600160009054906101000a900473ffffffffffffffffffffffffffffffffffffffff1673ffffffffffffffffffffffffffffffffffffffff166370a08231306040518263ffffffff1660e01b81526004016115cd9190612244565b602060405180830381865afa1580156115ea573d6000803e3d6000fd5b505050506040513d601f19601f8201168201806040525081019061160e919061229a565b905060008111611653576040517f08c379a000000000000000000000000000000000000000000000000000000000815260040161164a90612339565b60405180910390fd5b600061167e600b54611670600a54876109ac90919063ffffffff16565b6109c290919063ffffffff16565b9050600084116116c3576040517f08c379a00000000000000000000000000000000000000000000000000000000081526004016116ba90612e30565b60405180910390fd5b83600560009054906101000a900473ffffffffffffffffffffffffffffffffffffffff1673ffffffffffffffffffffffffffffffffffffffff166370a08231336040518263ffffffff1660e01b815260040161171f9190612244565b602060405180830381865afa15801561173c573d6000803e3d6000fd5b505050506040513d601f19601f82011682018060405250810190611760919061229a565b10156117a1576040517f08c379a000000000000000000000000000000000000000000000000000000000815260040161179890612e9c565b60405180910390fd5b83600560009054906101000a900473ffffffffffffffffffffffffffffffffffffffff1673ffffffffffffffffffffffffffffffffffffffff1663dd62ed3e33306040518363ffffffff1660e01b81526004016117ff929190612ebc565b602060405180830381865afa15801561181c573d6000803e3d6000fd5b505050506040513d601f19601f82011682018060405250810190611840919061229a565b1015611881576040517f08c379a000000000000000000000000000000000000000000000000000000000815260040161187890612f31565b60405180910390fd5b600560009054906101000a900473ffffffffffffffffffffffffffffffffffffffff1673ffffffffffffffffffffffffffffffffffffffff166323b872dd3330876040518463ffffffff1660e01b81526004016118e093929190612f51565b6020604051808303816000875af11580156118ff573d6000803e3d6000fd5b505050506040513d601f19601f82011682018060405250810190611923919061273b565b611962576040517f08c379a000000000000000000000000000000000000000000000000000000000815260040161195990612fd4565b60405180910390fd5b600160009054906101000a900473ffffffffffffffffffffffffffffffffffffffff1673ffffffffffffffffffffffffffffffffffffffff1663a9059cbb33836040518363ffffffff1660e01b81526004016119bf9291906126da565b6020604051808303816000875af11580156119de573d6000803e3d6000fd5b505050506040513d601f19601f82011682018060405250810190611a02919061273b565b611a41576040517f08c379a0000000000000000000000000000000000000000000000000000000008152600401611a38906127b4565b60405180910390fd5b600073ffffffffffffffffffffffffffffffffffffffff168373ffffffffffffffffffffffffffffffffffffffff1614611a8157611a80838533611d29565b5b3373ffffffffffffffffffffffffffffffffffffffff167f8fafebcaf9d154343dad25669bfa277f4fbacd7ac6b0c4fed522580e040a0f338586604051611ac99291906127d4565b60405180910390a250505050565b611adf611bde565b60008111611b22576040517f08c379a0000000000000000000000000000000000000000000000000000000008152600401611b1990613066565b60405180910390fd5b8060088190555050565b60085481565b611b3a611bde565b600073ffffffffffffffffffffffffffffffffffffffff168173ffffffffffffffffffffffffffffffffffffffff1603611bac5760006040517f1e4fbdf7000000000000000000000000000000000000000000000000000000008152600401611ba39190612244565b60405180910390fd5b611bb581611c65565b50565b600160009054906101000a900473ffffffffffffffffffffffffffffffffffffffff1681565b611be661217e565b73ffffffffffffffffffffffffffffffffffffffff16611c04611521565b73ffffffffffffffffffffffffffffffffffffffff1614611c6357611c2761217e565b6040517f118cdaa7000000000000000000000000000000000000000000000000000000008152600401611c5a9190612244565b60405180910390fd5b565b60008060009054906101000a900473ffffffffffffffffffffffffffffffffffffffff169050816000806101000a81548173ffffffffffffffffffffffffffffffffffffffff021916908373ffffffffffffffffffffffffffffffffffffffff1602179055508173ffffffffffffffffffffffffffffffffffffffff168173ffffffffffffffffffffffffffffffffffffffff167f8be0079c531659141344cd1fd0a4f28419497f9722a3daafe3b4186f6b6457e060405160405180910390a35050565b60008211611d6c576040517f08c379a0000000000000000000000000000000000000000000000000000000008152600401611d63906130f8565b60405180910390fd5b6000600260008573ffffffffffffffffffffffffffffffffffffffff1673ffffffffffffffffffffffffffffffffffffffff16815260200190815260200160002060009054906101000a900460ff1660ff1611611dfe576040517f08c379a0000000000000000000000000000000000000000000000000000000008152600401611df590613164565b60405180910390fd5b8073ffffffffffffffffffffffffffffffffffffffff168373ffffffffffffffffffffffffffffffffffffffff1603611e6c576040517f08c379a0000000000000000000000000000000000000000000000000000000008152600401611e63906131f6565b60405180910390fd5b600073ffffffffffffffffffffffffffffffffffffffff16600360008373ffffffffffffffffffffffffffffffffffffffff1673ffffffffffffffffffffffffffffffffffffffff16815260200190815260200160002060009054906101000a900473ffffffffffffffffffffffffffffffffffffffff1673ffffffffffffffffffffffffffffffffffffffff1614611fd1578273ffffffffffffffffffffffffffffffffffffffff16600360008373ffffffffffffffffffffffffffffffffffffffff1673ffffffffffffffffffffffffffffffffffffffff16815260200190815260200160002060009054906101000a900473ffffffffffffffffffffffffffffffffffffffff1673ffffffffffffffffffffffffffffffffffffffff1614611fcc576040517f08c379a0000000000000000000000000000000000000000000000000000000008152600401611fc390613262565b60405180910390fd5b612050565b82600360008373ffffffffffffffffffffffffffffffffffffffff1673ffffffffffffffffffffffffffffffffffffffff16815260200190815260200160002060006101000a81548173ffffffffffffffffffffffffffffffffffffffff021916908373ffffffffffffffffffffffffffffffffffffffff1602179055505b60006064600260008673ffffffffffffffffffffffffffffffffffffffff1673ffffffffffffffffffffffffffffffffffffffff16815260200190815260200160002060009054906101000a900460ff1660ff16846120af9190612a9f565b6120b99190612a6e565b905080600460008673ffffffffffffffffffffffffffffffffffffffff1673ffffffffffffffffffffffffffffffffffffffff168152602001908152602001600020600082825461210a9190613282565b925050819055508373ffffffffffffffffffffffffffffffffffffffff168273ffffffffffffffffffffffffffffffffffffffff167f5a1838523901c986595a2cf4484933f2c42d64a7bfc9b6d0c40cacb22379fa8285846040516121709291906127d4565b60405180910390a350505050565b600033905090565b600082825260208201905092915050565b7f5265656e7472616e637947756172643a207265656e7472616e742063616c6c00600082015250565b60006121cd601f83612186565b91506121d882612197565b602082019050919050565b600060208201905081810360008301526121fc816121c0565b9050919050565b600073ffffffffffffffffffffffffffffffffffffffff82169050919050565b600061222e82612203565b9050919050565b61223e81612223565b82525050565b60006020820190506122596000830184612235565b92915050565b600080fd5b6000819050919050565b61227781612264565b811461228257600080fd5b50565b6000815190506122948161226e565b92915050565b6000602082840312156122b0576122af61225f565b5b60006122be84828501612285565b91505092915050565b7f43726f77646553616c653a20496e73756666696369656e7420746f6b656e206160008201527f6d6f756e74000000000000000000000000000000000000000000000000000000602082015250565b6000612323602583612186565b915061232e826122c7565b604082019050919050565b6000602082019050818103600083015261235281612316565b9050919050565b7f43726f77646553616c653a204554482076616c75652063616e27742062652030600082015250565b600061238f602083612186565b915061239a82612359565b602082019050919050565b600060208201905081810360008301526123be81612382565b9050919050565b600069ffffffffffffffffffff82169050919050565b6123e4816123c5565b81146123ef57600080fd5b50565b600081519050612401816123db565b92915050565b6000819050919050565b61241a81612407565b811461242557600080fd5b50565b60008151905061243781612411565b92915050565b600080600080600060a086880312156124595761245861225f565b5b6000612467888289016123f2565b955050602061247888828901612428565b945050604061248988828901612285565b935050606061249a88828901612285565b92505060806124ab888289016123f2565b9150509295509295909350565b600060ff82169050919050565b6124ce816124b8565b81146124d957600080fd5b50565b6000815190506124eb816124c5565b92915050565b6000602082840312156125075761250661225f565b5b6000612515848285016124dc565b91505092915050565b7f4e487b7100000000000000000000000000000000000000000000000000000000600052601160045260246000fd5b60008160011c9050919050565b6000808291508390505b60018511156125a4578086048111156125805761257f61251e565b5b600185161561258f5780820291505b808102905061259d8561254d565b9450612564565b94509492505050565b6000826125bd5760019050612679565b816125cb5760009050612679565b81600181146125e157600281146125eb5761261a565b6001915050612679565b60ff8411156125fd576125fc61251e565b5b8360020a9150848211156126145761261361251e565b5b50612679565b5060208310610133831016604e8410600b841016171561264f5782820a90508381111561264a5761264961251e565b5b612679565b61265c848484600161255a565b925090508184048111156126735761267261251e565b5b81810290505b9392505050565b600061268b82612264565b915061269683612264565b92506126c37fffffffffffffffffffffffffffffffffffffffffffffffffffffffffffffffff84846125ad565b905092915050565b6126d481612264565b82525050565b60006040820190506126ef6000830185612235565b6126fc60208301846126cb565b9392505050565b60008115159050919050565b61271881612703565b811461272357600080fd5b50565b6000815190506127358161270f565b92915050565b6000602082840312156127515761275061225f565b5b600061275f84828501612726565b91505092915050565b7f546f6b656e207472616e73666572206661696c65640000000000000000000000600082015250565b600061279e601583612186565b91506127a982612768565b602082019050919050565b600060208201905081810360008301526127cd81612791565b9050919050565b60006040820190506127e960008301856126cb565b6127f660208301846126cb565b9392505050565b61280681612223565b811461281157600080fd5b50565b600081359050612823816127fd565b92915050565b60006020828403121561283f5761283e61225f565b5b600061284d84828501612814565b91505092915050565b61285f816124b8565b82525050565b600060208201905061287a6000830184612856565b92915050565b600060208201905061289560008301846126cb565b92915050565b6000813590506128aa816124c5565b92915050565b6000602082840312156128c6576128c561225f565b5b60006128d48482850161289b565b91505092915050565b6000819050919050565b60006129026128fd6128f884612203565b6128dd565b612203565b9050919050565b6000612914826128e7565b9050919050565b600061292682612909565b9050919050565b6129368161291b565b82525050565b6000602082019050612951600083018461292d565b92915050565b6000813590506129668161226e565b92915050565b600080604083850312156129835761298261225f565b5b600061299185828601612957565b92505060206129a285828601612814565b9150509250929050565b6000602082840312156129c2576129c161225f565b5b60006129d084828501612957565b91505092915050565b60006129e482612909565b9050919050565b6129f4816129d9565b82525050565b6000602082019050612a0f60008301846129eb565b92915050565b612a1e81612407565b82525050565b6000602082019050612a396000830184612a15565b92915050565b7f4e487b7100000000000000000000000000000000000000000000000000000000600052601260045260246000fd5b6000612a7982612264565b9150612a8483612264565b925082612a9457612a93612a3f565b5b828204905092915050565b6000612aaa82612264565b9150612ab583612264565b9250828202612ac381612264565b91508282048414831517612ada57612ad961251e565b5b5092915050565b7f4e487b7100000000000000000000000000000000000000000000000000000000600052600160045260246000fd5b7f43726f77646553616c653a20496e73756666696369656e7420746f6b656e555360008201527f445420616d6f756e740000000000000000000000000000000000000000000000602082015250565b6000612b6c602983612186565b9150612b7782612b10565b604082019050919050565b60006020820190508181036000830152612b9b81612b5f565b9050919050565b7f55534454207769746864726177206661696c6564000000000000000000000000600082015250565b6000612bd8601483612186565b9150612be382612ba2565b602082019050919050565b60006020820190508181036000830152612c0781612bcb565b9050919050565b7f4e6f20636f6d6d697373696f6e20746f20776974686472617700000000000000600082015250565b6000612c44601983612186565b9150612c4f82612c0e565b602082019050919050565b60006020820190508181036000830152612c7381612c37565b9050919050565b7f496e7375666669636e657420636f6e74726163742062616c616e636500000000600082015250565b6000612cb0601c83612186565b9150612cbb82612c7a565b602082019050919050565b60006020820190508181036000830152612cdf81612ca3565b9050919050565b7f41676772656761746f722061646472657373206d757374206265206e6f74207a60008201527f65726f2061646472657373000000000000000000000000000000000000000000602082015250565b6000612d42602b83612186565b9150612d4d82612ce6565b604082019050919050565b60006020820190508181036000830152612d7181612d35565b9050919050565b7f546f6b656e207769746864726177206661696c65640000000000000000000000600082015250565b6000612dae601583612186565b9150612db982612d78565b602082019050919050565b60006020820190508181036000830152612ddd81612da1565b9050919050565b7f416d6f756e74206d7573742062652067726561746572207468616e207a65726f600082015250565b6000612e1a602083612186565b9150612e2582612de4565b602082019050919050565b60006020820190508181036000830152612e4981612e0d565b9050919050565b7f496e73756666696369656e742062616c616e6365000000000000000000000000600082015250565b6000612e86601483612186565b9150612e9182612e50565b602082019050919050565b60006020820190508181036000830152612eb581612e79565b9050919050565b6000604082019050612ed16000830185612235565b612ede6020830184612235565b9392505050565b7f696e73756666696369656e7420416c6c6f77616e636500000000000000000000600082015250565b6000612f1b601683612186565b9150612f2682612ee5565b602082019050919050565b60006020820190508181036000830152612f4a81612f0e565b9050919050565b6000606082019050612f666000830186612235565b612f736020830185612235565b612f8060408301846126cb565b949350505050565b7f55534454207472616e73666572206661696c6564000000000000000000000000600082015250565b6000612fbe601483612186565b9150612fc982612f88565b602082019050919050565b60006020820190508181036000830152612fed81612fb1565b9050919050565b7f526566657272616c2072617465206d757374206265206772656174657220746860008201527f616e207a65726f00000000000000000000000000000000000000000000000000602082015250565b6000613050602783612186565b915061305b82612ff4565b604082019050919050565b6000602082019050818103600083015261307f81613043565b9050919050565b7f50757263686173652076616c7565206d7573742062652067726561746572207460008201527f68616e2030000000000000000000000000000000000000000000000000000000602082015250565b60006130e2602583612186565b91506130ed82613086565b604082019050919050565b60006020820190508181036000830152613111816130d5565b9050919050565b7f496e76616c696420616666696c69617465000000000000000000000000000000600082015250565b600061314e601183612186565b915061315982613118565b602082019050919050565b6000602082019050818103600083015261317d81613141565b9050919050565b7f416666696c696174652063616e6e6f74206265207468652073616d652061732060008201527f637573746f6d6572000000000000000000000000000000000000000000000000602082015250565b60006131e0602883612186565b91506131eb82613184565b604082019050919050565b6000602082019050818103600083015261320f816131d3565b9050919050565b7f437573746f6d657220616c72656164792068617320616666696c696174650000600082015250565b600061324c601e83612186565b915061325782613216565b602082019050919050565b6000602082019050818103600083015261327b8161323f565b9050919050565b600061328d82612264565b915061329883612264565b92508282019050808211156132b0576132af61251e565b5b9291505056fea26469706673582212208a0108719e24ab64f340a5b6aa85fcb812ac7b82f7f74afb5d9d7dcd1ef895d364736f6c63430008180033",
  "linkReferences": {},
  "deployedLinkReferences": {}
}