{
  "_format": "hh-sol-artifact-1",
  "contractName": "Crowdesale",
  "sourceName": "contracts/Crowdsale.sol",
  "abi": [
    {
      "inputs": [
        {
          "internalType": "address",
          "name": "_walletAddress",
          "type": "address"
        },
        {
          "internalType": "contract ERC20",
          "name": "_token",
          "type": "address"
        },
        {
          "internalType": "contract ERC20",
          "name": "_tokenUSDT",
          "type": "address"
        },
        {
          "internalType": "uint256",
          "name": "_amount",
          "type": "uint256"
        },
        {
          "internalType": "address",
          "name": "_aggregatorAddress",
          "type": "address"
        },
        {
          "internalType": "uint256",
          "name": "_referralRate",
          "type": "uint256"
        },
        {
          "internalType": "uint8",
          "name": "_affiliateRate",
          "type": "uint8"
        }
      ],
      "stateMutability": "nonpayable",
      "type": "constructor"
    },
    {
      "inputs": [
        {
          "internalType": "address",
          "name": "owner",
          "type": "address"
        }
      ],
      "name": "OwnableInvalidOwner",
      "type": "error"
    },
    {
      "inputs": [
        {
          "internalType": "address",
          "name": "account",
          "type": "address"
        }
      ],
      "name": "OwnableUnauthorizedAccount",
      "type": "error"
    },
    {
      "inputs": [
        {
          "internalType": "int256",
          "name": "value",
          "type": "int256"
        }
      ],
      "name": "SafeCastOverflowedIntToUint",
      "type": "error"
    },
    {
      "anonymous": false,
      "inputs": [
        {
          "indexed": true,
          "internalType": "address",
          "name": "customer",
          "type": "address"
        },
        {
          "indexed": false,
          "internalType": "uint256",
          "name": "value",
          "type": "uint256"
        },
        {
          "indexed": true,
          "internalType": "address",
          "name": "affiliate",
          "type": "address"
        },
        {
          "indexed": false,
          "internalType": "uint256",
          "name": "commission",
          "type": "uint256"
        }
      ],
      "name": "AccumulatedCommission",
      "type": "event"
    },
    {
      "anonymous": false,
      "inputs": [
        {
          "indexed": true,
          "internalType": "address",
          "name": "affiliateWallet",
          "type": "address"
        }
      ],
      "name": "AffiliateRegistered",
      "type": "event"
    },
    {
      "anonymous": false,
      "inputs": [
        {
          "indexed": false,
          "internalType": "uint8",
          "name": "newRate",
          "type": "uint8"
        }
      ],
      "name": "ChangeCommisionRate",
      "type": "event"
    },
    {
      "anonymous": false,
      "inputs": [
        {
          "indexed": true,
          "internalType": "address",
          "name": "previousOwner",
          "type": "address"
        },
        {
          "indexed": true,
          "internalType": "address",
          "name": "newOwner",
          "type": "address"
        }
      ],
      "name": "OwnershipTransferred",
      "type": "event"
    },
    {
      "anonymous": false,
      "inputs": [
        {
          "indexed": true,
          "internalType": "address",
          "name": "purchaser",
          "type": "address"
        },
        {
          "indexed": false,
          "internalType": "uint256",
          "name": "value",
          "type": "uint256"
        },
        {
          "indexed": false,
          "internalType": "uint256",
          "name": "amount",
          "type": "uint256"
        }
      ],
      "name": "TokensPurchased",
      "type": "event"
    },
    {
      "anonymous": false,
      "inputs": [
        {
          "indexed": true,
          "internalType": "address",
          "name": "customer",
          "type": "address"
        },
        {
          "indexed": false,
          "internalType": "uint256",
          "name": "value",
          "type": "uint256"
        }
      ],
      "name": "WithdrawCommission",
      "type": "event"
    },
    {
      "inputs": [],
      "name": "REFERRAL_RATE",
      "outputs": [
        {
          "internalType": "uint256",
          "name": "",
          "type": "uint256"
        }
      ],
      "stateMutability": "view",
      "type": "function"
    },
    {
      "inputs": [
        {
          "internalType": "address",
          "name": "",
          "type": "address"
        }
      ],
      "name": "accumulatedCommission",
      "outputs": [
        {
          "internalType": "uint256",
          "name": "",
          "type": "uint256"
        }
      ],
      "stateMutability": "view",
      "type": "function"
    },
    {
      "inputs": [
        {
          "internalType": "address",
          "name": "_affiliate",
          "type": "address"
        },
        {
          "internalType": "uint256",
          "name": "_boughtValue",
          "type": "uint256"
        },
        {
          "internalType": "address",
          "name": "_buyer",
          "type": "address"
        }
      ],
      "name": "addCommissionByOwner",
      "outputs": [],
      "stateMutability": "nonpayable",
      "type": "function"
    },
    {
      "inputs": [
        {
          "internalType": "address",
          "name": "",
          "type": "address"
        }
      ],
      "name": "affiliates",
      "outputs": [
        {
          "internalType": "uint8",
          "name": "",
          "type": "uint8"
        }
      ],
      "stateMutability": "view",
      "type": "function"
    },
    {
      "inputs": [
        {
          "internalType": "uint256",
          "name": "_usdtAmount",
          "type": "uint256"
        },
        {
          "internalType": "address",
          "name": "_affiliateAddress",
          "type": "address"
        }
      ],
      "name": "buyTokens",
      "outputs": [],
      "stateMutability": "nonpayable",
      "type": "function"
    },
    {
      "inputs": [
        {
          "internalType": "address",
          "name": "_affiliateAddress",
          "type": "address"
        }
      ],
      "name": "buyTokensWithBNB",
      "outputs": [],
      "stateMutability": "payable",
      "type": "function"
    },
    {
      "inputs": [
        {
          "internalType": "uint8",
          "name": "_newRate",
          "type": "uint8"
        }
      ],
      "name": "changeCommissionRate",
      "outputs": [],
      "stateMutability": "nonpayable",
      "type": "function"
    },
    {
      "inputs": [],
      "name": "commissionRate",
      "outputs": [
        {
          "internalType": "uint8",
          "name": "",
          "type": "uint8"
        }
      ],
      "stateMutability": "view",
      "type": "function"
    },
    {
      "inputs": [],
      "name": "disperseAmount",
      "outputs": [
        {
          "internalType": "uint256",
          "name": "",
          "type": "uint256"
        }
      ],
      "stateMutability": "view",
      "type": "function"
    },
    {
      "inputs": [
        {
          "internalType": "address",
          "name": "_address",
          "type": "address"
        }
      ],
      "name": "getAccumulatedCommission",
      "outputs": [
        {
          "internalType": "uint256",
          "name": "",
          "type": "uint256"
        }
      ],
      "stateMutability": "view",
      "type": "function"
    },
    {
      "inputs": [
        {
          "internalType": "address",
          "name": "_affiliateAddress",
          "type": "address"
        }
      ],
      "name": "getAffiliates",
      "outputs": [
        {
          "internalType": "uint8",
          "name": "",
          "type": "uint8"
        }
      ],
      "stateMutability": "view",
      "type": "function"
    },
    {
      "inputs": [],
      "name": "owner",
      "outputs": [
        {
          "internalType": "address",
          "name": "",
          "type": "address"
        }
      ],
      "stateMutability": "view",
      "type": "function"
    },
    {
      "inputs": [
        {
          "internalType": "address",
          "name": "_affiliateAddress",
          "type": "address"
        }
      ],
      "name": "registerAsAffiliate",
      "outputs": [],
      "stateMutability": "nonpayable",
      "type": "function"
    },
    {
      "inputs": [],
      "name": "renounceOwnership",
      "outputs": [],
      "stateMutability": "nonpayable",
      "type": "function"
    },
    {
      "inputs": [
        {
          "internalType": "address",
          "name": "_newAggregatorAddress",
          "type": "address"
        }
      ],
      "name": "setAggregatorAddress",
      "outputs": [],
      "stateMutability": "nonpayable",
      "type": "function"
    },
    {
      "inputs": [
        {
          "internalType": "uint256",
          "name": "_newRate",
          "type": "uint256"
        }
      ],
      "name": "setReferralRate",
      "outputs": [],
      "stateMutability": "nonpayable",
      "type": "function"
    },
    {
      "inputs": [],
      "name": "token",
      "outputs": [
        {
          "internalType": "contract IERC20",
          "name": "",
          "type": "address"
        }
      ],
      "stateMutability": "view",
      "type": "function"
    },
    {
      "inputs": [],
      "name": "tokenUSDT",
      "outputs": [
        {
          "internalType": "contract ERC20",
          "name": "",
          "type": "address"
        }
      ],
      "stateMutability": "view",
      "type": "function"
    },
    {
      "inputs": [
        {
          "internalType": "address",
          "name": "newOwner",
          "type": "address"
        }
      ],
      "name": "transferOwnership",
      "outputs": [],
      "stateMutability": "nonpayable",
      "type": "function"
    },
    {
      "inputs": [],
      "name": "wallet",
      "outputs": [
        {
          "internalType": "address",
          "name": "",
          "type": "address"
        }
      ],
      "stateMutability": "view",
      "type": "function"
    },
    {
      "inputs": [],
      "name": "withdrawCommission",
      "outputs": [],
      "stateMutability": "nonpayable",
      "type": "function"
    },
    {
      "inputs": [],
      "name": "withdrawFunds",
      "outputs": [],
      "stateMutability": "nonpayable",
      "type": "function"
    },
    {
      "inputs": [],
      "name": "withdrawTokens",
      "outputs": [],
      "stateMutability": "nonpayable",
      "type": "function"
    },
    {
      "inputs": [],
      "name": "withdrawUSDT",
      "outputs": [],
      "stateMutability": "nonpayable",
      "type": "function"
    },
    {
      "stateMutability": "payable",
      "type": "receive"
    }
  ],
  "bytecode": "0x608060405260066009556012600a553480156200001b57600080fd5b50604051620042b4380380620042b48339818101604052810190620000419190620005d0565b808633600073ffffffffffffffffffffffffffffffffffffffff168173ffffffffffffffffffffffffffffffffffffffff1603620000b95760006040517f1e4fbdf7000000000000000000000000000000000000000000000000000000008152600401620000b0919062000694565b60405180910390fd5b620000ca81620003e460201b60201c565b5081600060146101000a81548160ff021916908360ff16021790555080600160006101000a81548173ffffffffffffffffffffffffffffffffffffffff021916908373ffffffffffffffffffffffffffffffffffffffff1602179055505050600073ffffffffffffffffffffffffffffffffffffffff168773ffffffffffffffffffffffffffffffffffffffff16036200019b576040517f08c379a0000000000000000000000000000000000000000000000000000000008152600401620001929062000738565b60405180910390fd5b600073ffffffffffffffffffffffffffffffffffffffff168673ffffffffffffffffffffffffffffffffffffffff16036200020d576040517f08c379a00000000000000000000000000000000000000000000000000000000081526004016200020490620007d0565b60405180910390fd5b600073ffffffffffffffffffffffffffffffffffffffff168573ffffffffffffffffffffffffffffffffffffffff16036200027f576040517f08c379a0000000000000000000000000000000000000000000000000000000008152600401620002769062000868565b60405180910390fd5b60008411620002c5576040517f08c379a0000000000000000000000000000000000000000000000000000000008152600401620002bc9062000900565b60405180910390fd5b86600560006101000a81548173ffffffffffffffffffffffffffffffffffffffff021916908373ffffffffffffffffffffffffffffffffffffffff1602179055508360068190555085600160006101000a81548173ffffffffffffffffffffffffffffffffffffffff021916908373ffffffffffffffffffffffffffffffffffffffff16021790555084600460006101000a81548173ffffffffffffffffffffffffffffffffffffffff021916908373ffffffffffffffffffffffffffffffffffffffff1602179055508160078190555082600b60006101000a81548173ffffffffffffffffffffffffffffffffffffffff021916908373ffffffffffffffffffffffffffffffffffffffff1602179055505050505050505062000922565b60008060009054906101000a900473ffffffffffffffffffffffffffffffffffffffff169050816000806101000a81548173ffffffffffffffffffffffffffffffffffffffff021916908373ffffffffffffffffffffffffffffffffffffffff1602179055508173ffffffffffffffffffffffffffffffffffffffff168173ffffffffffffffffffffffffffffffffffffffff167f8be0079c531659141344cd1fd0a4f28419497f9722a3daafe3b4186f6b6457e060405160405180910390a35050565b600080fd5b600073ffffffffffffffffffffffffffffffffffffffff82169050919050565b6000620004da82620004ad565b9050919050565b620004ec81620004cd565b8114620004f857600080fd5b50565b6000815190506200050c81620004e1565b92915050565b60006200051f82620004cd565b9050919050565b620005318162000512565b81146200053d57600080fd5b50565b600081519050620005518162000526565b92915050565b6000819050919050565b6200056c8162000557565b81146200057857600080fd5b50565b6000815190506200058c8162000561565b92915050565b600060ff82169050919050565b620005aa8162000592565b8114620005b657600080fd5b50565b600081519050620005ca816200059f565b92915050565b600080600080600080600060e0888a031215620005f257620005f1620004a8565b5b6000620006028a828b01620004fb565b9750506020620006158a828b0162000540565b9650506040620006288a828b0162000540565b95505060606200063b8a828b016200057b565b94505060806200064e8a828b01620004fb565b93505060a0620006618a828b016200057b565b92505060c0620006748a828b01620005b9565b91505092959891949750929550565b6200068e81620004cd565b82525050565b6000602082019050620006ab600083018462000683565b92915050565b600082825260208201905092915050565b7f43726f77646553616c653a2077616c6c657420616464726573732063616e277460008201527f206265207a65726f000000000000000000000000000000000000000000000000602082015250565b600062000720602883620006b1565b91506200072d82620006c2565b604082019050919050565b60006020820190508181036000830152620007538162000711565b9050919050565b7f43726f77646553616c653a20746f6b656e20616464726573732063616e27742060008201527f6265207a65726f00000000000000000000000000000000000000000000000000602082015250565b6000620007b8602783620006b1565b9150620007c5826200075a565b604082019050919050565b60006020820190508181036000830152620007eb81620007a9565b9050919050565b7f43726f77646553616c653a205553445420746f6b656e2061646472657373206360008201527f616e2774206265207a65726f0000000000000000000000000000000000000000602082015250565b600062000850602c83620006b1565b91506200085d82620007f2565b604082019050919050565b60006020820190508181036000830152620008838162000841565b9050919050565b7f43726f77646553616c653a20646973706572736520616d6f756e742063616e2760008201527f74206265207a65726f0000000000000000000000000000000000000000000000602082015250565b6000620008e8602983620006b1565b9150620008f5826200088a565b604082019050919050565b600060208201905081810360008301526200091b81620008d9565b9050919050565b61398280620009326000396000f3fe60806040526004361061014f5760003560e01c806388576dc9116100b6578063ca4863fd1161006f578063ca4863fd146108aa578063e1f363cd146108d3578063e276db8314610910578063f2fde38b1461093b578063f873aff314610964578063fc0c546a1461098d576105e4565b806388576dc9146107ae5780638aa58799146107d75780638d8f2adb146108145780638da5cb5b1461082b57806399c5c8aa14610856578063c625e9b114610881576105e4565b80634f51e294116101085780634f51e294146106bd578063521eb273146106fa5780635304a20b146107255780635ea1d6f814610750578063715018a61461077b57806378c4905614610792576105e4565b806321d38c78146105e957806324600fc314610626578063362e496b1461063d5780633e25e83714610654578063438c3bcd1461066b57806347b3244814610694576105e4565b366105e457600860009054906101000a900460ff16156101a4576040517f08c379a000000000000000000000000000000000000000000000000000000000815260040161019b90612892565b60405180910390fd5b6001600860006101000a81548160ff0219169083151502179055506000600160009054906101000a900473ffffffffffffffffffffffffffffffffffffffff1673ffffffffffffffffffffffffffffffffffffffff166370a08231306040518263ffffffff1660e01b815260040161021c91906128f3565b602060405180830381865afa158015610239573d6000803e3d6000fd5b505050506040513d601f19601f8201168201806040525081019061025d9190612949565b9050600081116102a2576040517f08c379a0000000000000000000000000000000000000000000000000000000008152600401610299906129e8565b60405180910390fd5b6000349050600081116102ea576040517f08c379a00000000000000000000000000000000000000000000000000000000081526004016102e190612a54565b60405180910390fd5b6000600b60009054906101000a900473ffffffffffffffffffffffffffffffffffffffff1673ffffffffffffffffffffffffffffffffffffffff1663feaf968c6040518163ffffffff1660e01b815260040160a060405180830381865afa158015610359573d6000803e3d6000fd5b505050506040513d601f19601f8201168201806040525081019061037d9190612aec565b5050509150506000600b60009054906101000a900473ffffffffffffffffffffffffffffffffffffffff1673ffffffffffffffffffffffffffffffffffffffff1663313ce5676040518163ffffffff1660e01b8152600401602060405180830381865afa1580156103f2573d6000803e3d6000fd5b505050506040513d601f19601f820116820180604052508101906104169190612ba0565b60ff169050600061044482600a61042d9190612d2f565b610436856109b8565b610a0790919063ffffffff16565b905061046e606461046060075487610a1d90919063ffffffff16565b610a0790919063ffffffff16565b9350600160009054906101000a900473ffffffffffffffffffffffffffffffffffffffff1673ffffffffffffffffffffffffffffffffffffffff1663a9059cbb336104c28488610a1d90919063ffffffff16565b6040518363ffffffff1660e01b81526004016104df929190612d89565b6020604051808303816000875af11580156104fe573d6000803e3d6000fd5b505050506040513d601f19601f820116820180604052508101906105229190612dea565b610561576040517f08c379a000000000000000000000000000000000000000000000000000000000815260040161055890612e63565b60405180910390fd5b3373ffffffffffffffffffffffffffffffffffffffff167f8fafebcaf9d154343dad25669bfa277f4fbacd7ac6b0c4fed522580e040a0f33856105ad8488610a1d90919063ffffffff16565b6040516105bb929190612e83565b60405180910390a250505050506000600860006101000a81548160ff0219169083151502179055005b600080fd5b3480156105f557600080fd5b50610610600480360381019061060b9190612ed8565b610a5f565b60405161061d9190612f05565b60405180910390f35b34801561063257600080fd5b5061063b610aa8565b005b34801561064957600080fd5b50610652610b1b565b005b34801561066057600080fd5b50610669610da5565b005b34801561067757600080fd5b50610692600480360381019061068d9190612ed8565b611040565b005b3480156106a057600080fd5b506106bb60048036038101906106b69190612ed8565b6110ed565b005b3480156106c957600080fd5b506106e460048036038101906106df9190612ed8565b6111a8565b6040516106f19190612f2f565b60405180910390f35b34801561070657600080fd5b5061070f6111c8565b60405161071c91906128f3565b60405180910390f35b34801561073157600080fd5b5061073a6111ee565b6040516107479190612f05565b60405180910390f35b34801561075c57600080fd5b506107656111f4565b6040516107729190612f2f565b60405180910390f35b34801561078757600080fd5b50610790611207565b005b6107ac60048036038101906107a79190612ed8565b61121b565b005b3480156107ba57600080fd5b506107d560048036038101906107d09190612f5f565b6116ff565b005b3480156107e357600080fd5b506107fe60048036038101906107f99190612ed8565b61176b565b60405161080b9190612f05565b60405180910390f35b34801561082057600080fd5b50610829611783565b005b34801561083757600080fd5b50610840611a0d565b60405161084d91906128f3565b60405180910390f35b34801561086257600080fd5b5061086b611a36565b6040516108789190612feb565b60405180910390f35b34801561088d57600080fd5b506108a860048036038101906108a3919061301b565b611a5c565b005b3480156108b657600080fd5b506108d160048036038101906108cc919061305b565b611fcd565b005b3480156108df57600080fd5b506108fa60048036038101906108f59190612ed8565b612022565b6040516109079190612f2f565b60405180910390f35b34801561091c57600080fd5b50610925612078565b6040516109329190612f05565b60405180910390f35b34801561094757600080fd5b50610962600480360381019061095d9190612ed8565b61207e565b005b34801561097057600080fd5b5061098b60048036038101906109869190613088565b612104565b005b34801561099957600080fd5b506109a261244b565b6040516109af91906130fc565b60405180910390f35b6000808212156109ff57816040517fa8ce44320000000000000000000000000000000000000000000000000000000081526004016109f69190613126565b60405180910390fd5b819050919050565b60008183610a159190613170565b905092915050565b6000808303610a2f5760009050610a59565b8183610a3b91906131a1565b9050818382610a4a9190613170565b14610a5857610a576131e3565b5b5b92915050565b6000600360008373ffffffffffffffffffffffffffffffffffffffff1673ffffffffffffffffffffffffffffffffffffffff168152602001908152602001600020549050919050565b610ab0612471565b600560009054906101000a900473ffffffffffffffffffffffffffffffffffffffff1673ffffffffffffffffffffffffffffffffffffffff166108fc479081150290604051600060405180830381858888f19350505050158015610b18573d6000803e3d6000fd5b50565b610b23612471565b6000600460009054906101000a900473ffffffffffffffffffffffffffffffffffffffff1673ffffffffffffffffffffffffffffffffffffffff166370a08231306040518263ffffffff1660e01b8152600401610b8091906128f3565b602060405180830381865afa158015610b9d573d6000803e3d6000fd5b505050506040513d601f19601f82011682018060405250810190610bc19190612949565b905060008111610c06576040517f08c379a0000000000000000000000000000000000000000000000000000000008152600401610bfd90613284565b60405180910390fd5b600460009054906101000a900473ffffffffffffffffffffffffffffffffffffffff1673ffffffffffffffffffffffffffffffffffffffff1663a9059cbb600560009054906101000a900473ffffffffffffffffffffffffffffffffffffffff16600460009054906101000a900473ffffffffffffffffffffffffffffffffffffffff1673ffffffffffffffffffffffffffffffffffffffff166370a08231306040518263ffffffff1660e01b8152600401610cc291906128f3565b602060405180830381865afa158015610cdf573d6000803e3d6000fd5b505050506040513d601f19601f82011682018060405250810190610d039190612949565b6040518363ffffffff1660e01b8152600401610d20929190612d89565b6020604051808303816000875af1158015610d3f573d6000803e3d6000fd5b505050506040513d601f19601f82011682018060405250810190610d639190612dea565b610da2576040517f08c379a0000000000000000000000000000000000000000000000000000000008152600401610d99906132f0565b60405180910390fd5b50565b6000600360003373ffffffffffffffffffffffffffffffffffffffff1673ffffffffffffffffffffffffffffffffffffffff16815260200190815260200160002054905060008111610e2c576040517f08c379a0000000000000000000000000000000000000000000000000000000008152600401610e239061335c565b60405180910390fd5b80600160009054906101000a900473ffffffffffffffffffffffffffffffffffffffff1673ffffffffffffffffffffffffffffffffffffffff166370a08231306040518263ffffffff1660e01b8152600401610e8891906128f3565b602060405180830381865afa158015610ea5573d6000803e3d6000fd5b505050506040513d601f19601f82011682018060405250810190610ec99190612949565b11610f09576040517f08c379a0000000000000000000000000000000000000000000000000000000008152600401610f00906133c8565b60405180910390fd5b6000600360003373ffffffffffffffffffffffffffffffffffffffff1673ffffffffffffffffffffffffffffffffffffffff16815260200190815260200160002081905550600160009054906101000a900473ffffffffffffffffffffffffffffffffffffffff1673ffffffffffffffffffffffffffffffffffffffff1663a9059cbb33836040518363ffffffff1660e01b8152600401610fab929190612d89565b6020604051808303816000875af1158015610fca573d6000803e3d6000fd5b505050506040513d601f19601f82011682018060405250810190610fee9190612dea565b503373ffffffffffffffffffffffffffffffffffffffff167f2a016beab1c9536945a8f4c51b734f24f9d1458b765600efdabb6a3c52251e75826040516110359190612f05565b60405180910390a250565b600060149054906101000a900460ff16600260008373ffffffffffffffffffffffffffffffffffffffff1673ffffffffffffffffffffffffffffffffffffffff16815260200190815260200160002060006101000a81548160ff021916908360ff1602179055508073ffffffffffffffffffffffffffffffffffffffff167f53286125aa034acaf4eb8a0931fe01b25caceba942ab407c6ce09e1b0dfab58c60405160405180910390a250565b6110f5612471565b600073ffffffffffffffffffffffffffffffffffffffff168173ffffffffffffffffffffffffffffffffffffffff1603611164576040517f08c379a000000000000000000000000000000000000000000000000000000000815260040161115b9061345a565b60405180910390fd5b80600b60006101000a81548173ffffffffffffffffffffffffffffffffffffffff021916908373ffffffffffffffffffffffffffffffffffffffff16021790555050565b60026020528060005260406000206000915054906101000a900460ff1681565b600560009054906101000a900473ffffffffffffffffffffffffffffffffffffffff1681565b60065481565b600060149054906101000a900460ff1681565b61120f612471565b61121960006124f8565b565b600860009054906101000a900460ff161561126b576040517f08c379a000000000000000000000000000000000000000000000000000000000815260040161126290612892565b60405180910390fd5b6001600860006101000a81548160ff0219169083151502179055506000600160009054906101000a900473ffffffffffffffffffffffffffffffffffffffff1673ffffffffffffffffffffffffffffffffffffffff166370a08231306040518263ffffffff1660e01b81526004016112e391906128f3565b602060405180830381865afa158015611300573d6000803e3d6000fd5b505050506040513d601f19601f820116820180604052508101906113249190612949565b905060008111611369576040517f08c379a0000000000000000000000000000000000000000000000000000000008152600401611360906129e8565b60405180910390fd5b6000349050600081116113b1576040517f08c379a00000000000000000000000000000000000000000000000000000000081526004016113a890612a54565b60405180910390fd5b6000600b60009054906101000a900473ffffffffffffffffffffffffffffffffffffffff1673ffffffffffffffffffffffffffffffffffffffff1663feaf968c6040518163ffffffff1660e01b815260040160a060405180830381865afa158015611420573d6000803e3d6000fd5b505050506040513d601f19601f820116820180604052508101906114449190612aec565b5050509150506000600b60009054906101000a900473ffffffffffffffffffffffffffffffffffffffff1673ffffffffffffffffffffffffffffffffffffffff1663313ce5676040518163ffffffff1660e01b8152600401602060405180830381865afa1580156114b9573d6000803e3d6000fd5b505050506040513d601f19601f820116820180604052508101906114dd9190612ba0565b60ff169050600061150b82600a6114f49190612d2f565b6114fd856109b8565b610a0790919063ffffffff16565b9050611535606461152760075487610a1d90919063ffffffff16565b610a0790919063ffffffff16565b9350600160009054906101000a900473ffffffffffffffffffffffffffffffffffffffff1673ffffffffffffffffffffffffffffffffffffffff1663a9059cbb336115898488610a1d90919063ffffffff16565b6040518363ffffffff1660e01b81526004016115a6929190612d89565b6020604051808303816000875af11580156115c5573d6000803e3d6000fd5b505050506040513d601f19601f820116820180604052508101906115e99190612dea565b611628576040517f08c379a000000000000000000000000000000000000000000000000000000000815260040161161f90612e63565b60405180910390fd5b600073ffffffffffffffffffffffffffffffffffffffff168673ffffffffffffffffffffffffffffffffffffffff161461167a57611679866116738387610a1d90919063ffffffff16565b336125bc565b5b3373ffffffffffffffffffffffffffffffffffffffff167f8fafebcaf9d154343dad25669bfa277f4fbacd7ac6b0c4fed522580e040a0f33856116c68488610a1d90919063ffffffff16565b6040516116d4929190612e83565b60405180910390a250505050506000600860006101000a81548160ff02191690831515021790555050565b611707612471565b80600060146101000a81548160ff021916908360ff1602179055507f33bedb18f5997e509fda05045e1279f45fd9c53ef8cb47f4b170f74cc63bccac600060149054906101000a900460ff166040516117609190612f2f565b60405180910390a150565b60036020528060005260406000206000915090505481565b61178b612471565b6000600160009054906101000a900473ffffffffffffffffffffffffffffffffffffffff1673ffffffffffffffffffffffffffffffffffffffff166370a08231306040518263ffffffff1660e01b81526004016117e891906128f3565b602060405180830381865afa158015611805573d6000803e3d6000fd5b505050506040513d601f19601f820116820180604052508101906118299190612949565b90506000811161186e576040517f08c379a0000000000000000000000000000000000000000000000000000000008152600401611865906129e8565b60405180910390fd5b600160009054906101000a900473ffffffffffffffffffffffffffffffffffffffff1673ffffffffffffffffffffffffffffffffffffffff1663a9059cbb600560009054906101000a900473ffffffffffffffffffffffffffffffffffffffff16600160009054906101000a900473ffffffffffffffffffffffffffffffffffffffff1673ffffffffffffffffffffffffffffffffffffffff166370a08231306040518263ffffffff1660e01b815260040161192a91906128f3565b602060405180830381865afa158015611947573d6000803e3d6000fd5b505050506040513d601f19601f8201168201806040525081019061196b9190612949565b6040518363ffffffff1660e01b8152600401611988929190612d89565b6020604051808303816000875af11580156119a7573d6000803e3d6000fd5b505050506040513d601f19601f820116820180604052508101906119cb9190612dea565b611a0a576040517f08c379a0000000000000000000000000000000000000000000000000000000008152600401611a01906134c6565b60405180910390fd5b50565b60008060009054906101000a900473ffffffffffffffffffffffffffffffffffffffff16905090565b600460009054906101000a900473ffffffffffffffffffffffffffffffffffffffff1681565b6000600160009054906101000a900473ffffffffffffffffffffffffffffffffffffffff1673ffffffffffffffffffffffffffffffffffffffff166370a08231306040518263ffffffff1660e01b8152600401611ab991906128f3565b602060405180830381865afa158015611ad6573d6000803e3d6000fd5b505050506040513d601f19601f82011682018060405250810190611afa9190612949565b905060008111611b3f576040517f08c379a0000000000000000000000000000000000000000000000000000000008152600401611b36906129e8565b60405180910390fd5b6000600954600a611b509190612d2f565b600a54600a611b5f9190612d2f565b85611b6a91906131a1565b611b749190613170565b905060008411611bb9576040517f08c379a0000000000000000000000000000000000000000000000000000000008152600401611bb090613532565b60405180910390fd5b83600460009054906101000a900473ffffffffffffffffffffffffffffffffffffffff1673ffffffffffffffffffffffffffffffffffffffff166370a08231336040518263ffffffff1660e01b8152600401611c1591906128f3565b602060405180830381865afa158015611c32573d6000803e3d6000fd5b505050506040513d601f19601f82011682018060405250810190611c569190612949565b1015611c97576040517f08c379a0000000000000000000000000000000000000000000000000000000008152600401611c8e9061359e565b60405180910390fd5b83600460009054906101000a900473ffffffffffffffffffffffffffffffffffffffff1673ffffffffffffffffffffffffffffffffffffffff1663dd62ed3e33306040518363ffffffff1660e01b8152600401611cf59291906135be565b602060405180830381865afa158015611d12573d6000803e3d6000fd5b505050506040513d601f19601f82011682018060405250810190611d369190612949565b1015611d77576040517f08c379a0000000000000000000000000000000000000000000000000000000008152600401611d6e90613633565b60405180910390fd5b600460009054906101000a900473ffffffffffffffffffffffffffffffffffffffff1673ffffffffffffffffffffffffffffffffffffffff166323b872dd3330876040518463ffffffff1660e01b8152600401611dd693929190613653565b6020604051808303816000875af1158015611df5573d6000803e3d6000fd5b505050506040513d601f19601f82011682018060405250810190611e199190612dea565b611e58576040517f08c379a0000000000000000000000000000000000000000000000000000000008152600401611e4f906136d6565b60405180910390fd5b600160009054906101000a900473ffffffffffffffffffffffffffffffffffffffff1673ffffffffffffffffffffffffffffffffffffffff1663a9059cbb33836040518363ffffffff1660e01b8152600401611eb5929190612d89565b6020604051808303816000875af1158015611ed4573d6000803e3d6000fd5b505050506040513d601f19601f82011682018060405250810190611ef89190612dea565b611f37576040517f08c379a0000000000000000000000000000000000000000000000000000000008152600401611f2e90612e63565b60405180910390fd5b600073ffffffffffffffffffffffffffffffffffffffff168373ffffffffffffffffffffffffffffffffffffffff1614611f7757611f768382336125bc565b5b3373ffffffffffffffffffffffffffffffffffffffff167f8fafebcaf9d154343dad25669bfa277f4fbacd7ac6b0c4fed522580e040a0f338583604051611fbf929190612e83565b60405180910390a250505050565b611fd5612471565b60008111612018576040517f08c379a000000000000000000000000000000000000000000000000000000000815260040161200f90613768565b60405180910390fd5b8060078190555050565b6000600260008373ffffffffffffffffffffffffffffffffffffffff1673ffffffffffffffffffffffffffffffffffffffff16815260200190815260200160002060009054906101000a900460ff169050919050565b60075481565b612086612471565b600073ffffffffffffffffffffffffffffffffffffffff168173ffffffffffffffffffffffffffffffffffffffff16036120f85760006040517f1e4fbdf70000000000000000000000000000000000000000000000000000000081526004016120ef91906128f3565b60405180910390fd5b612101816124f8565b50565b61210c612471565b6000821161214f576040517f08c379a0000000000000000000000000000000000000000000000000000000008152600401612146906137fa565b60405180910390fd5b8073ffffffffffffffffffffffffffffffffffffffff168373ffffffffffffffffffffffffffffffffffffffff16036121bd576040517f08c379a00000000000000000000000000000000000000000000000000000000081526004016121b49061388c565b60405180910390fd5b6000600260008573ffffffffffffffffffffffffffffffffffffffff1673ffffffffffffffffffffffffffffffffffffffff16815260200190815260200160002060009054906101000a900460ff1660ff160361227c57600060149054906101000a900460ff16600260008573ffffffffffffffffffffffffffffffffffffffff1673ffffffffffffffffffffffffffffffffffffffff16815260200190815260200160002060006101000a81548160ff021916908360ff1602179055505b60006064600260008673ffffffffffffffffffffffffffffffffffffffff1673ffffffffffffffffffffffffffffffffffffffff16815260200190815260200160002060009054906101000a900460ff1660ff16846122db91906131a1565b6122e59190613170565b905080600360008673ffffffffffffffffffffffffffffffffffffffff1673ffffffffffffffffffffffffffffffffffffffff168152602001908152602001600020600082825461233691906138ac565b92505081905550600160009054906101000a900473ffffffffffffffffffffffffffffffffffffffff1673ffffffffffffffffffffffffffffffffffffffff1663a9059cbb83856040518363ffffffff1660e01b815260040161239a929190612d89565b6020604051808303816000875af11580156123b9573d6000803e3d6000fd5b505050506040513d601f19601f820116820180604052508101906123dd9190612dea565b508373ffffffffffffffffffffffffffffffffffffffff168273ffffffffffffffffffffffffffffffffffffffff167f5a1838523901c986595a2cf4484933f2c42d64a7bfc9b6d0c40cacb22379fa82858460405161243d929190612e83565b60405180910390a350505050565b600160009054906101000a900473ffffffffffffffffffffffffffffffffffffffff1681565b61247961282d565b73ffffffffffffffffffffffffffffffffffffffff16612497611a0d565b73ffffffffffffffffffffffffffffffffffffffff16146124f6576124ba61282d565b6040517f118cdaa70000000000000000000000000000000000000000000000000000000081526004016124ed91906128f3565b60405180910390fd5b565b60008060009054906101000a900473ffffffffffffffffffffffffffffffffffffffff169050816000806101000a81548173ffffffffffffffffffffffffffffffffffffffff021916908373ffffffffffffffffffffffffffffffffffffffff1602179055508173ffffffffffffffffffffffffffffffffffffffff168173ffffffffffffffffffffffffffffffffffffffff167f8be0079c531659141344cd1fd0a4f28419497f9722a3daafe3b4186f6b6457e060405160405180910390a35050565b600082116125ff576040517f08c379a00000000000000000000000000000000000000000000000000000000081526004016125f6906137fa565b60405180910390fd5b6000600260008573ffffffffffffffffffffffffffffffffffffffff1673ffffffffffffffffffffffffffffffffffffffff16815260200190815260200160002060009054906101000a900460ff1660ff1611612691576040517f08c379a00000000000000000000000000000000000000000000000000000000081526004016126889061392c565b60405180910390fd5b8073ffffffffffffffffffffffffffffffffffffffff168373ffffffffffffffffffffffffffffffffffffffff16036126ff576040517f08c379a00000000000000000000000000000000000000000000000000000000081526004016126f69061388c565b60405180910390fd5b60006064600260008673ffffffffffffffffffffffffffffffffffffffff1673ffffffffffffffffffffffffffffffffffffffff16815260200190815260200160002060009054906101000a900460ff1660ff168461275e91906131a1565b6127689190613170565b905080600360008673ffffffffffffffffffffffffffffffffffffffff1673ffffffffffffffffffffffffffffffffffffffff16815260200190815260200160002060008282546127b991906138ac565b925050819055508373ffffffffffffffffffffffffffffffffffffffff168273ffffffffffffffffffffffffffffffffffffffff167f5a1838523901c986595a2cf4484933f2c42d64a7bfc9b6d0c40cacb22379fa82858460405161281f929190612e83565b60405180910390a350505050565b600033905090565b600082825260208201905092915050565b7f5265656e7472616e637947756172643a207265656e7472616e742063616c6c00600082015250565b600061287c601f83612835565b915061288782612846565b602082019050919050565b600060208201905081810360008301526128ab8161286f565b9050919050565b600073ffffffffffffffffffffffffffffffffffffffff82169050919050565b60006128dd826128b2565b9050919050565b6128ed816128d2565b82525050565b600060208201905061290860008301846128e4565b92915050565b600080fd5b6000819050919050565b61292681612913565b811461293157600080fd5b50565b6000815190506129438161291d565b92915050565b60006020828403121561295f5761295e61290e565b5b600061296d84828501612934565b91505092915050565b7f43726f77646553616c653a20496e73756666696369656e7420746f6b656e206160008201527f6d6f756e74000000000000000000000000000000000000000000000000000000602082015250565b60006129d2602583612835565b91506129dd82612976565b604082019050919050565b60006020820190508181036000830152612a01816129c5565b9050919050565b7f43726f77646553616c653a204554482076616c75652063616e27742062652030600082015250565b6000612a3e602083612835565b9150612a4982612a08565b602082019050919050565b60006020820190508181036000830152612a6d81612a31565b9050919050565b600069ffffffffffffffffffff82169050919050565b612a9381612a74565b8114612a9e57600080fd5b50565b600081519050612ab081612a8a565b92915050565b6000819050919050565b612ac981612ab6565b8114612ad457600080fd5b50565b600081519050612ae681612ac0565b92915050565b600080600080600060a08688031215612b0857612b0761290e565b5b6000612b1688828901612aa1565b9550506020612b2788828901612ad7565b9450506040612b3888828901612934565b9350506060612b4988828901612934565b9250506080612b5a88828901612aa1565b9150509295509295909350565b600060ff82169050919050565b612b7d81612b67565b8114612b8857600080fd5b50565b600081519050612b9a81612b74565b92915050565b600060208284031215612bb657612bb561290e565b5b6000612bc484828501612b8b565b91505092915050565b7f4e487b7100000000000000000000000000000000000000000000000000000000600052601160045260246000fd5b60008160011c9050919050565b6000808291508390505b6001851115612c5357808604811115612c2f57612c2e612bcd565b5b6001851615612c3e5780820291505b8081029050612c4c85612bfc565b9450612c13565b94509492505050565b600082612c6c5760019050612d28565b81612c7a5760009050612d28565b8160018114612c905760028114612c9a57612cc9565b6001915050612d28565b60ff841115612cac57612cab612bcd565b5b8360020a915084821115612cc357612cc2612bcd565b5b50612d28565b5060208310610133831016604e8410600b8410161715612cfe5782820a905083811115612cf957612cf8612bcd565b5b612d28565b612d0b8484846001612c09565b92509050818404811115612d2257612d21612bcd565b5b81810290505b9392505050565b6000612d3a82612913565b9150612d4583612913565b9250612d727fffffffffffffffffffffffffffffffffffffffffffffffffffffffffffffffff8484612c5c565b905092915050565b612d8381612913565b82525050565b6000604082019050612d9e60008301856128e4565b612dab6020830184612d7a565b9392505050565b60008115159050919050565b612dc781612db2565b8114612dd257600080fd5b50565b600081519050612de481612dbe565b92915050565b600060208284031215612e0057612dff61290e565b5b6000612e0e84828501612dd5565b91505092915050565b7f546f6b656e207472616e73666572206661696c65640000000000000000000000600082015250565b6000612e4d601583612835565b9150612e5882612e17565b602082019050919050565b60006020820190508181036000830152612e7c81612e40565b9050919050565b6000604082019050612e986000830185612d7a565b612ea56020830184612d7a565b9392505050565b612eb5816128d2565b8114612ec057600080fd5b50565b600081359050612ed281612eac565b92915050565b600060208284031215612eee57612eed61290e565b5b6000612efc84828501612ec3565b91505092915050565b6000602082019050612f1a6000830184612d7a565b92915050565b612f2981612b67565b82525050565b6000602082019050612f446000830184612f20565b92915050565b600081359050612f5981612b74565b92915050565b600060208284031215612f7557612f7461290e565b5b6000612f8384828501612f4a565b91505092915050565b6000819050919050565b6000612fb1612fac612fa7846128b2565b612f8c565b6128b2565b9050919050565b6000612fc382612f96565b9050919050565b6000612fd582612fb8565b9050919050565b612fe581612fca565b82525050565b60006020820190506130006000830184612fdc565b92915050565b6000813590506130158161291d565b92915050565b600080604083850312156130325761303161290e565b5b600061304085828601613006565b925050602061305185828601612ec3565b9150509250929050565b6000602082840312156130715761307061290e565b5b600061307f84828501613006565b91505092915050565b6000806000606084860312156130a1576130a061290e565b5b60006130af86828701612ec3565b93505060206130c086828701613006565b92505060406130d186828701612ec3565b9150509250925092565b60006130e682612fb8565b9050919050565b6130f6816130db565b82525050565b600060208201905061311160008301846130ed565b92915050565b61312081612ab6565b82525050565b600060208201905061313b6000830184613117565b92915050565b7f4e487b7100000000000000000000000000000000000000000000000000000000600052601260045260246000fd5b600061317b82612913565b915061318683612913565b92508261319657613195613141565b5b828204905092915050565b60006131ac82612913565b91506131b783612913565b92508282026131c581612913565b915082820484148315176131dc576131db612bcd565b5b5092915050565b7f4e487b7100000000000000000000000000000000000000000000000000000000600052600160045260246000fd5b7f43726f77646553616c653a20496e73756666696369656e7420746f6b656e555360008201527f445420616d6f756e740000000000000000000000000000000000000000000000602082015250565b600061326e602983612835565b915061327982613212565b604082019050919050565b6000602082019050818103600083015261329d81613261565b9050919050565b7f55534454207769746864726177206661696c6564000000000000000000000000600082015250565b60006132da601483612835565b91506132e5826132a4565b602082019050919050565b60006020820190508181036000830152613309816132cd565b9050919050565b7f4e6f20636f6d6d697373696f6e20746f20776974686472617700000000000000600082015250565b6000613346601983612835565b915061335182613310565b602082019050919050565b6000602082019050818103600083015261337581613339565b9050919050565b7f496e7375666669636e657420636f6e74726163742062616c616e636500000000600082015250565b60006133b2601c83612835565b91506133bd8261337c565b602082019050919050565b600060208201905081810360008301526133e1816133a5565b9050919050565b7f41676772656761746f722061646472657373206d757374206265206e6f74207a60008201527f65726f2061646472657373000000000000000000000000000000000000000000602082015250565b6000613444602b83612835565b915061344f826133e8565b604082019050919050565b6000602082019050818103600083015261347381613437565b9050919050565b7f546f6b656e207769746864726177206661696c65640000000000000000000000600082015250565b60006134b0601583612835565b91506134bb8261347a565b602082019050919050565b600060208201905081810360008301526134df816134a3565b9050919050565b7f416d6f756e74206d7573742062652067726561746572207468616e207a65726f600082015250565b600061351c602083612835565b9150613527826134e6565b602082019050919050565b6000602082019050818103600083015261354b8161350f565b9050919050565b7f496e73756666696369656e742062616c616e6365000000000000000000000000600082015250565b6000613588601483612835565b915061359382613552565b602082019050919050565b600060208201905081810360008301526135b78161357b565b9050919050565b60006040820190506135d360008301856128e4565b6135e060208301846128e4565b9392505050565b7f696e73756666696369656e7420416c6c6f77616e636500000000000000000000600082015250565b600061361d601683612835565b9150613628826135e7565b602082019050919050565b6000602082019050818103600083015261364c81613610565b9050919050565b600060608201905061366860008301866128e4565b61367560208301856128e4565b6136826040830184612d7a565b949350505050565b7f55534454207472616e73666572206661696c6564000000000000000000000000600082015250565b60006136c0601483612835565b91506136cb8261368a565b602082019050919050565b600060208201905081810360008301526136ef816136b3565b9050919050565b7f526566657272616c2072617465206d757374206265206772656174657220746860008201527f616e207a65726f00000000000000000000000000000000000000000000000000602082015250565b6000613752602783612835565b915061375d826136f6565b604082019050919050565b6000602082019050818103600083015261378181613745565b9050919050565b7f50757263686173652076616c7565206d7573742062652067726561746572207460008201527f68616e2030000000000000000000000000000000000000000000000000000000602082015250565b60006137e4602583612835565b91506137ef82613788565b604082019050919050565b60006020820190508181036000830152613813816137d7565b9050919050565b7f416666696c696174652063616e6e6f74206265207468652073616d652061732060008201527f637573746f6d6572000000000000000000000000000000000000000000000000602082015250565b6000613876602883612835565b91506138818261381a565b604082019050919050565b600060208201905081810360008301526138a581613869565b9050919050565b60006138b782612913565b91506138c283612913565b92508282019050808211156138da576138d9612bcd565b5b92915050565b7f496e76616c696420616666696c69617465000000000000000000000000000000600082015250565b6000613916601183612835565b9150613921826138e0565b602082019050919050565b6000602082019050818103600083015261394581613909565b905091905056fea264697066735822122023114e8ebeff91b41946cb8c49d6d7c5ce037b7491a38e07e2a45f33409d5a4064736f6c63430008180033",
  "linkReferences": {},
  "deployedLinkReferences": {}
}