{
  "_format": "hh-sol-artifact-1",
  "contractName": "StakingAndDivident",
  "sourceName": "contracts/StakingAndDivident.sol",
  "abi": [
    {
      "inputs": [
        {
          "internalType": "contract IERC20",
          "name": "_usdtToken",
          "type": "address"
        },
        {
          "internalType": "address",
          "name": "_tokenAddress",
          "type": "address"
        },
        {
          "internalType": "uint256",
          "name": "_StakingRewardRate",
          "type": "uint256"
        },
        {
          "internalType": "uint256",
          "name": "_lockinTime",
          "type": "uint256"
        }
      ],
      "stateMutability": "nonpayable",
      "type": "constructor"
    },
    {
      "inputs": [
        {
          "internalType": "address",
          "name": "owner",
          "type": "address"
        }
      ],
      "name": "OwnableInvalidOwner",
      "type": "error"
    },
    {
      "inputs": [
        {
          "internalType": "address",
          "name": "account",
          "type": "address"
        }
      ],
      "name": "OwnableUnauthorizedAccount",
      "type": "error"
    },
    {
      "anonymous": false,
      "inputs": [
        {
          "indexed": true,
          "internalType": "address",
          "name": "user",
          "type": "address"
        },
        {
          "indexed": false,
          "internalType": "uint256",
          "name": "amount",
          "type": "uint256"
        },
        {
          "indexed": false,
          "internalType": "uint256",
          "name": "reward",
          "type": "uint256"
        }
      ],
      "name": "ClaimDivident",
      "type": "event"
    },
    {
      "anonymous": false,
      "inputs": [
        {
          "indexed": true,
          "internalType": "address",
          "name": "previousOwner",
          "type": "address"
        },
        {
          "indexed": true,
          "internalType": "address",
          "name": "newOwner",
          "type": "address"
        }
      ],
      "name": "OwnershipTransferred",
      "type": "event"
    },
    {
      "anonymous": false,
      "inputs": [
        {
          "indexed": true,
          "internalType": "address",
          "name": "user",
          "type": "address"
        },
        {
          "indexed": false,
          "internalType": "uint256",
          "name": "amount",
          "type": "uint256"
        }
      ],
      "name": "Staked",
      "type": "event"
    },
    {
      "anonymous": false,
      "inputs": [
        {
          "indexed": true,
          "internalType": "address",
          "name": "user",
          "type": "address"
        },
        {
          "indexed": false,
          "internalType": "uint256",
          "name": "amount",
          "type": "uint256"
        },
        {
          "indexed": false,
          "internalType": "uint256",
          "name": "reward",
          "type": "uint256"
        }
      ],
      "name": "Unstaked",
      "type": "event"
    },
    {
      "inputs": [],
      "name": "LOCKIN_TIME",
      "outputs": [
        {
          "internalType": "uint256",
          "name": "",
          "type": "uint256"
        }
      ],
      "stateMutability": "view",
      "type": "function"
    },
    {
      "inputs": [],
      "name": "REWARD_RATE",
      "outputs": [
        {
          "internalType": "uint256",
          "name": "",
          "type": "uint256"
        }
      ],
      "stateMutability": "view",
      "type": "function"
    },
    {
      "inputs": [
        {
          "internalType": "address",
          "name": "_user",
          "type": "address"
        },
        {
          "internalType": "uint256",
          "name": "_index",
          "type": "uint256"
        }
      ],
      "name": "calculateDividentReward",
      "outputs": [
        {
          "internalType": "uint256",
          "name": "",
          "type": "uint256"
        }
      ],
      "stateMutability": "view",
      "type": "function"
    },
    {
      "inputs": [
        {
          "internalType": "address",
          "name": "_user",
          "type": "address"
        },
        {
          "internalType": "uint256",
          "name": "_index",
          "type": "uint256"
        }
      ],
      "name": "calculateReward",
      "outputs": [
        {
          "internalType": "uint256",
          "name": "",
          "type": "uint256"
        }
      ],
      "stateMutability": "view",
      "type": "function"
    },
    {
      "inputs": [
        {
          "internalType": "uint256",
          "name": "_index",
          "type": "uint256"
        }
      ],
      "name": "claimDivident",
      "outputs": [],
      "stateMutability": "nonpayable",
      "type": "function"
    },
    {
      "inputs": [],
      "name": "owner",
      "outputs": [
        {
          "internalType": "address",
          "name": "",
          "type": "address"
        }
      ],
      "stateMutability": "view",
      "type": "function"
    },
    {
      "inputs": [],
      "name": "renounceOwnership",
      "outputs": [],
      "stateMutability": "nonpayable",
      "type": "function"
    },
    {
      "inputs": [
        {
          "internalType": "uint256",
          "name": "_newLockInTime",
          "type": "uint256"
        }
      ],
      "name": "setLockInTime",
      "outputs": [],
      "stateMutability": "nonpayable",
      "type": "function"
    },
    {
      "inputs": [
        {
          "internalType": "uint256",
          "name": "_newRate",
          "type": "uint256"
        }
      ],
      "name": "setRewardRate",
      "outputs": [],
      "stateMutability": "nonpayable",
      "type": "function"
    },
    {
      "inputs": [
        {
          "internalType": "uint256",
          "name": "_amount",
          "type": "uint256"
        }
      ],
      "name": "stake",
      "outputs": [],
      "stateMutability": "nonpayable",
      "type": "function"
    },
    {
      "inputs": [
        {
          "internalType": "address",
          "name": "",
          "type": "address"
        },
        {
          "internalType": "uint256",
          "name": "",
          "type": "uint256"
        }
      ],
      "name": "stakedAmounts",
      "outputs": [
        {
          "internalType": "uint256",
          "name": "amount",
          "type": "uint256"
        },
        {
          "internalType": "uint256",
          "name": "addTime",
          "type": "uint256"
        },
        {
          "internalType": "uint256",
          "name": "lastUpdateTime",
          "type": "uint256"
        }
      ],
      "stateMutability": "view",
      "type": "function"
    },
    {
      "inputs": [],
      "name": "token",
      "outputs": [
        {
          "internalType": "contract IERC20",
          "name": "",
          "type": "address"
        }
      ],
      "stateMutability": "view",
      "type": "function"
    },
    {
      "inputs": [
        {
          "internalType": "address",
          "name": "newOwner",
          "type": "address"
        }
      ],
      "name": "transferOwnership",
      "outputs": [],
      "stateMutability": "nonpayable",
      "type": "function"
    },
    {
      "inputs": [
        {
          "internalType": "uint256",
          "name": "_index",
          "type": "uint256"
        }
      ],
      "name": "unstake",
      "outputs": [],
      "stateMutability": "nonpayable",
      "type": "function"
    },
    {
      "inputs": [],
      "name": "usdtToken",
      "outputs": [
        {
          "internalType": "contract IERC20",
          "name": "",
          "type": "address"
        }
      ],
      "stateMutability": "view",
      "type": "function"
    },
    {
      "inputs": [
        {
          "internalType": "address",
          "name": "_to",
          "type": "address"
        }
      ],
      "name": "withdrawEther",
      "outputs": [],
      "stateMutability": "nonpayable",
      "type": "function"
    },
    {
      "inputs": [
        {
          "internalType": "address",
          "name": "_to",
          "type": "address"
        }
      ],
      "name": "withdrawUsdt",
      "outputs": [],
      "stateMutability": "nonpayable",
      "type": "function"
    }
  ],
  "bytecode": "0x60806040523480156200001157600080fd5b50604051620028273803806200282783398181016040528101906200003791906200030d565b82828233600073ffffffffffffffffffffffffffffffffffffffff168173ffffffffffffffffffffffffffffffffffffffff1603620000b05760006040517f1e4fbdf7000000000000000000000000000000000000000000000000000000008152600401620000a7919062000390565b60405180910390fd5b620000c1816200015f60201b60201c565b5082600160006101000a81548173ffffffffffffffffffffffffffffffffffffffff021916908373ffffffffffffffffffffffffffffffffffffffff160217905550816003819055508060048190555050505083600260006101000a81548173ffffffffffffffffffffffffffffffffffffffff021916908373ffffffffffffffffffffffffffffffffffffffff16021790555050505050620003ad565b60008060009054906101000a900473ffffffffffffffffffffffffffffffffffffffff169050816000806101000a81548173ffffffffffffffffffffffffffffffffffffffff021916908373ffffffffffffffffffffffffffffffffffffffff1602179055508173ffffffffffffffffffffffffffffffffffffffff168173ffffffffffffffffffffffffffffffffffffffff167f8be0079c531659141344cd1fd0a4f28419497f9722a3daafe3b4186f6b6457e060405160405180910390a35050565b600080fd5b600073ffffffffffffffffffffffffffffffffffffffff82169050919050565b6000620002558262000228565b9050919050565b6000620002698262000248565b9050919050565b6200027b816200025c565b81146200028757600080fd5b50565b6000815190506200029b8162000270565b92915050565b620002ac8162000248565b8114620002b857600080fd5b50565b600081519050620002cc81620002a1565b92915050565b6000819050919050565b620002e781620002d2565b8114620002f357600080fd5b50565b6000815190506200030781620002dc565b92915050565b600080600080608085870312156200032a576200032962000223565b5b60006200033a878288016200028a565b94505060206200034d87828801620002bb565b93505060406200036087828801620002f6565b92505060606200037387828801620002f6565b91505092959194509250565b6200038a8162000248565b82525050565b6000602082019050620003a760008301846200037f565b92915050565b61246a80620003bd6000396000f3fe608060405234801561001057600080fd5b506004361061010b5760003560e01c80639e447fc6116100a2578063af933b5711610071578063af933b5714610294578063d4118876146102b0578063e9ba9295146102cc578063f2fde38b146102e8578063fc0c546a146103045761010b565b80639e447fc61461020e578063a547ee941461022a578063a694fc3a1461025a578063a98ad46c146102765761010b565b8063516d2751116100de578063516d2751146101aa5780635997bb37146101c8578063715018a6146101e65780638da5cb5b146101f05761010b565b80631852e8d9146101105780631a9ffd6a146101405780631b6eb1bc1461015c5780632e17de781461018e575b600080fd5b61012a60048036038101906101259190611953565b610322565b60405161013791906119a2565b60405180910390f35b61015a600480360381019061015591906119bd565b610479565b005b61017660048036038101906101719190611953565b6107eb565b604051610185939291906119ea565b60405180910390f35b6101a860048036038101906101a391906119bd565b610832565b005b6101b2610b6e565b6040516101bf91906119a2565b60405180910390f35b6101d0610b74565b6040516101dd91906119a2565b60405180910390f35b6101ee610b7a565b005b6101f8610b8e565b6040516102059190611a30565b60405180910390f35b610228600480360381019061022391906119bd565b610bb7565b005b610244600480360381019061023f9190611953565b610c0c565b60405161025191906119a2565b60405180910390f35b610274600480360381019061026f91906119bd565b610d04565b005b61027e61109c565b60405161028b9190611aaa565b60405180910390f35b6102ae60048036038101906102a99190611ac5565b6110c2565b005b6102ca60048036038101906102c59190611ac5565b6111bd565b005b6102e660048036038101906102e191906119bd565b6113e2565b005b61030260048036038101906102fd9190611ac5565b611438565b005b61030c6114be565b6040516103199190611aaa565b60405180910390f35b600080600560008573ffffffffffffffffffffffffffffffffffffffff1673ffffffffffffffffffffffffffffffffffffffff168152602001908152602001600020838154811061037657610375611af2565b5b90600052602060002090600302016000015490506000610401600560008773ffffffffffffffffffffffffffffffffffffffff1673ffffffffffffffffffffffffffffffffffffffff16815260200190815260200160002085815481106103e0576103df611af2565b5b906000526020600020906003020160010154426114e490919063ffffffff16565b915050600061041b6003548461150c90919063ffffffff16565b9150506000610433838361150c90919063ffffffff16565b915050600061044c60648361155f90919063ffffffff16565b915050600061046762093a808361155f90919063ffffffff16565b91505080965050505050505092915050565b6000600560003373ffffffffffffffffffffffffffffffffffffffff1673ffffffffffffffffffffffffffffffffffffffff16815260200190815260200160002082815481106104cc576104cb611af2565b5b906000526020600020906003020160405180606001604052908160008201548152602001600182015481526020016002820154815250509050600081600001511161054c576040517f08c379a000000000000000000000000000000000000000000000000000000000815260040161054390611b7e565b60405180910390fd5b42600454826040015161055f9190611bcd565b11156105a0576040517f08c379a000000000000000000000000000000000000000000000000000000000815260040161059790611c4d565b60405180910390fd5b60006105aa611595565b905080600260009054906101000a900473ffffffffffffffffffffffffffffffffffffffff1673ffffffffffffffffffffffffffffffffffffffff166370a08231306040518263ffffffff1660e01b81526004016106089190611a30565b602060405180830381865afa158015610625573d6000803e3d6000fd5b505050506040513d601f19601f820116820180604052508101906106499190611c82565b101561068a576040517f08c379a000000000000000000000000000000000000000000000000000000000815260040161068190611d21565b60405180910390fd5b600260009054906101000a900473ffffffffffffffffffffffffffffffffffffffff1673ffffffffffffffffffffffffffffffffffffffff1663a9059cbb33836040518363ffffffff1660e01b81526004016106e7929190611d41565b6020604051808303816000875af1158015610706573d6000803e3d6000fd5b505050506040513d601f19601f8201168201806040525081019061072a9190611da2565b5042600560003373ffffffffffffffffffffffffffffffffffffffff1673ffffffffffffffffffffffffffffffffffffffff168152602001908152602001600020848154811061077d5761077c611af2565b5b9060005260206000209060030201600201819055503373ffffffffffffffffffffffffffffffffffffffff167fceea4b483947956cb965d52148d35fc279caac2be35d1461c5db5522ab5cdc398360000151836040516107de929190611dcf565b60405180910390a2505050565b6005602052816000526040600020818154811061080757600080fd5b9060005260206000209060030201600091509150508060000154908060010154908060020154905083565b6000600560003373ffffffffffffffffffffffffffffffffffffffff1673ffffffffffffffffffffffffffffffffffffffff168152602001908152602001600020828154811061088557610884611af2565b5b90600052602060002090600302016000015490506000600560003373ffffffffffffffffffffffffffffffffffffffff1673ffffffffffffffffffffffffffffffffffffffff16815260200190815260200160002083815481106108ec576108eb611af2565b5b906000526020600020906003020160010154905060008211610943576040517f08c379a000000000000000000000000000000000000000000000000000000000815260040161093a90611e44565b60405180910390fd5b42600454826109529190611bcd565b1115610993576040517f08c379a000000000000000000000000000000000000000000000000000000000815260040161098a90611eb0565b60405180910390fd5b600082116109d6576040517f08c379a00000000000000000000000000000000000000000000000000000000081526004016109cd90611f1c565b60405180910390fd5b60006109e23385610322565b905060006109f9828561173890919063ffffffff16565b915050600560003373ffffffffffffffffffffffffffffffffffffffff1673ffffffffffffffffffffffffffffffffffffffff1681526020019081526020016000208581548110610a4d57610a4c611af2565b5b9060005260206000209060030201600080820160009055600182016000905560028201600090555050600160009054906101000a900473ffffffffffffffffffffffffffffffffffffffff1673ffffffffffffffffffffffffffffffffffffffff1663a9059cbb33836040518363ffffffff1660e01b8152600401610ad3929190611d41565b6020604051808303816000875af1158015610af2573d6000803e3d6000fd5b505050506040513d601f19601f82011682018060405250810190610b169190611da2565b503373ffffffffffffffffffffffffffffffffffffffff167f7fc4727e062e336010f2c282598ef5f14facb3de68cf8195c2f23e1454b2b74e8584604051610b5f929190611dcf565b60405180910390a25050505050565b60045481565b60035481565b610b82611767565b610b8c60006117ee565b565b60008060009054906101000a900473ffffffffffffffffffffffffffffffffffffffff16905090565b610bbf611767565b60008111610c02576040517f08c379a0000000000000000000000000000000000000000000000000000000008152600401610bf990611fae565b60405180910390fd5b8060038190555050565b600080600560008573ffffffffffffffffffffffffffffffffffffffff1673ffffffffffffffffffffffffffffffffffffffff1681526020019081526020016000208381548110610c6057610c5f611af2565b5b906000526020600020906003020160405180606001604052908160008201548152602001600182015481526020016002820154815250509050426004548260400151610cac9190611bcd565b1115610ced576040517f08c379a0000000000000000000000000000000000000000000000000000000008152600401610ce490611c4d565b60405180910390fd5b6000610cf7611595565b9050809250505092915050565b60008111610d47576040517f08c379a0000000000000000000000000000000000000000000000000000000008152600401610d3e9061201a565b60405180910390fd5b80600160009054906101000a900473ffffffffffffffffffffffffffffffffffffffff1673ffffffffffffffffffffffffffffffffffffffff166370a08231336040518263ffffffff1660e01b8152600401610da39190611a30565b602060405180830381865afa158015610dc0573d6000803e3d6000fd5b505050506040513d601f19601f82011682018060405250810190610de49190611c82565b1015610e25576040517f08c379a0000000000000000000000000000000000000000000000000000000008152600401610e1c90612086565b60405180910390fd5b80600160009054906101000a900473ffffffffffffffffffffffffffffffffffffffff1673ffffffffffffffffffffffffffffffffffffffff1663dd62ed3e33306040518363ffffffff1660e01b8152600401610e839291906120a6565b602060405180830381865afa158015610ea0573d6000803e3d6000fd5b505050506040513d601f19601f82011682018060405250810190610ec49190611c82565b1015610f05576040517f08c379a0000000000000000000000000000000000000000000000000000000008152600401610efc9061211b565b60405180910390fd5b600160009054906101000a900473ffffffffffffffffffffffffffffffffffffffff1673ffffffffffffffffffffffffffffffffffffffff166323b872dd3330846040518463ffffffff1660e01b8152600401610f649392919061213b565b6020604051808303816000875af1158015610f83573d6000803e3d6000fd5b505050506040513d601f19601f82011682018060405250810190610fa79190611da2565b50600560003373ffffffffffffffffffffffffffffffffffffffff1673ffffffffffffffffffffffffffffffffffffffff168152602001908152602001600020604051806060016040528083815260200142815260200142815250908060018154018082558091505060019003906000526020600020906003020160009091909190915060008201518160000155602082015181600101556040820151816002015550503373ffffffffffffffffffffffffffffffffffffffff167f9e71bc8eea02a63969f509818f2dafb9254532904319f9dbda79b67bd34a5f3d8260405161109191906119a2565b60405180910390a250565b600260009054906101000a900473ffffffffffffffffffffffffffffffffffffffff1681565b6110ca611767565b6000471161110d576040517f08c379a0000000000000000000000000000000000000000000000000000000008152600401611104906121be565b60405180910390fd5b60008173ffffffffffffffffffffffffffffffffffffffff16476040516111339061220f565b60006040518083038185875af1925050503d8060008114611170576040519150601f19603f3d011682016040523d82523d6000602084013e611175565b606091505b50509050806111b9576040517f08c379a00000000000000000000000000000000000000000000000000000000081526004016111b090612270565b60405180910390fd5b5050565b6111c5611767565b6000600260009054906101000a900473ffffffffffffffffffffffffffffffffffffffff1673ffffffffffffffffffffffffffffffffffffffff166370a08231306040518263ffffffff1660e01b81526004016112229190611a30565b602060405180830381865afa15801561123f573d6000803e3d6000fd5b505050506040513d601f19601f820116820180604052508101906112639190611c82565b116112a3576040517f08c379a000000000000000000000000000000000000000000000000000000000815260040161129a906122dc565b60405180910390fd5b600260009054906101000a900473ffffffffffffffffffffffffffffffffffffffff1673ffffffffffffffffffffffffffffffffffffffff1663a9059cbb82600260009054906101000a900473ffffffffffffffffffffffffffffffffffffffff1673ffffffffffffffffffffffffffffffffffffffff166370a08231306040518263ffffffff1660e01b815260040161133d9190611a30565b602060405180830381865afa15801561135a573d6000803e3d6000fd5b505050506040513d601f19601f8201168201806040525081019061137e9190611c82565b6040518363ffffffff1660e01b815260040161139b929190611d41565b6020604051808303816000875af11580156113ba573d6000803e3d6000fd5b505050506040513d601f19601f820116820180604052508101906113de9190611da2565b5050565b6113ea611767565b600081101561142e576040517f08c379a000000000000000000000000000000000000000000000000000000000815260040161142590612348565b60405180910390fd5b8060048190555050565b611440611767565b600073ffffffffffffffffffffffffffffffffffffffff168173ffffffffffffffffffffffffffffffffffffffff16036114b25760006040517f1e4fbdf70000000000000000000000000000000000000000000000000000000081526004016114a99190611a30565b60405180910390fd5b6114bb816117ee565b50565b600160009054906101000a900473ffffffffffffffffffffffffffffffffffffffff1681565b600080838311156114fb5760008091509150611505565b6001838503915091505b9250929050565b60008060008403611524576001600091509150611558565b600083850290508385828161153c5761153b612368565b5b041461154f576000809250925050611558565b60018192509250505b9250929050565b60008060008303611576576000809150915061158e565b600183858161158857611587612368565b5b04915091505b9250929050565b6000804790506000600260009054906101000a900473ffffffffffffffffffffffffffffffffffffffff1673ffffffffffffffffffffffffffffffffffffffff166370a08231306040518263ffffffff1660e01b81526004016115f89190611a30565b602060405180830381865afa158015611615573d6000803e3d6000fd5b505050506040513d601f19601f820116820180604052508101906116399190611c82565b90506000600160009054906101000a900473ffffffffffffffffffffffffffffffffffffffff1673ffffffffffffffffffffffffffffffffffffffff166318160ddd6040518163ffffffff1660e01b8152600401602060405180830381865afa1580156116aa573d6000803e3d6000fd5b505050506040513d601f19601f820116820180604052508101906116ce9190611c82565b905060008184846116df9190611bcd565b6116e99190612397565b90506000811161172e576040517f08c379a000000000000000000000000000000000000000000000000000000000815260040161172590612414565b60405180910390fd5b8094505050505090565b6000806000838501905084811015611757576000809250925050611760565b60018192509250505b9250929050565b61176f6118b2565b73ffffffffffffffffffffffffffffffffffffffff1661178d610b8e565b73ffffffffffffffffffffffffffffffffffffffff16146117ec576117b06118b2565b6040517f118cdaa70000000000000000000000000000000000000000000000000000000081526004016117e39190611a30565b60405180910390fd5b565b60008060009054906101000a900473ffffffffffffffffffffffffffffffffffffffff169050816000806101000a81548173ffffffffffffffffffffffffffffffffffffffff021916908373ffffffffffffffffffffffffffffffffffffffff1602179055508173ffffffffffffffffffffffffffffffffffffffff168173ffffffffffffffffffffffffffffffffffffffff167f8be0079c531659141344cd1fd0a4f28419497f9722a3daafe3b4186f6b6457e060405160405180910390a35050565b600033905090565b600080fd5b600073ffffffffffffffffffffffffffffffffffffffff82169050919050565b60006118ea826118bf565b9050919050565b6118fa816118df565b811461190557600080fd5b50565b600081359050611917816118f1565b92915050565b6000819050919050565b6119308161191d565b811461193b57600080fd5b50565b60008135905061194d81611927565b92915050565b6000806040838503121561196a576119696118ba565b5b600061197885828601611908565b92505060206119898582860161193e565b9150509250929050565b61199c8161191d565b82525050565b60006020820190506119b76000830184611993565b92915050565b6000602082840312156119d3576119d26118ba565b5b60006119e18482850161193e565b91505092915050565b60006060820190506119ff6000830186611993565b611a0c6020830185611993565b611a196040830184611993565b949350505050565b611a2a816118df565b82525050565b6000602082019050611a456000830184611a21565b92915050565b6000819050919050565b6000611a70611a6b611a66846118bf565b611a4b565b6118bf565b9050919050565b6000611a8282611a55565b9050919050565b6000611a9482611a77565b9050919050565b611aa481611a89565b82525050565b6000602082019050611abf6000830184611a9b565b92915050565b600060208284031215611adb57611ada6118ba565b5b6000611ae984828501611908565b91505092915050565b7f4e487b7100000000000000000000000000000000000000000000000000000000600052603260045260246000fd5b600082825260208201905092915050565b7f4e6f207374616b6520617661696c61626c650000000000000000000000000000600082015250565b6000611b68601283611b21565b9150611b7382611b32565b602082019050919050565b60006020820190508181036000830152611b9781611b5b565b9050919050565b7f4e487b7100000000000000000000000000000000000000000000000000000000600052601160045260246000fd5b6000611bd88261191d565b9150611be38361191d565b9250828201905080821115611bfb57611bfa611b9e565b5b92915050565b7f4c6f636b2074696d65206973206e6f74206f7665720000000000000000000000600082015250565b6000611c37601583611b21565b9150611c4282611c01565b602082019050919050565b60006020820190508181036000830152611c6681611c2a565b9050919050565b600081519050611c7c81611927565b92915050565b600060208284031215611c9857611c976118ba565b5b6000611ca684828501611c6d565b91505092915050565b7f4e6f7420656e6f7567682062616c616e636520746f2070726f7669646520646960008201527f766964656e740000000000000000000000000000000000000000000000000000602082015250565b6000611d0b602683611b21565b9150611d1682611caf565b604082019050919050565b60006020820190508181036000830152611d3a81611cfe565b9050919050565b6000604082019050611d566000830185611a21565b611d636020830184611993565b9392505050565b60008115159050919050565b611d7f81611d6a565b8114611d8a57600080fd5b50565b600081519050611d9c81611d76565b92915050565b600060208284031215611db857611db76118ba565b5b6000611dc684828501611d8d565b91505092915050565b6000604082019050611de46000830185611993565b611df16020830184611993565b9392505050565b7f496e73756666696369656e7420616d6f757420746f2077697468647261770000600082015250565b6000611e2e601e83611b21565b9150611e3982611df8565b602082019050919050565b60006020820190508181036000830152611e5d81611e21565b9050919050565b7f4c6f636b20696e20706572696f64206e6f7420636f6d706c6561746564000000600082015250565b6000611e9a601d83611b21565b9150611ea582611e64565b602082019050919050565b60006020820190508181036000830152611ec981611e8d565b9050919050565b7f4e6f20746f6b656e73207374616b656400000000000000000000000000000000600082015250565b6000611f06601083611b21565b9150611f1182611ed0565b602082019050919050565b60006020820190508181036000830152611f3581611ef9565b9050919050565b7f5265776172642072617465206d7573742062652067726561746572207468616e60008201527f207a65726f000000000000000000000000000000000000000000000000000000602082015250565b6000611f98602583611b21565b9150611fa382611f3c565b604082019050919050565b60006020820190508181036000830152611fc781611f8b565b9050919050565b7f416d6f756e74206d7573742062652067726561746572207468616e207a65726f600082015250565b6000612004602083611b21565b915061200f82611fce565b602082019050919050565b6000602082019050818103600083015261203381611ff7565b9050919050565b7f496e73756666696369656e742062616c616e6365000000000000000000000000600082015250565b6000612070601483611b21565b915061207b8261203a565b602082019050919050565b6000602082019050818103600083015261209f81612063565b9050919050565b60006040820190506120bb6000830185611a21565b6120c86020830184611a21565b9392505050565b7f696e73756666696369656e7420416c6c6f77616e636500000000000000000000600082015250565b6000612105601683611b21565b9150612110826120cf565b602082019050919050565b60006020820190508181036000830152612134816120f8565b9050919050565b60006060820190506121506000830186611a21565b61215d6020830185611a21565b61216a6040830184611993565b949350505050565b7f4e6f20457468657220617661696c61626c6520746f2077697468647261770000600082015250565b60006121a8601e83611b21565b91506121b382612172565b602082019050919050565b600060208201905081810360008301526121d78161219b565b9050919050565b600081905092915050565b50565b60006121f96000836121de565b9150612204826121e9565b600082019050919050565b600061221a826121ec565b9150819050919050565b7f5472616e73666572206661696c65640000000000000000000000000000000000600082015250565b600061225a600f83611b21565b915061226582612224565b602082019050919050565b600060208201905081810360008301526122898161224d565b9050919050565b7f4e6f20546f6b656e617661696c61626c6520746f207769746864726177000000600082015250565b60006122c6601d83611b21565b91506122d182612290565b602082019050919050565b600060208201905081810360008301526122f5816122b9565b9050919050565b7f4c6f636b20696e2074696d652063616e6e6f74206265206e6567617469766500600082015250565b6000612332601f83611b21565b915061233d826122fc565b602082019050919050565b6000602082019050818103600083015261236181612325565b9050919050565b7f4e487b7100000000000000000000000000000000000000000000000000000000600052601260045260246000fd5b60006123a28261191d565b91506123ad8361191d565b9250826123bd576123bc612368565b5b828204905092915050565b7f4469766964656e74206973203000000000000000000000000000000000000000600082015250565b60006123fe600d83611b21565b9150612409826123c8565b602082019050919050565b6000602082019050818103600083015261242d816123f1565b905091905056fea2646970667358221220f5dc9aa5f850f8610a2df2a4d07f805e51f2567c83c0e5b3a7506a62b9a78da264736f6c63430008180033",
  "linkReferences": {},
  "deployedLinkReferences": {}
}