{
  "_format": "hh-sol-artifact-1",
  "contractName": "TokenStaking",
  "sourceName": "contracts/Staking.sol",
  "abi": [
    {
      "inputs": [
        {
          "internalType": "address",
          "name": "_tokenAddress",
          "type": "address"
        },
        {
          "internalType": "uint256",
          "name": "_rewardRate",
          "type": "uint256"
        },
        {
          "internalType": "uint256",
          "name": "_lockinTime",
          "type": "uint256"
        }
      ],
      "stateMutability": "nonpayable",
      "type": "constructor"
    },
    {
      "inputs": [
        {
          "internalType": "address",
          "name": "owner",
          "type": "address"
        }
      ],
      "name": "OwnableInvalidOwner",
      "type": "error"
    },
    {
      "inputs": [
        {
          "internalType": "address",
          "name": "account",
          "type": "address"
        }
      ],
      "name": "OwnableUnauthorizedAccount",
      "type": "error"
    },
    {
      "anonymous": false,
      "inputs": [
        {
          "indexed": true,
          "internalType": "address",
          "name": "user",
          "type": "address"
        },
        {
          "indexed": false,
          "internalType": "uint256",
          "name": "amount",
          "type": "uint256"
        },
        {
          "indexed": false,
          "internalType": "uint256",
          "name": "reward",
          "type": "uint256"
        }
      ],
      "name": "ClaimDivident",
      "type": "event"
    },
    {
      "anonymous": false,
      "inputs": [
        {
          "indexed": true,
          "internalType": "address",
          "name": "previousOwner",
          "type": "address"
        },
        {
          "indexed": true,
          "internalType": "address",
          "name": "newOwner",
          "type": "address"
        }
      ],
      "name": "OwnershipTransferred",
      "type": "event"
    },
    {
      "anonymous": false,
      "inputs": [
        {
          "indexed": true,
          "internalType": "address",
          "name": "user",
          "type": "address"
        },
        {
          "indexed": false,
          "internalType": "uint256",
          "name": "amount",
          "type": "uint256"
        }
      ],
      "name": "Staked",
      "type": "event"
    },
    {
      "anonymous": false,
      "inputs": [
        {
          "indexed": true,
          "internalType": "address",
          "name": "user",
          "type": "address"
        },
        {
          "indexed": false,
          "internalType": "uint256",
          "name": "amount",
          "type": "uint256"
        },
        {
          "indexed": false,
          "internalType": "uint256",
          "name": "reward",
          "type": "uint256"
        }
      ],
      "name": "Unstaked",
      "type": "event"
    },
    {
      "inputs": [],
      "name": "LOCKIN_TIME",
      "outputs": [
        {
          "internalType": "uint256",
          "name": "",
          "type": "uint256"
        }
      ],
      "stateMutability": "view",
      "type": "function"
    },
    {
      "inputs": [],
      "name": "REWARD_RATE",
      "outputs": [
        {
          "internalType": "uint256",
          "name": "",
          "type": "uint256"
        }
      ],
      "stateMutability": "view",
      "type": "function"
    },
    {
      "inputs": [
        {
          "internalType": "address",
          "name": "_user",
          "type": "address"
        },
        {
          "internalType": "uint256",
          "name": "_index",
          "type": "uint256"
        }
      ],
      "name": "calculateReward",
      "outputs": [
        {
          "internalType": "uint256",
          "name": "",
          "type": "uint256"
        }
      ],
      "stateMutability": "view",
      "type": "function"
    },
    {
      "inputs": [],
      "name": "owner",
      "outputs": [
        {
          "internalType": "address",
          "name": "",
          "type": "address"
        }
      ],
      "stateMutability": "view",
      "type": "function"
    },
    {
      "inputs": [],
      "name": "renounceOwnership",
      "outputs": [],
      "stateMutability": "nonpayable",
      "type": "function"
    },
    {
      "inputs": [
        {
          "internalType": "uint256",
          "name": "_newLockInTime",
          "type": "uint256"
        }
      ],
      "name": "setLockInTime",
      "outputs": [],
      "stateMutability": "nonpayable",
      "type": "function"
    },
    {
      "inputs": [
        {
          "internalType": "uint256",
          "name": "_newRate",
          "type": "uint256"
        }
      ],
      "name": "setRewardRate",
      "outputs": [],
      "stateMutability": "nonpayable",
      "type": "function"
    },
    {
      "inputs": [
        {
          "internalType": "uint256",
          "name": "_amount",
          "type": "uint256"
        }
      ],
      "name": "stake",
      "outputs": [],
      "stateMutability": "nonpayable",
      "type": "function"
    },
    {
      "inputs": [
        {
          "internalType": "address",
          "name": "",
          "type": "address"
        },
        {
          "internalType": "uint256",
          "name": "",
          "type": "uint256"
        }
      ],
      "name": "stakedAmounts",
      "outputs": [
        {
          "internalType": "uint256",
          "name": "amount",
          "type": "uint256"
        },
        {
          "internalType": "uint256",
          "name": "addTime",
          "type": "uint256"
        },
        {
          "internalType": "uint256",
          "name": "lastUpdateTime",
          "type": "uint256"
        }
      ],
      "stateMutability": "view",
      "type": "function"
    },
    {
      "inputs": [],
      "name": "token",
      "outputs": [
        {
          "internalType": "contract IERC20",
          "name": "",
          "type": "address"
        }
      ],
      "stateMutability": "view",
      "type": "function"
    },
    {
      "inputs": [
        {
          "internalType": "address",
          "name": "newOwner",
          "type": "address"
        }
      ],
      "name": "transferOwnership",
      "outputs": [],
      "stateMutability": "nonpayable",
      "type": "function"
    },
    {
      "inputs": [
        {
          "internalType": "uint256",
          "name": "_index",
          "type": "uint256"
        }
      ],
      "name": "unstake",
      "outputs": [],
      "stateMutability": "nonpayable",
      "type": "function"
    },
    {
      "inputs": [],
      "name": "usdtToken",
      "outputs": [
        {
          "internalType": "contract IERC20",
          "name": "",
          "type": "address"
        }
      ],
      "stateMutability": "view",
      "type": "function"
    }
  ],
  "bytecode": "0x60806040523480156200001157600080fd5b5060405162001a0638038062001a06833981810160405281019062000037919062000280565b33600073ffffffffffffffffffffffffffffffffffffffff168173ffffffffffffffffffffffffffffffffffffffff1603620000ad5760006040517f1e4fbdf7000000000000000000000000000000000000000000000000000000008152600401620000a49190620002ed565b60405180910390fd5b620000be816200011760201b60201c565b5082600160006101000a81548173ffffffffffffffffffffffffffffffffffffffff021916908373ffffffffffffffffffffffffffffffffffffffff16021790555081600381905550806004819055505050506200030a565b60008060009054906101000a900473ffffffffffffffffffffffffffffffffffffffff169050816000806101000a81548173ffffffffffffffffffffffffffffffffffffffff021916908373ffffffffffffffffffffffffffffffffffffffff1602179055508173ffffffffffffffffffffffffffffffffffffffff168173ffffffffffffffffffffffffffffffffffffffff167f8be0079c531659141344cd1fd0a4f28419497f9722a3daafe3b4186f6b6457e060405160405180910390a35050565b600080fd5b600073ffffffffffffffffffffffffffffffffffffffff82169050919050565b60006200020d82620001e0565b9050919050565b6200021f8162000200565b81146200022b57600080fd5b50565b6000815190506200023f8162000214565b92915050565b6000819050919050565b6200025a8162000245565b81146200026657600080fd5b50565b6000815190506200027a816200024f565b92915050565b6000806000606084860312156200029c576200029b620001db565b5b6000620002ac868287016200022e565b9350506020620002bf8682870162000269565b9250506040620002d28682870162000269565b9150509250925092565b620002e78162000200565b82525050565b6000602082019050620003046000830184620002dc565b92915050565b6116ec806200031a6000396000f3fe608060405234801561001057600080fd5b50600436106100cf5760003560e01c80638da5cb5b1161008c578063a98ad46c11610066578063a98ad46c146101ee578063e9ba92951461020c578063f2fde38b14610228578063fc0c546a14610244576100cf565b80638da5cb5b146101985780639e447fc6146101b6578063a694fc3a146101d2576100cf565b80631852e8d9146100d45780631b6eb1bc146101045780632e17de7814610136578063516d2751146101525780635997bb3714610170578063715018a61461018e575b600080fd5b6100ee60048036038101906100e99190610f66565b610262565b6040516100fb9190610fb5565b60405180910390f35b61011e60048036038101906101199190610f66565b6103b9565b60405161012d93929190610fd0565b60405180910390f35b610150600480360381019061014b9190611007565b610400565b005b61015a61073c565b6040516101679190610fb5565b60405180910390f35b610178610742565b6040516101859190610fb5565b60405180910390f35b610196610748565b005b6101a061075c565b6040516101ad9190611043565b60405180910390f35b6101d060048036038101906101cb9190611007565b610785565b005b6101ec60048036038101906101e79190611007565b6107da565b005b6101f6610b72565b60405161020391906110bd565b60405180910390f35b61022660048036038101906102219190611007565b610b98565b005b610242600480360381019061023d91906110d8565b610bee565b005b61024c610c74565b60405161025991906110bd565b60405180910390f35b600080600560008573ffffffffffffffffffffffffffffffffffffffff1673ffffffffffffffffffffffffffffffffffffffff16815260200190815260200160002083815481106102b6576102b5611105565b5b90600052602060002090600302016000015490506000610341600560008773ffffffffffffffffffffffffffffffffffffffff1673ffffffffffffffffffffffffffffffffffffffff16815260200190815260200160002085815481106103205761031f611105565b5b90600052602060002090600302016001015442610c9a90919063ffffffff16565b915050600061035b60035484610cc290919063ffffffff16565b91505060006103738383610cc290919063ffffffff16565b915050600061038c606483610d1590919063ffffffff16565b91505060006103a762093a8083610d1590919063ffffffff16565b91505080965050505050505092915050565b600560205281600052604060002081815481106103d557600080fd5b9060005260206000209060030201600091509150508060000154908060010154908060020154905083565b6000600560003373ffffffffffffffffffffffffffffffffffffffff1673ffffffffffffffffffffffffffffffffffffffff168152602001908152602001600020828154811061045357610452611105565b5b90600052602060002090600302016000015490506000600560003373ffffffffffffffffffffffffffffffffffffffff1673ffffffffffffffffffffffffffffffffffffffff16815260200190815260200160002083815481106104ba576104b9611105565b5b906000526020600020906003020160010154905060008211610511576040517f08c379a000000000000000000000000000000000000000000000000000000000815260040161050890611191565b60405180910390fd5b426004548261052091906111e0565b1115610561576040517f08c379a000000000000000000000000000000000000000000000000000000000815260040161055890611260565b60405180910390fd5b600082116105a4576040517f08c379a000000000000000000000000000000000000000000000000000000000815260040161059b906112cc565b60405180910390fd5b60006105b03385610262565b905060006105c78285610d4b90919063ffffffff16565b915050600560003373ffffffffffffffffffffffffffffffffffffffff1673ffffffffffffffffffffffffffffffffffffffff168152602001908152602001600020858154811061061b5761061a611105565b5b9060005260206000209060030201600080820160009055600182016000905560028201600090555050600160009054906101000a900473ffffffffffffffffffffffffffffffffffffffff1673ffffffffffffffffffffffffffffffffffffffff1663a9059cbb33836040518363ffffffff1660e01b81526004016106a19291906112ec565b6020604051808303816000875af11580156106c0573d6000803e3d6000fd5b505050506040513d601f19601f820116820180604052508101906106e4919061134d565b503373ffffffffffffffffffffffffffffffffffffffff167f7fc4727e062e336010f2c282598ef5f14facb3de68cf8195c2f23e1454b2b74e858460405161072d92919061137a565b60405180910390a25050505050565b60045481565b60035481565b610750610d7a565b61075a6000610e01565b565b60008060009054906101000a900473ffffffffffffffffffffffffffffffffffffffff16905090565b61078d610d7a565b600081116107d0576040517f08c379a00000000000000000000000000000000000000000000000000000000081526004016107c790611415565b60405180910390fd5b8060038190555050565b6000811161081d576040517f08c379a000000000000000000000000000000000000000000000000000000000815260040161081490611481565b60405180910390fd5b80600160009054906101000a900473ffffffffffffffffffffffffffffffffffffffff1673ffffffffffffffffffffffffffffffffffffffff166370a08231336040518263ffffffff1660e01b81526004016108799190611043565b602060405180830381865afa158015610896573d6000803e3d6000fd5b505050506040513d601f19601f820116820180604052508101906108ba91906114b6565b10156108fb576040517f08c379a00000000000000000000000000000000000000000000000000000000081526004016108f29061152f565b60405180910390fd5b80600160009054906101000a900473ffffffffffffffffffffffffffffffffffffffff1673ffffffffffffffffffffffffffffffffffffffff1663dd62ed3e33306040518363ffffffff1660e01b815260040161095992919061154f565b602060405180830381865afa158015610976573d6000803e3d6000fd5b505050506040513d601f19601f8201168201806040525081019061099a91906114b6565b10156109db576040517f08c379a00000000000000000000000000000000000000000000000000000000081526004016109d2906115c4565b60405180910390fd5b600160009054906101000a900473ffffffffffffffffffffffffffffffffffffffff1673ffffffffffffffffffffffffffffffffffffffff166323b872dd3330846040518463ffffffff1660e01b8152600401610a3a939291906115e4565b6020604051808303816000875af1158015610a59573d6000803e3d6000fd5b505050506040513d601f19601f82011682018060405250810190610a7d919061134d565b50600560003373ffffffffffffffffffffffffffffffffffffffff1673ffffffffffffffffffffffffffffffffffffffff168152602001908152602001600020604051806060016040528083815260200142815260200142815250908060018154018082558091505060019003906000526020600020906003020160009091909190915060008201518160000155602082015181600101556040820151816002015550503373ffffffffffffffffffffffffffffffffffffffff167f9e71bc8eea02a63969f509818f2dafb9254532904319f9dbda79b67bd34a5f3d82604051610b679190610fb5565b60405180910390a250565b600260009054906101000a900473ffffffffffffffffffffffffffffffffffffffff1681565b610ba0610d7a565b6000811015610be4576040517f08c379a0000000000000000000000000000000000000000000000000000000008152600401610bdb90611667565b60405180910390fd5b8060048190555050565b610bf6610d7a565b600073ffffffffffffffffffffffffffffffffffffffff168173ffffffffffffffffffffffffffffffffffffffff1603610c685760006040517f1e4fbdf7000000000000000000000000000000000000000000000000000000008152600401610c5f9190611043565b60405180910390fd5b610c7181610e01565b50565b600160009054906101000a900473ffffffffffffffffffffffffffffffffffffffff1681565b60008083831115610cb15760008091509150610cbb565b6001838503915091505b9250929050565b60008060008403610cda576001600091509150610d0e565b6000838502905083858281610cf257610cf1611687565b5b0414610d05576000809250925050610d0e565b60018192509250505b9250929050565b60008060008303610d2c5760008091509150610d44565b6001838581610d3e57610d3d611687565b5b04915091505b9250929050565b6000806000838501905084811015610d6a576000809250925050610d73565b60018192509250505b9250929050565b610d82610ec5565b73ffffffffffffffffffffffffffffffffffffffff16610da061075c565b73ffffffffffffffffffffffffffffffffffffffff1614610dff57610dc3610ec5565b6040517f118cdaa7000000000000000000000000000000000000000000000000000000008152600401610df69190611043565b60405180910390fd5b565b60008060009054906101000a900473ffffffffffffffffffffffffffffffffffffffff169050816000806101000a81548173ffffffffffffffffffffffffffffffffffffffff021916908373ffffffffffffffffffffffffffffffffffffffff1602179055508173ffffffffffffffffffffffffffffffffffffffff168173ffffffffffffffffffffffffffffffffffffffff167f8be0079c531659141344cd1fd0a4f28419497f9722a3daafe3b4186f6b6457e060405160405180910390a35050565b600033905090565b600080fd5b600073ffffffffffffffffffffffffffffffffffffffff82169050919050565b6000610efd82610ed2565b9050919050565b610f0d81610ef2565b8114610f1857600080fd5b50565b600081359050610f2a81610f04565b92915050565b6000819050919050565b610f4381610f30565b8114610f4e57600080fd5b50565b600081359050610f6081610f3a565b92915050565b60008060408385031215610f7d57610f7c610ecd565b5b6000610f8b85828601610f1b565b9250506020610f9c85828601610f51565b9150509250929050565b610faf81610f30565b82525050565b6000602082019050610fca6000830184610fa6565b92915050565b6000606082019050610fe56000830186610fa6565b610ff26020830185610fa6565b610fff6040830184610fa6565b949350505050565b60006020828403121561101d5761101c610ecd565b5b600061102b84828501610f51565b91505092915050565b61103d81610ef2565b82525050565b60006020820190506110586000830184611034565b92915050565b6000819050919050565b600061108361107e61107984610ed2565b61105e565b610ed2565b9050919050565b600061109582611068565b9050919050565b60006110a78261108a565b9050919050565b6110b78161109c565b82525050565b60006020820190506110d260008301846110ae565b92915050565b6000602082840312156110ee576110ed610ecd565b5b60006110fc84828501610f1b565b91505092915050565b7f4e487b7100000000000000000000000000000000000000000000000000000000600052603260045260246000fd5b600082825260208201905092915050565b7f496e73756666696369656e7420616d6f757420746f2077697468647261770000600082015250565b600061117b601e83611134565b915061118682611145565b602082019050919050565b600060208201905081810360008301526111aa8161116e565b9050919050565b7f4e487b7100000000000000000000000000000000000000000000000000000000600052601160045260246000fd5b60006111eb82610f30565b91506111f683610f30565b925082820190508082111561120e5761120d6111b1565b5b92915050565b7f4c6f636b20696e20706572696f64206e6f7420636f6d706c6561746564000000600082015250565b600061124a601d83611134565b915061125582611214565b602082019050919050565b600060208201905081810360008301526112798161123d565b9050919050565b7f4e6f20746f6b656e73207374616b656400000000000000000000000000000000600082015250565b60006112b6601083611134565b91506112c182611280565b602082019050919050565b600060208201905081810360008301526112e5816112a9565b9050919050565b60006040820190506113016000830185611034565b61130e6020830184610fa6565b9392505050565b60008115159050919050565b61132a81611315565b811461133557600080fd5b50565b60008151905061134781611321565b92915050565b60006020828403121561136357611362610ecd565b5b600061137184828501611338565b91505092915050565b600060408201905061138f6000830185610fa6565b61139c6020830184610fa6565b9392505050565b7f5265776172642072617465206d7573742062652067726561746572207468616e60008201527f207a65726f000000000000000000000000000000000000000000000000000000602082015250565b60006113ff602583611134565b915061140a826113a3565b604082019050919050565b6000602082019050818103600083015261142e816113f2565b9050919050565b7f416d6f756e74206d7573742062652067726561746572207468616e207a65726f600082015250565b600061146b602083611134565b915061147682611435565b602082019050919050565b6000602082019050818103600083015261149a8161145e565b9050919050565b6000815190506114b081610f3a565b92915050565b6000602082840312156114cc576114cb610ecd565b5b60006114da848285016114a1565b91505092915050565b7f496e73756666696369656e742062616c616e6365000000000000000000000000600082015250565b6000611519601483611134565b9150611524826114e3565b602082019050919050565b600060208201905081810360008301526115488161150c565b9050919050565b60006040820190506115646000830185611034565b6115716020830184611034565b9392505050565b7f696e73756666696369656e7420416c6c6f77616e636500000000000000000000600082015250565b60006115ae601683611134565b91506115b982611578565b602082019050919050565b600060208201905081810360008301526115dd816115a1565b9050919050565b60006060820190506115f96000830186611034565b6116066020830185611034565b6116136040830184610fa6565b949350505050565b7f4c6f636b20696e2074696d652063616e6e6f74206265206e6567617469766500600082015250565b6000611651601f83611134565b915061165c8261161b565b602082019050919050565b6000602082019050818103600083015261168081611644565b9050919050565b7f4e487b7100000000000000000000000000000000000000000000000000000000600052601260045260246000fdfea2646970667358221220cd602af8b234724c264de0147b502d2e152b8fd3602dd67ef187886e94ab77cc64736f6c63430008180033",
  "linkReferences": {},
  "deployedLinkReferences": {}
}