{
  "_format": "hh-sol-artifact-1",
  "contractName": "CrowdesaleEth",
  "sourceName": "contracts/CrowdsaleEth.sol",
  "abi": [
    {
      "inputs": [
        {
          "internalType": "address",
          "name": "_walletAddress",
          "type": "address"
        },
        {
          "internalType": "contract ERC20",
          "name": "_tokenUSDT",
          "type": "address"
        },
        {
          "internalType": "uint256",
          "name": "_amount",
          "type": "uint256"
        },
        {
          "internalType": "address",
          "name": "_aggregatorAddress",
          "type": "address"
        },
        {
          "internalType": "uint256",
          "name": "_referralRate",
          "type": "uint256"
        }
      ],
      "stateMutability": "nonpayable",
      "type": "constructor"
    },
    {
      "inputs": [
        {
          "internalType": "address",
          "name": "owner",
          "type": "address"
        }
      ],
      "name": "OwnableInvalidOwner",
      "type": "error"
    },
    {
      "inputs": [
        {
          "internalType": "address",
          "name": "account",
          "type": "address"
        }
      ],
      "name": "OwnableUnauthorizedAccount",
      "type": "error"
    },
    {
      "inputs": [
        {
          "internalType": "int256",
          "name": "value",
          "type": "int256"
        }
      ],
      "name": "SafeCastOverflowedIntToUint",
      "type": "error"
    },
    {
      "anonymous": false,
      "inputs": [
        {
          "indexed": true,
          "internalType": "address",
          "name": "previousOwner",
          "type": "address"
        },
        {
          "indexed": true,
          "internalType": "address",
          "name": "newOwner",
          "type": "address"
        }
      ],
      "name": "OwnershipTransferred",
      "type": "event"
    },
    {
      "anonymous": false,
      "inputs": [
        {
          "indexed": true,
          "internalType": "address",
          "name": "purchaser",
          "type": "address"
        },
        {
          "indexed": false,
          "internalType": "uint256",
          "name": "value",
          "type": "uint256"
        },
        {
          "indexed": false,
          "internalType": "uint256",
          "name": "amount",
          "type": "uint256"
        }
      ],
      "name": "TokensPurchased",
      "type": "event"
    },
    {
      "anonymous": false,
      "inputs": [
        {
          "indexed": false,
          "internalType": "address",
          "name": "useAddress",
          "type": "address"
        },
        {
          "indexed": false,
          "internalType": "address",
          "name": "affiliateAddress",
          "type": "address"
        },
        {
          "indexed": false,
          "internalType": "uint256",
          "name": "tokenAmount",
          "type": "uint256"
        },
        {
          "indexed": false,
          "internalType": "uint256",
          "name": "usdtAmount",
          "type": "uint256"
        }
      ],
      "name": "TransferUsdt",
      "type": "event"
    },
    {
      "inputs": [],
      "name": "REFERRAL_RATE",
      "outputs": [
        {
          "internalType": "uint256",
          "name": "",
          "type": "uint256"
        }
      ],
      "stateMutability": "view",
      "type": "function"
    },
    {
      "inputs": [
        {
          "internalType": "uint256",
          "name": "_usdtAmount",
          "type": "uint256"
        },
        {
          "internalType": "address",
          "name": "_affiliateAddress",
          "type": "address"
        }
      ],
      "name": "buyTokens",
      "outputs": [],
      "stateMutability": "nonpayable",
      "type": "function"
    },
    {
      "inputs": [
        {
          "internalType": "address",
          "name": "_affiliateAddress",
          "type": "address"
        }
      ],
      "name": "buyTokensWithEth",
      "outputs": [],
      "stateMutability": "payable",
      "type": "function"
    },
    {
      "inputs": [],
      "name": "disperseAmount",
      "outputs": [
        {
          "internalType": "uint256",
          "name": "",
          "type": "uint256"
        }
      ],
      "stateMutability": "view",
      "type": "function"
    },
    {
      "inputs": [],
      "name": "owner",
      "outputs": [
        {
          "internalType": "address",
          "name": "",
          "type": "address"
        }
      ],
      "stateMutability": "view",
      "type": "function"
    },
    {
      "inputs": [],
      "name": "renounceOwnership",
      "outputs": [],
      "stateMutability": "nonpayable",
      "type": "function"
    },
    {
      "inputs": [
        {
          "internalType": "address",
          "name": "_newAggregatorAddress",
          "type": "address"
        }
      ],
      "name": "setAggregatorAddress",
      "outputs": [],
      "stateMutability": "nonpayable",
      "type": "function"
    },
    {
      "inputs": [],
      "name": "tokenUSDT",
      "outputs": [
        {
          "internalType": "contract ERC20",
          "name": "",
          "type": "address"
        }
      ],
      "stateMutability": "view",
      "type": "function"
    },
    {
      "inputs": [
        {
          "internalType": "address",
          "name": "newOwner",
          "type": "address"
        }
      ],
      "name": "transferOwnership",
      "outputs": [],
      "stateMutability": "nonpayable",
      "type": "function"
    },
    {
      "inputs": [],
      "name": "wallet",
      "outputs": [
        {
          "internalType": "address",
          "name": "",
          "type": "address"
        }
      ],
      "stateMutability": "view",
      "type": "function"
    },
    {
      "inputs": [],
      "name": "withdrawFunds",
      "outputs": [],
      "stateMutability": "nonpayable",
      "type": "function"
    },
    {
      "inputs": [],
      "name": "withdrawUSDT",
      "outputs": [],
      "stateMutability": "nonpayable",
      "type": "function"
    },
    {
      "stateMutability": "payable",
      "type": "receive"
    }
  ],
  "bytecode": "0x60806040526006805560126007553480156200001a57600080fd5b50604051620024a7380380620024a783398181016040528101906200004091906200047c565b33600073ffffffffffffffffffffffffffffffffffffffff168173ffffffffffffffffffffffffffffffffffffffff1603620000b65760006040517f1e4fbdf7000000000000000000000000000000000000000000000000000000008152600401620000ad919062000515565b60405180910390fd5b620000c781620002ce60201b60201c565b50600073ffffffffffffffffffffffffffffffffffffffff168573ffffffffffffffffffffffffffffffffffffffff16036200013a576040517f08c379a00000000000000000000000000000000000000000000000000000000081526004016200013190620005b9565b60405180910390fd5b600073ffffffffffffffffffffffffffffffffffffffff168473ffffffffffffffffffffffffffffffffffffffff1603620001ac576040517f08c379a0000000000000000000000000000000000000000000000000000000008152600401620001a39062000651565b60405180910390fd5b60008311620001f2576040517f08c379a0000000000000000000000000000000000000000000000000000000008152600401620001e990620006e9565b60405180910390fd5b84600260006101000a81548173ffffffffffffffffffffffffffffffffffffffff021916908373ffffffffffffffffffffffffffffffffffffffff1602179055508260038190555083600160006101000a81548173ffffffffffffffffffffffffffffffffffffffff021916908373ffffffffffffffffffffffffffffffffffffffff1602179055508060048190555081600860006101000a81548173ffffffffffffffffffffffffffffffffffffffff021916908373ffffffffffffffffffffffffffffffffffffffff16021790555050505050506200070b565b60008060009054906101000a900473ffffffffffffffffffffffffffffffffffffffff169050816000806101000a81548173ffffffffffffffffffffffffffffffffffffffff021916908373ffffffffffffffffffffffffffffffffffffffff1602179055508173ffffffffffffffffffffffffffffffffffffffff168173ffffffffffffffffffffffffffffffffffffffff167f8be0079c531659141344cd1fd0a4f28419497f9722a3daafe3b4186f6b6457e060405160405180910390a35050565b600080fd5b600073ffffffffffffffffffffffffffffffffffffffff82169050919050565b6000620003c48262000397565b9050919050565b620003d681620003b7565b8114620003e257600080fd5b50565b600081519050620003f681620003cb565b92915050565b60006200040982620003b7565b9050919050565b6200041b81620003fc565b81146200042757600080fd5b50565b6000815190506200043b8162000410565b92915050565b6000819050919050565b620004568162000441565b81146200046257600080fd5b50565b60008151905062000476816200044b565b92915050565b600080600080600060a086880312156200049b576200049a62000392565b5b6000620004ab88828901620003e5565b9550506020620004be888289016200042a565b9450506040620004d18882890162000465565b9350506060620004e488828901620003e5565b9250506080620004f78882890162000465565b9150509295509295909350565b6200050f81620003b7565b82525050565b60006020820190506200052c600083018462000504565b92915050565b600082825260208201905092915050565b7f43726f77646553616c653a2077616c6c657420616464726573732063616e277460008201527f206265207a65726f000000000000000000000000000000000000000000000000602082015250565b6000620005a160288362000532565b9150620005ae8262000543565b604082019050919050565b60006020820190508181036000830152620005d48162000592565b9050919050565b7f43726f77646553616c653a205553445420746f6b656e2061646472657373206360008201527f616e2774206265207a65726f0000000000000000000000000000000000000000602082015250565b600062000639602c8362000532565b91506200064682620005db565b604082019050919050565b600060208201905081810360008301526200066c816200062a565b9050919050565b7f43726f77646553616c653a20646973706572736520616d6f756e742063616e2760008201527f74206265207a65726f0000000000000000000000000000000000000000000000602082015250565b6000620006d160298362000532565b9150620006de8262000673565b604082019050919050565b600060208201905081810360008301526200070481620006c2565b9050919050565b611d8c806200071b6000396000f3fe6080604052600436106100ab5760003560e01c80638da5cb5b116100645780638da5cb5b1461042257806399c5c8aa1461044d578063c625e9b114610478578063e276db83146104a1578063f2fde38b146104cc578063f40f4a24146104f557610359565b806324600fc31461035e578063362e496b1461037557806347b324481461038c578063521eb273146103b55780635304a20b146103e0578063715018a61461040b57610359565b3661035957600560009054906101000a900460ff1615610100576040517f08c379a00000000000000000000000000000000000000000000000000000000081526004016100f790611240565b60405180910390fd5b6001600560006101000a81548160ff021916908315150217905550600034905060008111610163576040517f08c379a000000000000000000000000000000000000000000000000000000000815260040161015a906112ac565b60405180910390fd5b6000600860009054906101000a900473ffffffffffffffffffffffffffffffffffffffff1673ffffffffffffffffffffffffffffffffffffffff1663feaf968c6040518163ffffffff1660e01b815260040160a060405180830381865afa1580156101d2573d6000803e3d6000fd5b505050506040513d601f19601f820116820180604052508101906101f6919061137f565b5050509150506000600860009054906101000a900473ffffffffffffffffffffffffffffffffffffffff1673ffffffffffffffffffffffffffffffffffffffff1663313ce5676040518163ffffffff1660e01b8152600401602060405180830381865afa15801561026b573d6000803e3d6000fd5b505050506040513d601f19601f8201168201806040525081019061028f9190611433565b60ff16905060006102bd82600a6102a691906115c2565b6102af85610511565b61056090919063ffffffff16565b90506102e760646102d96004548761057690919063ffffffff16565b61056090919063ffffffff16565b93507f58813176e9272a75e6f565c83e25d45b632dd9f8145c06e71406e641444ab27d33600086610321858961057690919063ffffffff16565b604051610331949392919061165d565b60405180910390a1505050506000600560006101000a81548160ff0219169083151502179055005b600080fd5b34801561036a57600080fd5b506103736105b8565b005b34801561038157600080fd5b5061038a61062b565b005b34801561039857600080fd5b506103b360048036038101906103ae91906116ce565b6108b5565b005b3480156103c157600080fd5b506103ca610970565b6040516103d791906116fb565b60405180910390f35b3480156103ec57600080fd5b506103f5610996565b6040516104029190611716565b60405180910390f35b34801561041757600080fd5b5061042061099c565b005b34801561042e57600080fd5b506104376109b0565b60405161044491906116fb565b60405180910390f35b34801561045957600080fd5b506104626109d9565b60405161046f9190611790565b60405180910390f35b34801561048457600080fd5b5061049f600480360381019061049a91906117c0565b6109ff565b005b3480156104ad57600080fd5b506104b6610d5a565b6040516104c39190611716565b60405180910390f35b3480156104d857600080fd5b506104f360048036038101906104ee91906116ce565b610d60565b005b61050f600480360381019061050a91906116ce565b610de6565b005b60008082121561055857816040517fa8ce443200000000000000000000000000000000000000000000000000000000815260040161054f919061180f565b60405180910390fd5b819050919050565b6000818361056e9190611859565b905092915050565b600080830361058857600090506105b2565b8183610594919061188a565b90508183826105a39190611859565b146105b1576105b06118cc565b5b5b92915050565b6105c0611090565b600260009054906101000a900473ffffffffffffffffffffffffffffffffffffffff1673ffffffffffffffffffffffffffffffffffffffff166108fc479081150290604051600060405180830381858888f19350505050158015610628573d6000803e3d6000fd5b50565b610633611090565b6000600160009054906101000a900473ffffffffffffffffffffffffffffffffffffffff1673ffffffffffffffffffffffffffffffffffffffff166370a08231306040518263ffffffff1660e01b815260040161069091906116fb565b602060405180830381865afa1580156106ad573d6000803e3d6000fd5b505050506040513d601f19601f820116820180604052508101906106d191906118fb565b905060008111610716576040517f08c379a000000000000000000000000000000000000000000000000000000000815260040161070d9061199a565b60405180910390fd5b600160009054906101000a900473ffffffffffffffffffffffffffffffffffffffff1673ffffffffffffffffffffffffffffffffffffffff1663a9059cbb600260009054906101000a900473ffffffffffffffffffffffffffffffffffffffff16600160009054906101000a900473ffffffffffffffffffffffffffffffffffffffff1673ffffffffffffffffffffffffffffffffffffffff166370a08231306040518263ffffffff1660e01b81526004016107d291906116fb565b602060405180830381865afa1580156107ef573d6000803e3d6000fd5b505050506040513d601f19601f8201168201806040525081019061081391906118fb565b6040518363ffffffff1660e01b81526004016108309291906119ba565b6020604051808303816000875af115801561084f573d6000803e3d6000fd5b505050506040513d601f19601f820116820180604052508101906108739190611a1b565b6108b2576040517f08c379a00000000000000000000000000000000000000000000000000000000081526004016108a990611a94565b60405180910390fd5b50565b6108bd611090565b600073ffffffffffffffffffffffffffffffffffffffff168173ffffffffffffffffffffffffffffffffffffffff160361092c576040517f08c379a000000000000000000000000000000000000000000000000000000000815260040161092390611b26565b60405180910390fd5b80600860006101000a81548173ffffffffffffffffffffffffffffffffffffffff021916908373ffffffffffffffffffffffffffffffffffffffff16021790555050565b600260009054906101000a900473ffffffffffffffffffffffffffffffffffffffff1681565b60035481565b6109a4611090565b6109ae6000611117565b565b60008060009054906101000a900473ffffffffffffffffffffffffffffffffffffffff16905090565b600160009054906101000a900473ffffffffffffffffffffffffffffffffffffffff1681565b6000600654600a610a1091906115c2565b600754600a610a1f91906115c2565b84610a2a919061188a565b610a349190611859565b905060008311610a79576040517f08c379a0000000000000000000000000000000000000000000000000000000008152600401610a7090611b92565b60405180910390fd5b82600160009054906101000a900473ffffffffffffffffffffffffffffffffffffffff1673ffffffffffffffffffffffffffffffffffffffff166370a08231336040518263ffffffff1660e01b8152600401610ad591906116fb565b602060405180830381865afa158015610af2573d6000803e3d6000fd5b505050506040513d601f19601f82011682018060405250810190610b1691906118fb565b1015610b57576040517f08c379a0000000000000000000000000000000000000000000000000000000008152600401610b4e90611bfe565b60405180910390fd5b82600160009054906101000a900473ffffffffffffffffffffffffffffffffffffffff1673ffffffffffffffffffffffffffffffffffffffff1663dd62ed3e33306040518363ffffffff1660e01b8152600401610bb5929190611c1e565b602060405180830381865afa158015610bd2573d6000803e3d6000fd5b505050506040513d601f19601f82011682018060405250810190610bf691906118fb565b1015610c37576040517f08c379a0000000000000000000000000000000000000000000000000000000008152600401610c2e90611c93565b60405180910390fd5b600160009054906101000a900473ffffffffffffffffffffffffffffffffffffffff1673ffffffffffffffffffffffffffffffffffffffff166323b872dd3330866040518463ffffffff1660e01b8152600401610c9693929190611cb3565b6020604051808303816000875af1158015610cb5573d6000803e3d6000fd5b505050506040513d601f19601f82011682018060405250810190610cd99190611a1b565b610d18576040517f08c379a0000000000000000000000000000000000000000000000000000000008152600401610d0f90611d36565b60405180910390fd5b7f58813176e9272a75e6f565c83e25d45b632dd9f8145c06e71406e641444ab27d33838386604051610d4d949392919061165d565b60405180910390a1505050565b60045481565b610d68611090565b600073ffffffffffffffffffffffffffffffffffffffff168173ffffffffffffffffffffffffffffffffffffffff1603610dda5760006040517f1e4fbdf7000000000000000000000000000000000000000000000000000000008152600401610dd191906116fb565b60405180910390fd5b610de381611117565b50565b600560009054906101000a900460ff1615610e36576040517f08c379a0000000000000000000000000000000000000000000000000000000008152600401610e2d90611240565b60405180910390fd5b6001600560006101000a81548160ff021916908315150217905550600034905060008111610e99576040517f08c379a0000000000000000000000000000000000000000000000000000000008152600401610e90906112ac565b60405180910390fd5b6000600860009054906101000a900473ffffffffffffffffffffffffffffffffffffffff1673ffffffffffffffffffffffffffffffffffffffff1663feaf968c6040518163ffffffff1660e01b815260040160a060405180830381865afa158015610f08573d6000803e3d6000fd5b505050506040513d601f19601f82011682018060405250810190610f2c919061137f565b5050509150506000600860009054906101000a900473ffffffffffffffffffffffffffffffffffffffff1673ffffffffffffffffffffffffffffffffffffffff1663313ce5676040518163ffffffff1660e01b8152600401602060405180830381865afa158015610fa1573d6000803e3d6000fd5b505050506040513d601f19601f82011682018060405250810190610fc59190611433565b60ff1690506000610ff382600a610fdc91906115c2565b610fe585610511565b61056090919063ffffffff16565b905061101d606461100f6004548761057690919063ffffffff16565b61056090919063ffffffff16565b93507f58813176e9272a75e6f565c83e25d45b632dd9f8145c06e71406e641444ab27d338686611056858961057690919063ffffffff16565b604051611066949392919061165d565b60405180910390a1505050506000600560006101000a81548160ff02191690831515021790555050565b6110986111db565b73ffffffffffffffffffffffffffffffffffffffff166110b66109b0565b73ffffffffffffffffffffffffffffffffffffffff1614611115576110d96111db565b6040517f118cdaa700000000000000000000000000000000000000000000000000000000815260040161110c91906116fb565b60405180910390fd5b565b60008060009054906101000a900473ffffffffffffffffffffffffffffffffffffffff169050816000806101000a81548173ffffffffffffffffffffffffffffffffffffffff021916908373ffffffffffffffffffffffffffffffffffffffff1602179055508173ffffffffffffffffffffffffffffffffffffffff168173ffffffffffffffffffffffffffffffffffffffff167f8be0079c531659141344cd1fd0a4f28419497f9722a3daafe3b4186f6b6457e060405160405180910390a35050565b600033905090565b600082825260208201905092915050565b7f5265656e7472616e637947756172643a207265656e7472616e742063616c6c00600082015250565b600061122a601f836111e3565b9150611235826111f4565b602082019050919050565b600060208201905081810360008301526112598161121d565b9050919050565b7f43726f77646553616c653a204554482076616c75652063616e27742062652030600082015250565b60006112966020836111e3565b91506112a182611260565b602082019050919050565b600060208201905081810360008301526112c581611289565b9050919050565b600080fd5b600069ffffffffffffffffffff82169050919050565b6112f0816112d1565b81146112fb57600080fd5b50565b60008151905061130d816112e7565b92915050565b6000819050919050565b61132681611313565b811461133157600080fd5b50565b6000815190506113438161131d565b92915050565b6000819050919050565b61135c81611349565b811461136757600080fd5b50565b60008151905061137981611353565b92915050565b600080600080600060a0868803121561139b5761139a6112cc565b5b60006113a9888289016112fe565b95505060206113ba88828901611334565b94505060406113cb8882890161136a565b93505060606113dc8882890161136a565b92505060806113ed888289016112fe565b9150509295509295909350565b600060ff82169050919050565b611410816113fa565b811461141b57600080fd5b50565b60008151905061142d81611407565b92915050565b600060208284031215611449576114486112cc565b5b60006114578482850161141e565b91505092915050565b7f4e487b7100000000000000000000000000000000000000000000000000000000600052601160045260246000fd5b60008160011c9050919050565b6000808291508390505b60018511156114e6578086048111156114c2576114c1611460565b5b60018516156114d15780820291505b80810290506114df8561148f565b94506114a6565b94509492505050565b6000826114ff57600190506115bb565b8161150d57600090506115bb565b8160018114611523576002811461152d5761155c565b60019150506115bb565b60ff84111561153f5761153e611460565b5b8360020a91508482111561155657611555611460565b5b506115bb565b5060208310610133831016604e8410600b84101617156115915782820a90508381111561158c5761158b611460565b5b6115bb565b61159e848484600161149c565b925090508184048111156115b5576115b4611460565b5b81810290505b9392505050565b60006115cd82611349565b91506115d883611349565b92506116057fffffffffffffffffffffffffffffffffffffffffffffffffffffffffffffffff84846114ef565b905092915050565b600073ffffffffffffffffffffffffffffffffffffffff82169050919050565b60006116388261160d565b9050919050565b6116488161162d565b82525050565b61165781611349565b82525050565b6000608082019050611672600083018761163f565b61167f602083018661163f565b61168c604083018561164e565b611699606083018461164e565b95945050505050565b6116ab8161162d565b81146116b657600080fd5b50565b6000813590506116c8816116a2565b92915050565b6000602082840312156116e4576116e36112cc565b5b60006116f2848285016116b9565b91505092915050565b6000602082019050611710600083018461163f565b92915050565b600060208201905061172b600083018461164e565b92915050565b6000819050919050565b600061175661175161174c8461160d565b611731565b61160d565b9050919050565b60006117688261173b565b9050919050565b600061177a8261175d565b9050919050565b61178a8161176f565b82525050565b60006020820190506117a56000830184611781565b92915050565b6000813590506117ba81611353565b92915050565b600080604083850312156117d7576117d66112cc565b5b60006117e5858286016117ab565b92505060206117f6858286016116b9565b9150509250929050565b61180981611313565b82525050565b60006020820190506118246000830184611800565b92915050565b7f4e487b7100000000000000000000000000000000000000000000000000000000600052601260045260246000fd5b600061186482611349565b915061186f83611349565b92508261187f5761187e61182a565b5b828204905092915050565b600061189582611349565b91506118a083611349565b92508282026118ae81611349565b915082820484148315176118c5576118c4611460565b5b5092915050565b7f4e487b7100000000000000000000000000000000000000000000000000000000600052600160045260246000fd5b600060208284031215611911576119106112cc565b5b600061191f8482850161136a565b91505092915050565b7f43726f77646553616c653a20496e73756666696369656e7420746f6b656e555360008201527f445420616d6f756e740000000000000000000000000000000000000000000000602082015250565b60006119846029836111e3565b915061198f82611928565b604082019050919050565b600060208201905081810360008301526119b381611977565b9050919050565b60006040820190506119cf600083018561163f565b6119dc602083018461164e565b9392505050565b60008115159050919050565b6119f8816119e3565b8114611a0357600080fd5b50565b600081519050611a15816119ef565b92915050565b600060208284031215611a3157611a306112cc565b5b6000611a3f84828501611a06565b91505092915050565b7f55534454207769746864726177206661696c6564000000000000000000000000600082015250565b6000611a7e6014836111e3565b9150611a8982611a48565b602082019050919050565b60006020820190508181036000830152611aad81611a71565b9050919050565b7f41676772656761746f722061646472657373206d757374206265206e6f74207a60008201527f65726f2061646472657373000000000000000000000000000000000000000000602082015250565b6000611b10602b836111e3565b9150611b1b82611ab4565b604082019050919050565b60006020820190508181036000830152611b3f81611b03565b9050919050565b7f416d6f756e74206d7573742062652067726561746572207468616e207a65726f600082015250565b6000611b7c6020836111e3565b9150611b8782611b46565b602082019050919050565b60006020820190508181036000830152611bab81611b6f565b9050919050565b7f496e73756666696369656e742062616c616e6365000000000000000000000000600082015250565b6000611be86014836111e3565b9150611bf382611bb2565b602082019050919050565b60006020820190508181036000830152611c1781611bdb565b9050919050565b6000604082019050611c33600083018561163f565b611c40602083018461163f565b9392505050565b7f696e73756666696369656e7420416c6c6f77616e636500000000000000000000600082015250565b6000611c7d6016836111e3565b9150611c8882611c47565b602082019050919050565b60006020820190508181036000830152611cac81611c70565b9050919050565b6000606082019050611cc8600083018661163f565b611cd5602083018561163f565b611ce2604083018461164e565b949350505050565b7f55534454207472616e73666572206661696c6564000000000000000000000000600082015250565b6000611d206014836111e3565b9150611d2b82611cea565b602082019050919050565b60006020820190508181036000830152611d4f81611d13565b905091905056fea2646970667358221220528ca7a00b0145329ae82da10f3f0781d12aeab4e19339a6be93aec27c8bbf9164736f6c63430008180033",
  "linkReferences": {},
  "deployedLinkReferences": {}
}