{
  "_format": "hh-sol-artifact-1",
  "contractName": "AffiliateProgram",
  "sourceName": "contracts/Affiliate.sol",
  "abi": [
    {
      "inputs": [
        {
          "internalType": "uint8",
          "name": "_rate",
          "type": "uint8"
        },
        {
          "internalType": "contract IERC20",
          "name": "_token",
          "type": "address"
        }
      ],
      "stateMutability": "nonpayable",
      "type": "constructor"
    },
    {
      "inputs": [
        {
          "internalType": "address",
          "name": "owner",
          "type": "address"
        }
      ],
      "name": "OwnableInvalidOwner",
      "type": "error"
    },
    {
      "inputs": [
        {
          "internalType": "address",
          "name": "account",
          "type": "address"
        }
      ],
      "name": "OwnableUnauthorizedAccount",
      "type": "error"
    },
    {
      "anonymous": false,
      "inputs": [
        {
          "indexed": true,
          "internalType": "address",
          "name": "customer",
          "type": "address"
        },
        {
          "indexed": false,
          "internalType": "uint256",
          "name": "value",
          "type": "uint256"
        },
        {
          "indexed": true,
          "internalType": "address",
          "name": "affiliate",
          "type": "address"
        },
        {
          "indexed": false,
          "internalType": "uint256",
          "name": "commission",
          "type": "uint256"
        }
      ],
      "name": "AccumulatedCommission",
      "type": "event"
    },
    {
      "anonymous": false,
      "inputs": [
        {
          "indexed": true,
          "internalType": "address",
          "name": "affiliateWallet",
          "type": "address"
        }
      ],
      "name": "AffiliateRegistered",
      "type": "event"
    },
    {
      "anonymous": false,
      "inputs": [
        {
          "indexed": false,
          "internalType": "uint8",
          "name": "newRate",
          "type": "uint8"
        }
      ],
      "name": "ChangeCommisionRate",
      "type": "event"
    },
    {
      "anonymous": false,
      "inputs": [
        {
          "indexed": true,
          "internalType": "address",
          "name": "previousOwner",
          "type": "address"
        },
        {
          "indexed": true,
          "internalType": "address",
          "name": "newOwner",
          "type": "address"
        }
      ],
      "name": "OwnershipTransferred",
      "type": "event"
    },
    {
      "anonymous": false,
      "inputs": [
        {
          "indexed": true,
          "internalType": "address",
          "name": "customer",
          "type": "address"
        },
        {
          "indexed": false,
          "internalType": "uint256",
          "name": "value",
          "type": "uint256"
        }
      ],
      "name": "WithdrawCommission",
      "type": "event"
    },
    {
      "inputs": [
        {
          "internalType": "address",
          "name": "",
          "type": "address"
        }
      ],
      "name": "accumulatedCommission",
      "outputs": [
        {
          "internalType": "uint256",
          "name": "",
          "type": "uint256"
        }
      ],
      "stateMutability": "view",
      "type": "function"
    },
    {
      "inputs": [
        {
          "internalType": "address",
          "name": "_affiliate",
          "type": "address"
        },
        {
          "internalType": "uint256",
          "name": "_boughtValue",
          "type": "uint256"
        },
        {
          "internalType": "address",
          "name": "_buyer",
          "type": "address"
        }
      ],
      "name": "addCommissionByOwner",
      "outputs": [],
      "stateMutability": "nonpayable",
      "type": "function"
    },
    {
      "inputs": [
        {
          "internalType": "address",
          "name": "",
          "type": "address"
        }
      ],
      "name": "affiliates",
      "outputs": [
        {
          "internalType": "uint8",
          "name": "",
          "type": "uint8"
        }
      ],
      "stateMutability": "view",
      "type": "function"
    },
    {
      "inputs": [
        {
          "internalType": "uint8",
          "name": "_newRate",
          "type": "uint8"
        }
      ],
      "name": "changeCommissionRate",
      "outputs": [],
      "stateMutability": "nonpayable",
      "type": "function"
    },
    {
      "inputs": [],
      "name": "commissionRate",
      "outputs": [
        {
          "internalType": "uint8",
          "name": "",
          "type": "uint8"
        }
      ],
      "stateMutability": "view",
      "type": "function"
    },
    {
      "inputs": [],
      "name": "owner",
      "outputs": [
        {
          "internalType": "address",
          "name": "",
          "type": "address"
        }
      ],
      "stateMutability": "view",
      "type": "function"
    },
    {
      "inputs": [
        {
          "internalType": "address",
          "name": "_affiliateAddress",
          "type": "address"
        }
      ],
      "name": "registerAsAffiliate",
      "outputs": [],
      "stateMutability": "nonpayable",
      "type": "function"
    },
    {
      "inputs": [],
      "name": "renounceOwnership",
      "outputs": [],
      "stateMutability": "nonpayable",
      "type": "function"
    },
    {
      "inputs": [],
      "name": "token",
      "outputs": [
        {
          "internalType": "contract IERC20",
          "name": "",
          "type": "address"
        }
      ],
      "stateMutability": "view",
      "type": "function"
    },
    {
      "inputs": [
        {
          "internalType": "address",
          "name": "newOwner",
          "type": "address"
        }
      ],
      "name": "transferOwnership",
      "outputs": [],
      "stateMutability": "nonpayable",
      "type": "function"
    },
    {
      "inputs": [],
      "name": "withdrawCommission",
      "outputs": [],
      "stateMutability": "nonpayable",
      "type": "function"
    }
  ],
  "bytecode": "0x60806040523480156200001157600080fd5b506040516200154e3803806200154e8339818101604052810190620000379190620002a3565b33600073ffffffffffffffffffffffffffffffffffffffff168173ffffffffffffffffffffffffffffffffffffffff1603620000ad5760006040517f1e4fbdf7000000000000000000000000000000000000000000000000000000008152600401620000a49190620002fb565b60405180910390fd5b620000be816200012360201b60201c565b5081600060146101000a81548160ff021916908360ff16021790555080600160006101000a81548173ffffffffffffffffffffffffffffffffffffffff021916908373ffffffffffffffffffffffffffffffffffffffff160217905550505062000318565b60008060009054906101000a900473ffffffffffffffffffffffffffffffffffffffff169050816000806101000a81548173ffffffffffffffffffffffffffffffffffffffff021916908373ffffffffffffffffffffffffffffffffffffffff1602179055508173ffffffffffffffffffffffffffffffffffffffff168173ffffffffffffffffffffffffffffffffffffffff167f8be0079c531659141344cd1fd0a4f28419497f9722a3daafe3b4186f6b6457e060405160405180910390a35050565b600080fd5b600060ff82169050919050565b6200020481620001ec565b81146200021057600080fd5b50565b6000815190506200022481620001f9565b92915050565b600073ffffffffffffffffffffffffffffffffffffffff82169050919050565b600062000257826200022a565b9050919050565b60006200026b826200024a565b9050919050565b6200027d816200025e565b81146200028957600080fd5b50565b6000815190506200029d8162000272565b92915050565b60008060408385031215620002bd57620002bc620001e7565b5b6000620002cd8582860162000213565b9250506020620002e0858286016200028c565b9150509250929050565b620002f5816200024a565b82525050565b6000602082019050620003126000830184620002ea565b92915050565b61122680620003286000396000f3fe608060405234801561001057600080fd5b50600436106100a95760003560e01c806388576dc91161007157806388576dc91461012c5780638aa58799146101485780638da5cb5b14610178578063f2fde38b14610196578063f873aff3146101b2578063fc0c546a146101ce576100a9565b80633e25e837146100ae578063438c3bcd146100b85780634f51e294146100d45780635ea1d6f814610104578063715018a614610122575b600080fd5b6100b66101ec565b005b6100d260048036038101906100cd9190610bd1565b610487565b005b6100ee60048036038101906100e99190610bd1565b610534565b6040516100fb9190610c1a565b60405180910390f35b61010c610554565b6040516101199190610c1a565b60405180910390f35b61012a610567565b005b61014660048036038101906101419190610c61565b61057b565b005b610162600480360381019061015d9190610bd1565b6105e7565b60405161016f9190610ca7565b60405180910390f35b6101806105ff565b60405161018d9190610cd1565b60405180910390f35b6101b060048036038101906101ab9190610bd1565b610628565b005b6101cc60048036038101906101c79190610d18565b6106ae565b005b6101d66109f5565b6040516101e39190610dca565b60405180910390f35b6000600360003373ffffffffffffffffffffffffffffffffffffffff1673ffffffffffffffffffffffffffffffffffffffff16815260200190815260200160002054905060008111610273576040517f08c379a000000000000000000000000000000000000000000000000000000000815260040161026a90610e42565b60405180910390fd5b80600160009054906101000a900473ffffffffffffffffffffffffffffffffffffffff1673ffffffffffffffffffffffffffffffffffffffff166370a08231306040518263ffffffff1660e01b81526004016102cf9190610cd1565b602060405180830381865afa1580156102ec573d6000803e3d6000fd5b505050506040513d601f19601f820116820180604052508101906103109190610e77565b11610350576040517f08c379a000000000000000000000000000000000000000000000000000000000815260040161034790610ef0565b60405180910390fd5b6000600360003373ffffffffffffffffffffffffffffffffffffffff1673ffffffffffffffffffffffffffffffffffffffff16815260200190815260200160002081905550600160009054906101000a900473ffffffffffffffffffffffffffffffffffffffff1673ffffffffffffffffffffffffffffffffffffffff1663a9059cbb33836040518363ffffffff1660e01b81526004016103f2929190610f10565b6020604051808303816000875af1158015610411573d6000803e3d6000fd5b505050506040513d601f19601f820116820180604052508101906104359190610f71565b503373ffffffffffffffffffffffffffffffffffffffff167f2a016beab1c9536945a8f4c51b734f24f9d1458b765600efdabb6a3c52251e758260405161047c9190610ca7565b60405180910390a250565b600060149054906101000a900460ff16600260008373ffffffffffffffffffffffffffffffffffffffff1673ffffffffffffffffffffffffffffffffffffffff16815260200190815260200160002060006101000a81548160ff021916908360ff1602179055508073ffffffffffffffffffffffffffffffffffffffff167f53286125aa034acaf4eb8a0931fe01b25caceba942ab407c6ce09e1b0dfab58c60405160405180910390a250565b60026020528060005260406000206000915054906101000a900460ff1681565b600060149054906101000a900460ff1681565b61056f610a1b565b6105796000610aa2565b565b610583610a1b565b80600060146101000a81548160ff021916908360ff1602179055507f33bedb18f5997e509fda05045e1279f45fd9c53ef8cb47f4b170f74cc63bccac600060149054906101000a900460ff166040516105dc9190610c1a565b60405180910390a150565b60036020528060005260406000206000915090505481565b60008060009054906101000a900473ffffffffffffffffffffffffffffffffffffffff16905090565b610630610a1b565b600073ffffffffffffffffffffffffffffffffffffffff168173ffffffffffffffffffffffffffffffffffffffff16036106a25760006040517f1e4fbdf70000000000000000000000000000000000000000000000000000000081526004016106999190610cd1565b60405180910390fd5b6106ab81610aa2565b50565b6106b6610a1b565b600082116106f9576040517f08c379a00000000000000000000000000000000000000000000000000000000081526004016106f090611010565b60405180910390fd5b8073ffffffffffffffffffffffffffffffffffffffff168373ffffffffffffffffffffffffffffffffffffffff1603610767576040517f08c379a000000000000000000000000000000000000000000000000000000000815260040161075e906110a2565b60405180910390fd5b6000600260008573ffffffffffffffffffffffffffffffffffffffff1673ffffffffffffffffffffffffffffffffffffffff16815260200190815260200160002060009054906101000a900460ff1660ff160361082657600060149054906101000a900460ff16600260008573ffffffffffffffffffffffffffffffffffffffff1673ffffffffffffffffffffffffffffffffffffffff16815260200190815260200160002060006101000a81548160ff021916908360ff1602179055505b60006064600260008673ffffffffffffffffffffffffffffffffffffffff1673ffffffffffffffffffffffffffffffffffffffff16815260200190815260200160002060009054906101000a900460ff1660ff168461088591906110f1565b61088f9190611162565b905080600360008673ffffffffffffffffffffffffffffffffffffffff1673ffffffffffffffffffffffffffffffffffffffff16815260200190815260200160002060008282546108e09190611193565b92505081905550600160009054906101000a900473ffffffffffffffffffffffffffffffffffffffff1673ffffffffffffffffffffffffffffffffffffffff1663a9059cbb83856040518363ffffffff1660e01b8152600401610944929190610f10565b6020604051808303816000875af1158015610963573d6000803e3d6000fd5b505050506040513d601f19601f820116820180604052508101906109879190610f71565b508373ffffffffffffffffffffffffffffffffffffffff168273ffffffffffffffffffffffffffffffffffffffff167f5a1838523901c986595a2cf4484933f2c42d64a7bfc9b6d0c40cacb22379fa8285846040516109e79291906111c7565b60405180910390a350505050565b600160009054906101000a900473ffffffffffffffffffffffffffffffffffffffff1681565b610a23610b66565b73ffffffffffffffffffffffffffffffffffffffff16610a416105ff565b73ffffffffffffffffffffffffffffffffffffffff1614610aa057610a64610b66565b6040517f118cdaa7000000000000000000000000000000000000000000000000000000008152600401610a979190610cd1565b60405180910390fd5b565b60008060009054906101000a900473ffffffffffffffffffffffffffffffffffffffff169050816000806101000a81548173ffffffffffffffffffffffffffffffffffffffff021916908373ffffffffffffffffffffffffffffffffffffffff1602179055508173ffffffffffffffffffffffffffffffffffffffff168173ffffffffffffffffffffffffffffffffffffffff167f8be0079c531659141344cd1fd0a4f28419497f9722a3daafe3b4186f6b6457e060405160405180910390a35050565b600033905090565b600080fd5b600073ffffffffffffffffffffffffffffffffffffffff82169050919050565b6000610b9e82610b73565b9050919050565b610bae81610b93565b8114610bb957600080fd5b50565b600081359050610bcb81610ba5565b92915050565b600060208284031215610be757610be6610b6e565b5b6000610bf584828501610bbc565b91505092915050565b600060ff82169050919050565b610c1481610bfe565b82525050565b6000602082019050610c2f6000830184610c0b565b92915050565b610c3e81610bfe565b8114610c4957600080fd5b50565b600081359050610c5b81610c35565b92915050565b600060208284031215610c7757610c76610b6e565b5b6000610c8584828501610c4c565b91505092915050565b6000819050919050565b610ca181610c8e565b82525050565b6000602082019050610cbc6000830184610c98565b92915050565b610ccb81610b93565b82525050565b6000602082019050610ce66000830184610cc2565b92915050565b610cf581610c8e565b8114610d0057600080fd5b50565b600081359050610d1281610cec565b92915050565b600080600060608486031215610d3157610d30610b6e565b5b6000610d3f86828701610bbc565b9350506020610d5086828701610d03565b9250506040610d6186828701610bbc565b9150509250925092565b6000819050919050565b6000610d90610d8b610d8684610b73565b610d6b565b610b73565b9050919050565b6000610da282610d75565b9050919050565b6000610db482610d97565b9050919050565b610dc481610da9565b82525050565b6000602082019050610ddf6000830184610dbb565b92915050565b600082825260208201905092915050565b7f4e6f20636f6d6d697373696f6e20746f20776974686472617700000000000000600082015250565b6000610e2c601983610de5565b9150610e3782610df6565b602082019050919050565b60006020820190508181036000830152610e5b81610e1f565b9050919050565b600081519050610e7181610cec565b92915050565b600060208284031215610e8d57610e8c610b6e565b5b6000610e9b84828501610e62565b91505092915050565b7f496e7375666669636e657420636f6e74726163742062616c616e636500000000600082015250565b6000610eda601c83610de5565b9150610ee582610ea4565b602082019050919050565b60006020820190508181036000830152610f0981610ecd565b9050919050565b6000604082019050610f256000830185610cc2565b610f326020830184610c98565b9392505050565b60008115159050919050565b610f4e81610f39565b8114610f5957600080fd5b50565b600081519050610f6b81610f45565b92915050565b600060208284031215610f8757610f86610b6e565b5b6000610f9584828501610f5c565b91505092915050565b7f50757263686173652076616c7565206d7573742062652067726561746572207460008201527f68616e2030000000000000000000000000000000000000000000000000000000602082015250565b6000610ffa602583610de5565b915061100582610f9e565b604082019050919050565b6000602082019050818103600083015261102981610fed565b9050919050565b7f416666696c696174652063616e6e6f74206265207468652073616d652061732060008201527f637573746f6d6572000000000000000000000000000000000000000000000000602082015250565b600061108c602883610de5565b915061109782611030565b604082019050919050565b600060208201905081810360008301526110bb8161107f565b9050919050565b7f4e487b7100000000000000000000000000000000000000000000000000000000600052601160045260246000fd5b60006110fc82610c8e565b915061110783610c8e565b925082820261111581610c8e565b9150828204841483151761112c5761112b6110c2565b5b5092915050565b7f4e487b7100000000000000000000000000000000000000000000000000000000600052601260045260246000fd5b600061116d82610c8e565b915061117883610c8e565b92508261118857611187611133565b5b828204905092915050565b600061119e82610c8e565b91506111a983610c8e565b92508282019050808211156111c1576111c06110c2565b5b92915050565b60006040820190506111dc6000830185610c98565b6111e96020830184610c98565b939250505056fea26469706673582212200d65c175349f9d75bc86070ec87ad9a8db179b76b72a97afa6869b05ab6fb3e464736f6c63430008180033",
  "linkReferences": {},
  "deployedLinkReferences": {}
}