{
  "_format": "hh-sol-artifact-1",
  "contractName": "AffiliateProgram",
  "sourceName": "contracts/Affiliate.sol",
  "abi": [
    {
      "inputs": [
        {
          "internalType": "uint8",
          "name": "_rate",
          "type": "uint8"
        },
        {
          "internalType": "contract IERC20",
          "name": "_token",
          "type": "address"
        }
      ],
      "stateMutability": "nonpayable",
      "type": "constructor"
    },
    {
      "inputs": [
        {
          "internalType": "address",
          "name": "owner",
          "type": "address"
        }
      ],
      "name": "OwnableInvalidOwner",
      "type": "error"
    },
    {
      "inputs": [
        {
          "internalType": "address",
          "name": "account",
          "type": "address"
        }
      ],
      "name": "OwnableUnauthorizedAccount",
      "type": "error"
    },
    {
      "anonymous": false,
      "inputs": [
        {
          "indexed": true,
          "internalType": "address",
          "name": "customer",
          "type": "address"
        },
        {
          "indexed": false,
          "internalType": "uint256",
          "name": "value",
          "type": "uint256"
        },
        {
          "indexed": true,
          "internalType": "address",
          "name": "affiliate",
          "type": "address"
        },
        {
          "indexed": false,
          "internalType": "uint256",
          "name": "commission",
          "type": "uint256"
        }
      ],
      "name": "AccumulatedCommission",
      "type": "event"
    },
    {
      "anonymous": false,
      "inputs": [
        {
          "indexed": true,
          "internalType": "address",
          "name": "affiliateWallet",
          "type": "address"
        }
      ],
      "name": "AffiliateRegistered",
      "type": "event"
    },
    {
      "anonymous": false,
      "inputs": [
        {
          "indexed": false,
          "internalType": "uint8",
          "name": "newRate",
          "type": "uint8"
        }
      ],
      "name": "ChangeCommisionRate",
      "type": "event"
    },
    {
      "anonymous": false,
      "inputs": [
        {
          "indexed": true,
          "internalType": "address",
          "name": "previousOwner",
          "type": "address"
        },
        {
          "indexed": true,
          "internalType": "address",
          "name": "newOwner",
          "type": "address"
        }
      ],
      "name": "OwnershipTransferred",
      "type": "event"
    },
    {
      "anonymous": false,
      "inputs": [
        {
          "indexed": true,
          "internalType": "address",
          "name": "customer",
          "type": "address"
        },
        {
          "indexed": false,
          "internalType": "uint256",
          "name": "value",
          "type": "uint256"
        }
      ],
      "name": "WithdrawCommission",
      "type": "event"
    },
    {
      "inputs": [
        {
          "internalType": "address",
          "name": "",
          "type": "address"
        }
      ],
      "name": "accumulatedCommission",
      "outputs": [
        {
          "internalType": "uint256",
          "name": "",
          "type": "uint256"
        }
      ],
      "stateMutability": "view",
      "type": "function"
    },
    {
      "inputs": [
        {
          "internalType": "address",
          "name": "_affiliate",
          "type": "address"
        },
        {
          "internalType": "uint256",
          "name": "_boughtValue",
          "type": "uint256"
        },
        {
          "internalType": "address",
          "name": "_buyer",
          "type": "address"
        }
      ],
      "name": "addCommissionByOwner",
      "outputs": [],
      "stateMutability": "nonpayable",
      "type": "function"
    },
    {
      "inputs": [
        {
          "internalType": "address",
          "name": "",
          "type": "address"
        }
      ],
      "name": "affiliates",
      "outputs": [
        {
          "internalType": "uint8",
          "name": "",
          "type": "uint8"
        }
      ],
      "stateMutability": "view",
      "type": "function"
    },
    {
      "inputs": [
        {
          "internalType": "uint8",
          "name": "_newRate",
          "type": "uint8"
        }
      ],
      "name": "changeCommissionRate",
      "outputs": [],
      "stateMutability": "nonpayable",
      "type": "function"
    },
    {
      "inputs": [],
      "name": "commissionRate",
      "outputs": [
        {
          "internalType": "uint8",
          "name": "",
          "type": "uint8"
        }
      ],
      "stateMutability": "view",
      "type": "function"
    },
    {
      "inputs": [
        {
          "internalType": "address",
          "name": "_address",
          "type": "address"
        }
      ],
      "name": "getAccumulatedCommission",
      "outputs": [
        {
          "internalType": "uint256",
          "name": "",
          "type": "uint256"
        }
      ],
      "stateMutability": "view",
      "type": "function"
    },
    {
      "inputs": [
        {
          "internalType": "address",
          "name": "_affiliateAddress",
          "type": "address"
        }
      ],
      "name": "getAffiliates",
      "outputs": [
        {
          "internalType": "uint8",
          "name": "",
          "type": "uint8"
        }
      ],
      "stateMutability": "view",
      "type": "function"
    },
    {
      "inputs": [],
      "name": "owner",
      "outputs": [
        {
          "internalType": "address",
          "name": "",
          "type": "address"
        }
      ],
      "stateMutability": "view",
      "type": "function"
    },
    {
      "inputs": [
        {
          "internalType": "address",
          "name": "_affiliateAddress",
          "type": "address"
        }
      ],
      "name": "registerAsAffiliate",
      "outputs": [],
      "stateMutability": "nonpayable",
      "type": "function"
    },
    {
      "inputs": [],
      "name": "renounceOwnership",
      "outputs": [],
      "stateMutability": "nonpayable",
      "type": "function"
    },
    {
      "inputs": [],
      "name": "token",
      "outputs": [
        {
          "internalType": "contract IERC20",
          "name": "",
          "type": "address"
        }
      ],
      "stateMutability": "view",
      "type": "function"
    },
    {
      "inputs": [
        {
          "internalType": "address",
          "name": "newOwner",
          "type": "address"
        }
      ],
      "name": "transferOwnership",
      "outputs": [],
      "stateMutability": "nonpayable",
      "type": "function"
    },
    {
      "inputs": [],
      "name": "withdrawCommission",
      "outputs": [],
      "stateMutability": "nonpayable",
      "type": "function"
    }
  ],
  "bytecode": "0x60806040523480156200001157600080fd5b5060405162001673380380620016738339818101604052810190620000379190620002a3565b33600073ffffffffffffffffffffffffffffffffffffffff168173ffffffffffffffffffffffffffffffffffffffff1603620000ad5760006040517f1e4fbdf7000000000000000000000000000000000000000000000000000000008152600401620000a49190620002fb565b60405180910390fd5b620000be816200012360201b60201c565b5081600060146101000a81548160ff021916908360ff16021790555080600160006101000a81548173ffffffffffffffffffffffffffffffffffffffff021916908373ffffffffffffffffffffffffffffffffffffffff160217905550505062000318565b60008060009054906101000a900473ffffffffffffffffffffffffffffffffffffffff169050816000806101000a81548173ffffffffffffffffffffffffffffffffffffffff021916908373ffffffffffffffffffffffffffffffffffffffff1602179055508173ffffffffffffffffffffffffffffffffffffffff168173ffffffffffffffffffffffffffffffffffffffff167f8be0079c531659141344cd1fd0a4f28419497f9722a3daafe3b4186f6b6457e060405160405180910390a35050565b600080fd5b600060ff82169050919050565b6200020481620001ec565b81146200021057600080fd5b50565b6000815190506200022481620001f9565b92915050565b600073ffffffffffffffffffffffffffffffffffffffff82169050919050565b600062000257826200022a565b9050919050565b60006200026b826200024a565b9050919050565b6200027d816200025e565b81146200028957600080fd5b50565b6000815190506200029d8162000272565b92915050565b60008060408385031215620002bd57620002bc620001e7565b5b6000620002cd8582860162000213565b9250506020620002e0858286016200028c565b9150509250929050565b620002f5816200024a565b82525050565b6000602082019050620003126000830184620002ea565b92915050565b61134b80620003286000396000f3fe608060405234801561001057600080fd5b50600436106100cf5760003560e01c806388576dc91161008c578063e1f363cd11610066578063e1f363cd146101ec578063f2fde38b1461021c578063f873aff314610238578063fc0c546a14610254576100cf565b806388576dc9146101825780638aa587991461019e5780638da5cb5b146101ce576100cf565b806321d38c78146100d45780633e25e83714610104578063438c3bcd1461010e5780634f51e2941461012a5780635ea1d6f81461015a578063715018a614610178575b600080fd5b6100ee60048036038101906100e99190610cf6565b610272565b6040516100fb9190610d3c565b60405180910390f35b61010c6102bb565b005b61012860048036038101906101239190610cf6565b610556565b005b610144600480360381019061013f9190610cf6565b610603565b6040516101519190610d73565b60405180910390f35b610162610623565b60405161016f9190610d73565b60405180910390f35b610180610636565b005b61019c60048036038101906101979190610dba565b61064a565b005b6101b860048036038101906101b39190610cf6565b6106b6565b6040516101c59190610d3c565b60405180910390f35b6101d66106ce565b6040516101e39190610df6565b60405180910390f35b61020660048036038101906102019190610cf6565b6106f7565b6040516102139190610d73565b60405180910390f35b61023660048036038101906102319190610cf6565b61074d565b005b610252600480360381019061024d9190610e3d565b6107d3565b005b61025c610b1a565b6040516102699190610eef565b60405180910390f35b6000600360008373ffffffffffffffffffffffffffffffffffffffff1673ffffffffffffffffffffffffffffffffffffffff168152602001908152602001600020549050919050565b6000600360003373ffffffffffffffffffffffffffffffffffffffff1673ffffffffffffffffffffffffffffffffffffffff16815260200190815260200160002054905060008111610342576040517f08c379a000000000000000000000000000000000000000000000000000000000815260040161033990610f67565b60405180910390fd5b80600160009054906101000a900473ffffffffffffffffffffffffffffffffffffffff1673ffffffffffffffffffffffffffffffffffffffff166370a08231306040518263ffffffff1660e01b815260040161039e9190610df6565b602060405180830381865afa1580156103bb573d6000803e3d6000fd5b505050506040513d601f19601f820116820180604052508101906103df9190610f9c565b1161041f576040517f08c379a000000000000000000000000000000000000000000000000000000000815260040161041690611015565b60405180910390fd5b6000600360003373ffffffffffffffffffffffffffffffffffffffff1673ffffffffffffffffffffffffffffffffffffffff16815260200190815260200160002081905550600160009054906101000a900473ffffffffffffffffffffffffffffffffffffffff1673ffffffffffffffffffffffffffffffffffffffff1663a9059cbb33836040518363ffffffff1660e01b81526004016104c1929190611035565b6020604051808303816000875af11580156104e0573d6000803e3d6000fd5b505050506040513d601f19601f820116820180604052508101906105049190611096565b503373ffffffffffffffffffffffffffffffffffffffff167f2a016beab1c9536945a8f4c51b734f24f9d1458b765600efdabb6a3c52251e758260405161054b9190610d3c565b60405180910390a250565b600060149054906101000a900460ff16600260008373ffffffffffffffffffffffffffffffffffffffff1673ffffffffffffffffffffffffffffffffffffffff16815260200190815260200160002060006101000a81548160ff021916908360ff1602179055508073ffffffffffffffffffffffffffffffffffffffff167f53286125aa034acaf4eb8a0931fe01b25caceba942ab407c6ce09e1b0dfab58c60405160405180910390a250565b60026020528060005260406000206000915054906101000a900460ff1681565b600060149054906101000a900460ff1681565b61063e610b40565b6106486000610bc7565b565b610652610b40565b80600060146101000a81548160ff021916908360ff1602179055507f33bedb18f5997e509fda05045e1279f45fd9c53ef8cb47f4b170f74cc63bccac600060149054906101000a900460ff166040516106ab9190610d73565b60405180910390a150565b60036020528060005260406000206000915090505481565b60008060009054906101000a900473ffffffffffffffffffffffffffffffffffffffff16905090565b6000600260008373ffffffffffffffffffffffffffffffffffffffff1673ffffffffffffffffffffffffffffffffffffffff16815260200190815260200160002060009054906101000a900460ff169050919050565b610755610b40565b600073ffffffffffffffffffffffffffffffffffffffff168173ffffffffffffffffffffffffffffffffffffffff16036107c75760006040517f1e4fbdf70000000000000000000000000000000000000000000000000000000081526004016107be9190610df6565b60405180910390fd5b6107d081610bc7565b50565b6107db610b40565b6000821161081e576040517f08c379a000000000000000000000000000000000000000000000000000000000815260040161081590611135565b60405180910390fd5b8073ffffffffffffffffffffffffffffffffffffffff168373ffffffffffffffffffffffffffffffffffffffff160361088c576040517f08c379a0000000000000000000000000000000000000000000000000000000008152600401610883906111c7565b60405180910390fd5b6000600260008573ffffffffffffffffffffffffffffffffffffffff1673ffffffffffffffffffffffffffffffffffffffff16815260200190815260200160002060009054906101000a900460ff1660ff160361094b57600060149054906101000a900460ff16600260008573ffffffffffffffffffffffffffffffffffffffff1673ffffffffffffffffffffffffffffffffffffffff16815260200190815260200160002060006101000a81548160ff021916908360ff1602179055505b60006064600260008673ffffffffffffffffffffffffffffffffffffffff1673ffffffffffffffffffffffffffffffffffffffff16815260200190815260200160002060009054906101000a900460ff1660ff16846109aa9190611216565b6109b49190611287565b905080600360008673ffffffffffffffffffffffffffffffffffffffff1673ffffffffffffffffffffffffffffffffffffffff1681526020019081526020016000206000828254610a0591906112b8565b92505081905550600160009054906101000a900473ffffffffffffffffffffffffffffffffffffffff1673ffffffffffffffffffffffffffffffffffffffff1663a9059cbb83856040518363ffffffff1660e01b8152600401610a69929190611035565b6020604051808303816000875af1158015610a88573d6000803e3d6000fd5b505050506040513d601f19601f82011682018060405250810190610aac9190611096565b508373ffffffffffffffffffffffffffffffffffffffff168273ffffffffffffffffffffffffffffffffffffffff167f5a1838523901c986595a2cf4484933f2c42d64a7bfc9b6d0c40cacb22379fa828584604051610b0c9291906112ec565b60405180910390a350505050565b600160009054906101000a900473ffffffffffffffffffffffffffffffffffffffff1681565b610b48610c8b565b73ffffffffffffffffffffffffffffffffffffffff16610b666106ce565b73ffffffffffffffffffffffffffffffffffffffff1614610bc557610b89610c8b565b6040517f118cdaa7000000000000000000000000000000000000000000000000000000008152600401610bbc9190610df6565b60405180910390fd5b565b60008060009054906101000a900473ffffffffffffffffffffffffffffffffffffffff169050816000806101000a81548173ffffffffffffffffffffffffffffffffffffffff021916908373ffffffffffffffffffffffffffffffffffffffff1602179055508173ffffffffffffffffffffffffffffffffffffffff168173ffffffffffffffffffffffffffffffffffffffff167f8be0079c531659141344cd1fd0a4f28419497f9722a3daafe3b4186f6b6457e060405160405180910390a35050565b600033905090565b600080fd5b600073ffffffffffffffffffffffffffffffffffffffff82169050919050565b6000610cc382610c98565b9050919050565b610cd381610cb8565b8114610cde57600080fd5b50565b600081359050610cf081610cca565b92915050565b600060208284031215610d0c57610d0b610c93565b5b6000610d1a84828501610ce1565b91505092915050565b6000819050919050565b610d3681610d23565b82525050565b6000602082019050610d516000830184610d2d565b92915050565b600060ff82169050919050565b610d6d81610d57565b82525050565b6000602082019050610d886000830184610d64565b92915050565b610d9781610d57565b8114610da257600080fd5b50565b600081359050610db481610d8e565b92915050565b600060208284031215610dd057610dcf610c93565b5b6000610dde84828501610da5565b91505092915050565b610df081610cb8565b82525050565b6000602082019050610e0b6000830184610de7565b92915050565b610e1a81610d23565b8114610e2557600080fd5b50565b600081359050610e3781610e11565b92915050565b600080600060608486031215610e5657610e55610c93565b5b6000610e6486828701610ce1565b9350506020610e7586828701610e28565b9250506040610e8686828701610ce1565b9150509250925092565b6000819050919050565b6000610eb5610eb0610eab84610c98565b610e90565b610c98565b9050919050565b6000610ec782610e9a565b9050919050565b6000610ed982610ebc565b9050919050565b610ee981610ece565b82525050565b6000602082019050610f046000830184610ee0565b92915050565b600082825260208201905092915050565b7f4e6f20636f6d6d697373696f6e20746f20776974686472617700000000000000600082015250565b6000610f51601983610f0a565b9150610f5c82610f1b565b602082019050919050565b60006020820190508181036000830152610f8081610f44565b9050919050565b600081519050610f9681610e11565b92915050565b600060208284031215610fb257610fb1610c93565b5b6000610fc084828501610f87565b91505092915050565b7f496e7375666669636e657420636f6e74726163742062616c616e636500000000600082015250565b6000610fff601c83610f0a565b915061100a82610fc9565b602082019050919050565b6000602082019050818103600083015261102e81610ff2565b9050919050565b600060408201905061104a6000830185610de7565b6110576020830184610d2d565b9392505050565b60008115159050919050565b6110738161105e565b811461107e57600080fd5b50565b6000815190506110908161106a565b92915050565b6000602082840312156110ac576110ab610c93565b5b60006110ba84828501611081565b91505092915050565b7f50757263686173652076616c7565206d7573742062652067726561746572207460008201527f68616e2030000000000000000000000000000000000000000000000000000000602082015250565b600061111f602583610f0a565b915061112a826110c3565b604082019050919050565b6000602082019050818103600083015261114e81611112565b9050919050565b7f416666696c696174652063616e6e6f74206265207468652073616d652061732060008201527f637573746f6d6572000000000000000000000000000000000000000000000000602082015250565b60006111b1602883610f0a565b91506111bc82611155565b604082019050919050565b600060208201905081810360008301526111e0816111a4565b9050919050565b7f4e487b7100000000000000000000000000000000000000000000000000000000600052601160045260246000fd5b600061122182610d23565b915061122c83610d23565b925082820261123a81610d23565b91508282048414831517611251576112506111e7565b5b5092915050565b7f4e487b7100000000000000000000000000000000000000000000000000000000600052601260045260246000fd5b600061129282610d23565b915061129d83610d23565b9250826112ad576112ac611258565b5b828204905092915050565b60006112c382610d23565b91506112ce83610d23565b92508282019050808211156112e6576112e56111e7565b5b92915050565b60006040820190506113016000830185610d2d565b61130e6020830184610d2d565b939250505056fea2646970667358221220b83ce20e8a0dbbdeca36a7afefb3b4918533c317cf4a769d7bbe30df732e4cac64736f6c63430008180033",
  "linkReferences": {},
  "deployedLinkReferences": {}
}